{
  "contractName": "Voting",
  "abi": [
    {
      "inputs": [
        {
          "internalType": "address",
          "name": "_centralAccount",
          "type": "address"
        }
      ],
      "payable": false,
      "stateMutability": "nonpayable",
      "type": "constructor"
    },
    {
      "anonymous": false,
      "inputs": [
        {
          "indexed": false,
          "internalType": "uint256",
          "name": "candidateID",
          "type": "uint256"
        },
        {
          "indexed": false,
          "internalType": "string",
          "name": "name",
          "type": "string"
        },
        {
          "indexed": false,
          "internalType": "string",
          "name": "party",
          "type": "string"
        }
      ],
      "name": "CandidateAdded",
      "type": "event"
    },
    {
      "anonymous": false,
      "inputs": [
        {
          "indexed": false,
          "internalType": "uint256",
          "name": "candidateID",
          "type": "uint256"
        },
        {
          "indexed": false,
          "internalType": "string",
          "name": "name",
          "type": "string"
        }
      ],
      "name": "CandidateDeleted",
      "type": "event"
    },
    {
      "anonymous": false,
      "inputs": [
        {
          "indexed": false,
          "internalType": "uint256",
          "name": "candidateID",
          "type": "uint256"
        },
        {
          "indexed": false,
          "internalType": "uint256",
          "name": "voteCount",
          "type": "uint256"
        }
      ],
      "name": "Voted",
      "type": "event"
    },
    {
      "constant": true,
      "inputs": [
        {
          "internalType": "uint256",
          "name": "",
          "type": "uint256"
        }
      ],
      "name": "candidates",
      "outputs": [
        {
          "internalType": "uint256",
          "name": "id",
          "type": "uint256"
        },
        {
          "internalType": "string",
          "name": "name",
          "type": "string"
        },
        {
          "internalType": "string",
          "name": "party",
          "type": "string"
        },
        {
          "internalType": "uint256",
          "name": "voteCount",
          "type": "uint256"
        }
      ],
      "payable": false,
      "stateMutability": "view",
      "type": "function"
    },
    {
      "constant": true,
      "inputs": [],
      "name": "countCandidates",
      "outputs": [
        {
          "internalType": "uint256",
          "name": "",
          "type": "uint256"
        }
      ],
      "payable": false,
      "stateMutability": "view",
      "type": "function"
    },
    {
      "constant": true,
      "inputs": [],
      "name": "owner",
      "outputs": [
        {
          "internalType": "address",
          "name": "",
          "type": "address"
        }
      ],
      "payable": false,
      "stateMutability": "view",
      "type": "function"
    },
    {
      "constant": true,
      "inputs": [],
      "name": "votingEnd",
      "outputs": [
        {
          "internalType": "uint256",
          "name": "",
          "type": "uint256"
        }
      ],
      "payable": false,
      "stateMutability": "view",
      "type": "function"
    },
    {
      "constant": true,
      "inputs": [],
      "name": "votingStart",
      "outputs": [
        {
          "internalType": "uint256",
          "name": "",
          "type": "uint256"
        }
      ],
      "payable": false,
      "stateMutability": "view",
      "type": "function"
    },
    {
      "constant": true,
      "inputs": [],
      "name": "getAllCandidates",
      "outputs": [
        {
          "internalType": "uint256[]",
          "name": "",
          "type": "uint256[]"
        },
        {
          "internalType": "string[]",
          "name": "",
          "type": "string[]"
        },
        {
          "internalType": "string[]",
          "name": "",
          "type": "string[]"
        },
        {
          "internalType": "uint256[]",
          "name": "",
          "type": "uint256[]"
        }
      ],
      "payable": false,
      "stateMutability": "view",
      "type": "function"
    },
    {
      "constant": false,
      "inputs": [
        {
          "internalType": "string",
          "name": "name",
          "type": "string"
        },
        {
          "internalType": "string",
          "name": "party",
          "type": "string"
        }
      ],
      "name": "addCandidate",
      "outputs": [
        {
          "internalType": "uint256",
          "name": "",
          "type": "uint256"
        }
      ],
      "payable": false,
      "stateMutability": "nonpayable",
      "type": "function"
    },
    {
      "constant": false,
      "inputs": [
        {
          "internalType": "uint256",
          "name": "candidateID",
          "type": "uint256"
        },
        {
          "internalType": "bytes32",
          "name": "hashedDLID",
          "type": "bytes32"
        }
      ],
      "name": "vote",
      "outputs": [],
      "payable": false,
      "stateMutability": "nonpayable",
      "type": "function"
    },
    {
      "constant": true,
      "inputs": [
        {
          "internalType": "uint256",
          "name": "candidateID",
          "type": "uint256"
        }
      ],
      "name": "getCandidate",
      "outputs": [
        {
          "internalType": "uint256",
          "name": "",
          "type": "uint256"
        },
        {
          "internalType": "string",
          "name": "",
          "type": "string"
        },
        {
          "internalType": "string",
          "name": "",
          "type": "string"
        },
        {
          "internalType": "uint256",
          "name": "",
          "type": "uint256"
        }
      ],
      "payable": false,
      "stateMutability": "view",
      "type": "function"
    },
    {
      "constant": true,
      "inputs": [],
      "name": "getVotingDates",
      "outputs": [
        {
          "internalType": "uint256",
          "name": "",
          "type": "uint256"
        },
        {
          "internalType": "uint256",
          "name": "",
          "type": "uint256"
        }
      ],
      "payable": false,
      "stateMutability": "pure",
      "type": "function"
    },
    {
      "constant": true,
      "inputs": [
        {
          "internalType": "bytes32",
          "name": "hashedDLID",
          "type": "bytes32"
        }
      ],
      "name": "checkVoterStatus",
      "outputs": [
        {
          "internalType": "bool",
          "name": "",
          "type": "bool"
        }
      ],
      "payable": false,
      "stateMutability": "view",
      "type": "function"
    },
    {
      "constant": false,
      "inputs": [
        {
          "internalType": "uint256",
          "name": "candidateID",
          "type": "uint256"
        }
      ],
      "name": "deleteCandidate",
      "outputs": [],
      "payable": false,
      "stateMutability": "nonpayable",
      "type": "function"
    }
  ],
  "bytecode": "0x608060405260006002553480156200001657600080fd5b5060405162001e6e38038062001e6e83398181016040526200003c9190810190620003ed565b33600360006101000a81548173ffffffffffffffffffffffffffffffffffffffff021916908373ffffffffffffffffffffffffffffffffffffffff16021790555080600460006101000a81548173ffffffffffffffffffffffffffffffffffffffff021916908373ffffffffffffffffffffffffffffffffffffffff1602179055506200013a6040518060400160405280600d81526020017f416c696365204a6f686e736f6e000000000000000000000000000000000000008152506040518060400160405280600b81526020017f4c6962657274617269616e0000000000000000000000000000000000000000008152506200023c60201b60201c565b50620001b76040518060400160405280600981526020017f426f6220536d69746800000000000000000000000000000000000000000000008152506040518060400160405280600a81526020017f52657075626c6963616e000000000000000000000000000000000000000000008152506200023c60201b60201c565b50620002346040518060400160405280600d81526020017f436861726c69652042726f776e000000000000000000000000000000000000008152506040518060400160405280600a81526020017f44656d6f637261746963000000000000000000000000000000000000000000008152506200023c60201b60201c565b505062000571565b60006002600081548092919060010191905055506040518060800160405280600254815260200184815260200183815260200160008152506000806002548152602001908152602001600020600082015181600001556020820151816001019080519060200190620002b092919062000327565b506040820151816002019080519060200190620002cf92919062000327565b50606082015181600301559050507fe64f834082661dd9ed89427b87edb6270fd6dad17198b0938f0edd058914c87f600254848460405162000314939291906200046b565b60405180910390a1600254905092915050565b828054600181600116156101000203166002900490600052602060002090601f016020900481019282601f106200036a57805160ff19168380011785556200039b565b828001600101855582156200039b579182015b828111156200039a5782518255916020019190600101906200037d565b5b509050620003aa9190620003ae565b5090565b620003d391905b80821115620003cf576000816000905550600101620003b5565b5090565b90565b600081519050620003e78162000557565b92915050565b6000602082840312156200040057600080fd5b60006200041084828501620003d6565b91505092915050565b60006200042682620004b6565b620004328185620004c1565b93506200044481856020860162000510565b6200044f8162000546565b840191505092915050565b620004658162000506565b82525050565b60006060820190506200048260008301866200045a565b818103602083015262000496818562000419565b90508181036040830152620004ac818462000419565b9050949350505050565b600081519050919050565b600082825260208201905092915050565b6000620004df82620004e6565b9050919050565b600073ffffffffffffffffffffffffffffffffffffffff82169050919050565b6000819050919050565b60005b838110156200053057808201518184015260208101905062000513565b8381111562000540576000848401525b50505050565b6000601f19601f8301169050919050565b6200056281620004d2565b81146200056e57600080fd5b50565b6118ed80620005816000396000f3fe608060405234801561001057600080fd5b50600436106100b45760003560e01c806368bb8bb61161007157806368bb8bb6146101aa57806385a38635146101c65780638da5cb5b146101e4578063b44cf60414610202578063b86eda9114610232578063e90e6cc214610250576100b4565b8063101158af146100b95780631e620cd4146100d757806326541b56146100f35780632e6997fe146101235780633477ee2e1461014457806335b8e82014610177575b600080fd5b6100c161026f565b6040516100ce9190611560565b60405180910390f35b6100f160048036036100ec9190810190610fe9565b610277565b005b61010d60048036036101089190810190610f7d565b6103ed565b60405161011a9190611560565b60405180910390f35b61012b6104d2565b60405161013b9493929190611444565b60405180910390f35b61015e60048036036101599190810190610fe9565b6107b3565b60405161016e9493929190611613565b60405180910390f35b610191600480360361018c9190810190610fe9565b610913565b6040516101a194939291906115c0565b60405180910390f35b6101c460048036036101bf9190810190611012565b610b13565b005b6101ce610d4e565b6040516101db9190611560565b60405180910390f35b6101ec610d56565b6040516101f99190611429565b60405180910390f35b61021c60048036036102179190810190610f54565b610d7c565b60405161022991906114a5565b60405180910390f35b61023a610da6565b6040516102479190611560565b60405180910390f35b610258610dac565b604051610266929190611696565b60405180910390f35b6365e5348081565b600360009054906101000a900473ffffffffffffffffffffffffffffffffffffffff1673ffffffffffffffffffffffffffffffffffffffff163373ffffffffffffffffffffffffffffffffffffffff1614610307576040517f08c379a00000000000000000000000000000000000000000000000000000000081526004016102fe90611500565b60405180910390fd5b60008111801561031957506002548111155b610358576040517f08c379a000000000000000000000000000000000000000000000000000000000815260040161034f906114e0565b60405180910390fd5b6000808281526020019081526020016000206000808201600090556001820160006103839190610dc1565b6002820160006103939190610dc1565b600382016000905550507f05ff1f7b57a0583f465c1b37ab337c69bd6881edab4b3ecf599a92d84b9b465d816000808481526020019081526020016000206001016040516103e2929190611666565b60405180910390a150565b6000600260008154809291906001019190505550604051806080016040528060025481526020018481526020018381526020016000815250600080600254815260200190815260200160002060008201518160000155602082015181600101908051906020019061045f929190610e09565b50604082015181600201908051906020019061047c929190610e09565b50606082015181600301559050507fe64f834082661dd9ed89427b87edb6270fd6dad17198b0938f0edd058914c87f60025484846040516104bf9392919061157b565b60405180910390a1600254905092915050565b606080606080606060025460405190808252806020026020018201604052801561050b5781602001602082028038833980820191505090505b509050606060025460405190808252806020026020018201604052801561054657816020015b60608152602001906001900390816105315790505b509050606060025460405190808252806020026020018201604052801561058157816020015b606081526020019060019003908161056c5790505b50905060606002546040519080825280602002602001820160405280156105b75781602001602082028038833980820191505090505b5090506000600190505b600254811161079c576000806000838152602001908152602001600020905080600001548660018403815181106105f457fe5b602002602001018181525050806001018054600181600116156101000203166002900480601f0160208091040260200160405190810160405280929190818152602001828054600181600116156101000203166002900480156106985780601f1061066d57610100808354040283529160200191610698565b820191906000526020600020905b81548152906001019060200180831161067b57829003601f168201915b50505050508560018403815181106106ac57fe5b6020026020010181905250806002018054600181600116156101000203166002900480601f01602080910402602001604051908101604052809291908181526020018280546001816001161561010002031660029004801561074f5780601f106107245761010080835404028352916020019161074f565b820191906000526020600020905b81548152906001019060200180831161073257829003601f168201915b505050505084600184038151811061076357fe5b6020026020010181905250806003015483600184038151811061078257fe5b6020026020010181815250505080806001019150506105c1565b508383838397509750975097505050505090919293565b6000602052806000526040600020600091509050806000015490806001018054600181600116156101000203166002900480601f0160208091040260200160405190810160405280929190818152602001828054600181600116156101000203166002900480156108655780601f1061083a57610100808354040283529160200191610865565b820191906000526020600020905b81548152906001019060200180831161084857829003601f168201915b505050505090806002018054600181600116156101000203166002900480601f0160208091040260200160405190810160405280929190818152602001828054600181600116156101000203166002900480156109035780601f106108d857610100808354040283529160200191610903565b820191906000526020600020905b8154815290600101906020018083116108e657829003601f168201915b5050505050908060030154905084565b60006060806000808511801561092b57506002548511155b61096a576040517f08c379a0000000000000000000000000000000000000000000000000000000008152600401610961906114e0565b60405180910390fd5b610972610e89565b60008087815260200190815260200160002060405180608001604052908160008201548152602001600182018054600181600116156101000203166002900480601f016020809104026020016040519081016040528092919081815260200182805460018160011615610100020316600290048015610a325780601f10610a0757610100808354040283529160200191610a32565b820191906000526020600020905b815481529060010190602001808311610a1557829003601f168201915b50505050508152602001600282018054600181600116156101000203166002900480601f016020809104026020016040519081016040528092919081815260200182805460018160011615610100020316600290048015610ad45780601f10610aa957610100808354040283529160200191610ad4565b820191906000526020600020905b815481529060010190602001808311610ab757829003601f168201915b50505050508152602001600382015481525050905080600001518160200151826040015183606001518292508191509450945094509450509193509193565b600460009054906101000a900473ffffffffffffffffffffffffffffffffffffffff1673ffffffffffffffffffffffffffffffffffffffff163373ffffffffffffffffffffffffffffffffffffffff1614610ba3576040517f08c379a0000000000000000000000000000000000000000000000000000000008152600401610b9a90611520565b60405180910390fd5b6365e534804210158015610bbb575063677485804211155b610bfa576040517f08c379a0000000000000000000000000000000000000000000000000000000008152600401610bf1906114c0565b60405180910390fd5b600082118015610c0c57506002548211155b610c4b576040517f08c379a0000000000000000000000000000000000000000000000000000000008152600401610c42906114e0565b60405180910390fd5b6001600082815260200190815260200160002060009054906101000a900460ff1615610cac576040517f08c379a0000000000000000000000000000000000000000000000000000000008152600401610ca390611540565b60405180910390fd5b600180600083815260200190815260200160002060006101000a81548160ff021916908315150217905550600080838152602001908152602001600020600301600081548092919060010191905055507f84a5508ca0d85b42a876e75a9126f3ae7b43617ce60b170bf8805d34630bc6548260008085815260200190815260200160002060030154604051610d42929190611696565b60405180910390a15050565b636774858081565b600360009054906101000a900473ffffffffffffffffffffffffffffffffffffffff1681565b60006001600083815260200190815260200160002060009054906101000a900460ff169050919050565b60025481565b6000806365e534806367748580915091509091565b50805460018160011615610100020316600290046000825580601f10610de75750610e06565b601f016020900490600052602060002090810190610e059190610eb1565b5b50565b828054600181600116156101000203166002900490600052602060002090601f016020900481019282601f10610e4a57805160ff1916838001178555610e78565b82800160010185558215610e78579182015b82811115610e77578251825591602001919060010190610e5c565b5b509050610e859190610eb1565b5090565b6040518060800160405280600081526020016060815260200160608152602001600081525090565b610ed391905b80821115610ecf576000816000905550600101610eb7565b5090565b90565b600081359050610ee58161187c565b92915050565b600082601f830112610efc57600080fd5b8135610f0f610f0a826116ec565b6116bf565b91508082526020830160208301858383011115610f2b57600080fd5b610f36838284611829565b50505092915050565b600081359050610f4e81611893565b92915050565b600060208284031215610f6657600080fd5b6000610f7484828501610ed6565b91505092915050565b60008060408385031215610f9057600080fd5b600083013567ffffffffffffffff811115610faa57600080fd5b610fb685828601610eeb565b925050602083013567ffffffffffffffff811115610fd357600080fd5b610fdf85828601610eeb565b9150509250929050565b600060208284031215610ffb57600080fd5b600061100984828501610f3f565b91505092915050565b6000806040838503121561102557600080fd5b600061103385828601610f3f565b925050602061104485828601610ed6565b9150509250929050565b600061105a83836111a4565b905092915050565b600061106e838361140b565b60208301905092915050565b611083816117d7565b82525050565b60006110948261174d565b61109e8185611793565b9350836020820285016110b085611718565b8060005b858110156110ec57848403895281516110cd858261104e565b94506110d883611779565b925060208a019950506001810190506110b4565b50829750879550505050505092915050565b600061110982611758565b61111381856117a4565b935061111e83611728565b8060005b8381101561114f5781516111368882611062565b975061114183611786565b925050600181019050611122565b5085935050505092915050565b611165816117e9565b82525050565b60006111768261176e565b61118081856117c6565b9350611190818560208601611838565b6111998161186b565b840191505092915050565b60006111af82611763565b6111b981856117b5565b93506111c9818560208601611838565b6111d28161186b565b840191505092915050565b60006111e882611763565b6111f281856117c6565b9350611202818560208601611838565b61120b8161186b565b840191505092915050565b60008154600181166000811461123357600181146112595761129d565b607f600283041661124481876117c6565b955060ff19831686526020860193505061129d565b6002820461126781876117c6565b955061127285611738565b60005b8281101561129457815481890152600182019150602081019050611275565b80880195505050505b505092915050565b60006112b26014836117c6565b91507f566f74696e67206973206e6f74206163746976650000000000000000000000006000830152602082019050919050565b60006112f26014836117c6565b91507f496e76616c69642063616e6469646174652049440000000000000000000000006000830152602082019050919050565b60006113326022836117c6565b91507f4f6e6c79206f776e65722063616e20706572666f726d2074686973206163746960008301527f6f6e0000000000000000000000000000000000000000000000000000000000006020830152604082019050919050565b60006113986014836117c6565b91507f556e617574686f72697a6564206163636f756e740000000000000000000000006000830152602082019050919050565b60006113d86016836117c6565b91507f596f75206861766520616c726561647920766f746564000000000000000000006000830152602082019050919050565b6114148161181f565b82525050565b6114238161181f565b82525050565b600060208201905061143e600083018461107a565b92915050565b6000608082019050818103600083015261145e81876110fe565b905081810360208301526114728186611089565b905081810360408301526114868185611089565b9050818103606083015261149a81846110fe565b905095945050505050565b60006020820190506114ba600083018461115c565b92915050565b600060208201905081810360008301526114d9816112a5565b9050919050565b600060208201905081810360008301526114f9816112e5565b9050919050565b6000602082019050818103600083015261151981611325565b9050919050565b600060208201905081810360008301526115398161138b565b9050919050565b60006020820190508181036000830152611559816113cb565b9050919050565b6000602082019050611575600083018461141a565b92915050565b6000606082019050611590600083018661141a565b81810360208301526115a2818561116b565b905081810360408301526115b6818461116b565b9050949350505050565b60006080820190506115d5600083018761141a565b81810360208301526115e7818661116b565b905081810360408301526115fb818561116b565b905061160a606083018461141a565b95945050505050565b6000608082019050611628600083018761141a565b818103602083015261163a81866111dd565b9050818103604083015261164e81856111dd565b905061165d606083018461141a565b95945050505050565b600060408201905061167b600083018561141a565b818103602083015261168d8184611216565b90509392505050565b60006040820190506116ab600083018561141a565b6116b8602083018461141a565b9392505050565b6000604051905081810181811067ffffffffffffffff821117156116e257600080fd5b8060405250919050565b600067ffffffffffffffff82111561170357600080fd5b601f19601f8301169050602081019050919050565b6000819050602082019050919050565b6000819050602082019050919050565b60008190508160005260206000209050919050565b600081519050919050565b600081519050919050565b600081519050919050565b600081519050919050565b6000602082019050919050565b6000602082019050919050565b600082825260208201905092915050565b600082825260208201905092915050565b600082825260208201905092915050565b600082825260208201905092915050565b60006117e2826117ff565b9050919050565b60008115159050919050565b6000819050919050565b600073ffffffffffffffffffffffffffffffffffffffff82169050919050565b6000819050919050565b82818337600083830152505050565b60005b8381101561185657808201518184015260208101905061183b565b83811115611865576000848401525b50505050565b6000601f19601f8301169050919050565b611885816117f5565b811461189057600080fd5b50565b61189c8161181f565b81146118a757600080fd5b5056fea365627a7a72315820b11dc90407d9f9feb12bbd28f9e7f9dea4df8dde245fd8f88152613349caae416c6578706572696d656e74616cf564736f6c63430005110040",
  "source": "// SPDX-License-Identifier: MIT\r\npragma solidity ^0.5.16;\r\npragma experimental ABIEncoderV2;\r\n\r\ncontract Voting {\r\n    struct Candidate {\r\n        uint id;\r\n        string name;\r\n        string party;\r\n        uint voteCount;\r\n    }\r\n\r\n    mapping(uint => Candidate) public candidates;\r\n    mapping(bytes32 => bool) private hasVoted; // Store hashed DL IDs\r\n    uint public countCandidates = 0;\r\n    uint256 public constant votingStart = 1709520000; \r\n    uint256 public constant votingEnd = 1735689600; \r\n    address public owner;\r\n    address private centralVotingAccount; // The centralized account for enacting blockchain methods\r\n\r\n    event CandidateAdded(uint candidateID, string name, string party);\r\n    event Voted(uint candidateID, uint voteCount);\r\n    event CandidateDeleted(uint candidateID, string name);\r\n\r\n    constructor(address _centralAccount) public {\r\n        owner = msg.sender;\r\n        centralVotingAccount = _centralAccount;\r\n        // Preload some candidates\r\n        addCandidate(\"Alice Johnson\", \"Libertarian\");\r\n        addCandidate(\"Bob Smith\", \"Republican\");\r\n        addCandidate(\"Charlie Brown\", \"Democratic\");\r\n    }\r\n\r\n    modifier onlyOwner() {\r\n        require(msg.sender == owner, \"Only owner can perform this action\");\r\n        _;\r\n    }\r\n\r\n    function getAllCandidates() public view returns (uint[] memory, string[] memory, string[] memory, uint[] memory) {\r\n        uint[] memory ids = new uint[](countCandidates);\r\n        string[] memory names = new string[](countCandidates);\r\n        string[] memory parties = new string[](countCandidates);\r\n        uint[] memory voteCounts = new uint[](countCandidates);\r\n\r\n        for (uint i = 1; i <= countCandidates; i++) {\r\n            Candidate storage candidate = candidates[i];\r\n            ids[i - 1] = candidate.id;\r\n            names[i - 1] = candidate.name;\r\n            parties[i - 1] = candidate.party;\r\n            voteCounts[i - 1] = candidate.voteCount;\r\n        }\r\n\r\n        return (ids, names, parties, voteCounts);\r\n    }\r\n\r\n    function addCandidate(string memory name, string memory party) public returns(uint) {\r\n        countCandidates++;\r\n        candidates[countCandidates] = Candidate(countCandidates, name, party, 0);\r\n        emit CandidateAdded(countCandidates, name, party);\r\n        return countCandidates;\r\n    }\r\n\r\n    function vote(uint candidateID, bytes32 hashedDLID) public {\r\n        require(msg.sender == centralVotingAccount, \"Unauthorized account\");\r\n        require(now >= votingStart && now <= votingEnd, \"Voting is not active\");\r\n        require(candidateID > 0 && candidateID <= countCandidates, \"Invalid candidate ID\");\r\n        require(!hasVoted[hashedDLID], \"You have already voted\");\r\n\r\n        hasVoted[hashedDLID] = true;\r\n        candidates[candidateID].voteCount++;\r\n        emit Voted(candidateID, candidates[candidateID].voteCount);\r\n    }\r\n\r\n    function getCandidate(uint candidateID) public view returns (uint, string memory, string memory, uint) {\r\n        require(candidateID > 0 && candidateID <= countCandidates, \"Invalid candidate ID\");\r\n        Candidate memory candidate = candidates[candidateID];\r\n        return (candidate.id, candidate.name, candidate.party, candidate.voteCount);\r\n    }\r\n\r\n    function getVotingDates() public pure returns (uint256, uint256) {\r\n        return (votingStart, votingEnd);\r\n    }\r\n\r\n    function checkVoterStatus(bytes32 hashedDLID) public view returns (bool) {\r\n        return hasVoted[hashedDLID];\r\n    }\r\n\r\n    function deleteCandidate(uint candidateID) public onlyOwner {\r\n        require(candidateID > 0 && candidateID <= countCandidates, \"Invalid candidate ID\");\r\n        delete candidates[candidateID];\r\n        emit CandidateDeleted(candidateID, candidates[candidateID].name);\r\n    }\r\n}\r\n",
  "sourcePath": "C:\\Users\\duhbi\\OneDrive\\Desktop\\code\\budget\\4301-Blockchain\\ethereum\\contracts\\Voting.sol",
  "compiler": {
    "name": "solc",
    "version": "0.5.17+commit.d19bba13.Emscripten.clang"
  },
  "schemaVersion": "3.4.16",
  "updatedAt": "2024-05-05T19:18:19.299Z",
  "networkType": "ethereum",
  "devdoc": {
    "methods": {}
  },
  "userdoc": {
    "methods": {}
  }
}