{
	"contracts/Voting.sol": {
		"Voting": {
			"abi": [
				{
					"inputs": [],
					"stateMutability": "nonpayable",
					"type": "constructor"
				},
				{
					"inputs": [
						{
							"internalType": "string",
							"name": "name",
							"type": "string"
						},
						{
							"internalType": "string",
							"name": "party",
							"type": "string"
						}
					],
					"name": "addCandidate",
					"outputs": [
						{
							"internalType": "uint256",
							"name": "",
							"type": "uint256"
						}
					],
					"stateMutability": "nonpayable",
					"type": "function"
				},
				{
					"inputs": [],
					"name": "checkVote",
					"outputs": [
						{
							"internalType": "bool",
							"name": "",
							"type": "bool"
						}
					],
					"stateMutability": "view",
					"type": "function"
				},
				{
					"inputs": [],
					"name": "countCandidates",
					"outputs": [
						{
							"internalType": "uint256",
							"name": "",
							"type": "uint256"
						}
					],
					"stateMutability": "view",
					"type": "function"
				},
				{
					"inputs": [
						{
							"internalType": "uint256",
							"name": "candidateID",
							"type": "uint256"
						}
					],
					"name": "getCandidate",
					"outputs": [
						{
							"internalType": "uint256",
							"name": "",
							"type": "uint256"
						},
						{
							"internalType": "string",
							"name": "",
							"type": "string"
						},
						{
							"internalType": "string",
							"name": "",
							"type": "string"
						}
					],
					"stateMutability": "view",
					"type": "function"
				},
				{
					"inputs": [],
					"name": "getDates",
					"outputs": [
						{
							"internalType": "uint256",
							"name": "",
							"type": "uint256"
						},
						{
							"internalType": "uint256",
							"name": "",
							"type": "uint256"
						}
					],
					"stateMutability": "view",
					"type": "function"
				},
				{
					"inputs": [],
					"name": "getLeadingCandidate",
					"outputs": [
						{
							"internalType": "uint256",
							"name": "",
							"type": "uint256"
						},
						{
							"internalType": "string",
							"name": "",
							"type": "string"
						},
						{
							"internalType": "string",
							"name": "",
							"type": "string"
						},
						{
							"internalType": "uint256",
							"name": "",
							"type": "uint256"
						},
						{
							"internalType": "uint256",
							"name": "",
							"type": "uint256"
						}
					],
					"stateMutability": "view",
					"type": "function"
				},
				{
					"inputs": [],
					"name": "owner",
					"outputs": [
						{
							"internalType": "address",
							"name": "",
							"type": "address"
						}
					],
					"stateMutability": "view",
					"type": "function"
				},
				{
					"inputs": [
						{
							"internalType": "uint256",
							"name": "_startDate",
							"type": "uint256"
						},
						{
							"internalType": "uint256",
							"name": "_endDate",
							"type": "uint256"
						}
					],
					"name": "setDates",
					"outputs": [],
					"stateMutability": "nonpayable",
					"type": "function"
				},
				{
					"inputs": [
						{
							"internalType": "uint256",
							"name": "candidateID",
							"type": "uint256"
						}
					],
					"name": "vote",
					"outputs": [],
					"stateMutability": "nonpayable",
					"type": "function"
				},
				{
					"inputs": [
						{
							"internalType": "address",
							"name": "",
							"type": "address"
						}
					],
					"name": "voters",
					"outputs": [
						{
							"internalType": "bool",
							"name": "",
							"type": "bool"
						}
					],
					"stateMutability": "view",
					"type": "function"
				},
				{
					"inputs": [],
					"name": "votingEnd",
					"outputs": [
						{
							"internalType": "uint256",
							"name": "",
							"type": "uint256"
						}
					],
					"stateMutability": "view",
					"type": "function"
				},
				{
					"inputs": [],
					"name": "votingStart",
					"outputs": [
						{
							"internalType": "uint256",
							"name": "",
							"type": "uint256"
						}
					],
					"stateMutability": "view",
					"type": "function"
				}
			],
			"devdoc": {
				"kind": "dev",
				"methods": {},
				"version": 1
			},
			"evm": {
				"assembly": "    /* \"contracts/Voting.sol\":58:3335  contract Voting {... */\n  mstore(0x40, 0x80)\n    /* \"contracts/Voting.sol\":475:524  constructor() {... */\n  callvalue\n  dup1\n  iszero\n  tag_1\n  jumpi\n  0x00\n  dup1\n  revert\ntag_1:\n  pop\n    /* \"contracts/Voting.sol\":507:517  msg.sender */\n  caller\n    /* \"contracts/Voting.sol\":499:504  owner */\n  0x05\n  0x00\n    /* \"contracts/Voting.sol\":499:517  owner = msg.sender */\n  0x0100\n  exp\n  dup2\n  sload\n  dup2\n  0xffffffffffffffffffffffffffffffffffffffff\n  mul\n  not\n  and\n  swap1\n  dup4\n  0xffffffffffffffffffffffffffffffffffffffff\n  and\n  mul\n  or\n  swap1\n  sstore\n  pop\n    /* \"contracts/Voting.sol\":58:3335  contract Voting {... */\n  dataSize(sub_0)\n  dup1\n  dataOffset(sub_0)\n  0x00\n  codecopy\n  0x00\n  return\nstop\n\nsub_0: assembly {\n        /* \"contracts/Voting.sol\":58:3335  contract Voting {... */\n      mstore(0x40, 0x80)\n      callvalue\n      dup1\n      iszero\n      tag_1\n      jumpi\n      0x00\n      dup1\n      revert\n    tag_1:\n      pop\n      jumpi(tag_2, lt(calldatasize, 0x04))\n      shr(0xe0, calldataload(0x00))\n      dup1\n      0x85a38635\n      gt\n      tag_15\n      jumpi\n      dup1\n      0x85a38635\n      eq\n      tag_9\n      jumpi\n      dup1\n      0x8da5cb5b\n      eq\n      tag_10\n      jumpi\n      dup1\n      0xa3ec138d\n      eq\n      tag_11\n      jumpi\n      dup1\n      0xb0417e98\n      eq\n      tag_12\n      jumpi\n      dup1\n      0xb86eda91\n      eq\n      tag_13\n      jumpi\n      dup1\n      0xdedf141e\n      eq\n      tag_14\n      jumpi\n      jump(tag_2)\n    tag_15:\n      dup1\n      0x0121b93f\n      eq\n      tag_3\n      jumpi\n      dup1\n      0x101158af\n      eq\n      tag_4\n      jumpi\n      dup1\n      0x16441813\n      eq\n      tag_5\n      jumpi\n      dup1\n      0x26541b56\n      eq\n      tag_6\n      jumpi\n      dup1\n      0x35b8e820\n      eq\n      tag_7\n      jumpi\n      dup1\n      0x69d76ae2\n      eq\n      tag_8\n      jumpi\n    tag_2:\n      0x00\n      dup1\n      revert\n        /* \"contracts/Voting.sol\":899:1533  function vote(uint candidateID) public {... */\n    tag_3:\n      tag_16\n      0x04\n      dup1\n      calldatasize\n      sub\n      dup2\n      add\n      swap1\n      tag_17\n      swap2\n      swap1\n      tag_18\n      jump\t// in\n    tag_17:\n      tag_19\n      jump\t// in\n    tag_16:\n      stop\n        /* \"contracts/Voting.sol\":416:442  uint256 public votingStart */\n    tag_4:\n      tag_20\n      tag_21\n      jump\t// in\n    tag_20:\n      mload(0x40)\n      tag_22\n      swap2\n      swap1\n      tag_23\n      jump\t// in\n    tag_22:\n      mload(0x40)\n      dup1\n      swap2\n      sub\n      swap1\n      return\n        /* \"contracts/Voting.sol\":2285:2392  function getDates() public view returns (uint256, uint256) {... */\n    tag_5:\n      tag_24\n      tag_25\n      jump\t// in\n    tag_24:\n      mload(0x40)\n      tag_26\n      swap3\n      swap2\n      swap1\n      tag_27\n      jump\t// in\n    tag_26:\n      mload(0x40)\n      dup1\n      swap2\n      sub\n      swap1\n      return\n        /* \"contracts/Voting.sol\":651:893  function addCandidate(string memory name, string memory party) public onlyOwner returns(uint) {... */\n    tag_6:\n      tag_28\n      0x04\n      dup1\n      calldatasize\n      sub\n      dup2\n      add\n      swap1\n      tag_29\n      swap2\n      swap1\n      tag_30\n      jump\t// in\n    tag_29:\n      tag_31\n      jump\t// in\n    tag_28:\n      mload(0x40)\n      tag_32\n      swap2\n      swap1\n      tag_23\n      jump\t// in\n    tag_32:\n      mload(0x40)\n      dup1\n      swap2\n      sub\n      swap1\n      return\n        /* \"contracts/Voting.sol\":1957:2279  function getCandidate(uint candidateID) public view returns (uint, string memory, string memory) {... */\n    tag_7:\n      tag_33\n      0x04\n      dup1\n      calldatasize\n      sub\n      dup2\n      add\n      swap1\n      tag_34\n      swap2\n      swap1\n      tag_18\n      jump\t// in\n    tag_34:\n      tag_35\n      jump\t// in\n    tag_33:\n      mload(0x40)\n      tag_36\n      swap4\n      swap3\n      swap2\n      swap1\n      tag_37\n      jump\t// in\n    tag_36:\n      mload(0x40)\n      dup1\n      swap2\n      sub\n      swap1\n      return\n        /* \"contracts/Voting.sol\":2398:3333  function getLeadingCandidate() public view onlyOwner returns (uint, string memory, string memory, uint, uint) {... */\n    tag_8:\n      tag_38\n      tag_39\n      jump\t// in\n    tag_38:\n      mload(0x40)\n      tag_40\n      swap6\n      swap5\n      swap4\n      swap3\n      swap2\n      swap1\n      tag_41\n      jump\t// in\n    tag_40:\n      mload(0x40)\n      dup1\n      swap2\n      sub\n      swap1\n      return\n        /* \"contracts/Voting.sol\":386:410  uint256 public votingEnd */\n    tag_9:\n      tag_42\n      tag_43\n      jump\t// in\n    tag_42:\n      mload(0x40)\n      tag_44\n      swap2\n      swap1\n      tag_23\n      jump\t// in\n    tag_44:\n      mload(0x40)\n      dup1\n      swap2\n      sub\n      swap1\n      return\n        /* \"contracts/Voting.sol\":448:468  address public owner */\n    tag_10:\n      tag_45\n      tag_46\n      jump\t// in\n    tag_45:\n      mload(0x40)\n      tag_47\n      swap2\n      swap1\n      tag_48\n      jump\t// in\n    tag_47:\n      mload(0x40)\n      dup1\n      swap2\n      sub\n      swap1\n      return\n        /* \"contracts/Voting.sol\":309:347  mapping(address => bool) public voters */\n    tag_11:\n      tag_49\n      0x04\n      dup1\n      calldatasize\n      sub\n      dup2\n      add\n      swap1\n      tag_50\n      swap2\n      swap1\n      tag_51\n      jump\t// in\n    tag_50:\n      tag_52\n      jump\t// in\n    tag_49:\n      mload(0x40)\n      tag_53\n      swap2\n      swap1\n      tag_54\n      jump\t// in\n    tag_53:\n      mload(0x40)\n      dup1\n      swap2\n      sub\n      swap1\n      return\n        /* \"contracts/Voting.sol\":1862:1951  function checkVote() public view returns(bool) {... */\n    tag_12:\n      tag_55\n      tag_56\n      jump\t// in\n    tag_55:\n      mload(0x40)\n      tag_57\n      swap2\n      swap1\n      tag_54\n      jump\t// in\n    tag_57:\n      mload(0x40)\n      dup1\n      swap2\n      sub\n      swap1\n      return\n        /* \"contracts/Voting.sol\":353:380  uint public countCandidates */\n    tag_13:\n      tag_58\n      tag_59\n      jump\t// in\n    tag_58:\n      mload(0x40)\n      tag_60\n      swap2\n      swap1\n      tag_23\n      jump\t// in\n    tag_60:\n      mload(0x40)\n      dup1\n      swap2\n      sub\n      swap1\n      return\n        /* \"contracts/Voting.sol\":1539:1856  function setDates(uint256 _startDate, uint256 _endDate) public onlyOwner {... */\n    tag_14:\n      tag_61\n      0x04\n      dup1\n      calldatasize\n      sub\n      dup2\n      add\n      swap1\n      tag_62\n      swap2\n      swap1\n      tag_63\n      jump\t// in\n    tag_62:\n      tag_64\n      jump\t// in\n    tag_61:\n      stop\n        /* \"contracts/Voting.sol\":899:1533  function vote(uint candidateID) public {... */\n    tag_19:\n        /* \"contracts/Voting.sol\":1011:1016  owner */\n      0x05\n      0x00\n      swap1\n      sload\n      swap1\n      0x0100\n      exp\n      swap1\n      div\n      0xffffffffffffffffffffffffffffffffffffffff\n      and\n        /* \"contracts/Voting.sol\":997:1016  msg.sender != owner */\n      0xffffffffffffffffffffffffffffffffffffffff\n      and\n        /* \"contracts/Voting.sol\":997:1007  msg.sender */\n      caller\n        /* \"contracts/Voting.sol\":997:1016  msg.sender != owner */\n      0xffffffffffffffffffffffffffffffffffffffff\n      and\n      sub\n        /* \"contracts/Voting.sol\":989:1049  require(msg.sender != owner, \"Owner is not allowed to vote\") */\n      tag_66\n      jumpi\n      mload(0x40)\n      0x08c379a000000000000000000000000000000000000000000000000000000000\n      dup2\n      mstore\n      0x04\n      add\n      tag_67\n      swap1\n      tag_68\n      jump\t// in\n    tag_67:\n      mload(0x40)\n      dup1\n      swap2\n      sub\n      swap1\n      revert\n    tag_66:\n        /* \"contracts/Voting.sol\":1149:1150  0 */\n      0x00\n        /* \"contracts/Voting.sol\":1134:1145  votingStart */\n      sload(0x04)\n        /* \"contracts/Voting.sol\":1134:1150  votingStart != 0 */\n      eq\n      iszero\n        /* \"contracts/Voting.sol\":1134:1168  votingStart != 0 && votingEnd != 0 */\n      dup1\n      iszero\n      tag_69\n      jumpi\n      pop\n        /* \"contracts/Voting.sol\":1167:1168  0 */\n      0x00\n        /* \"contracts/Voting.sol\":1154:1163  votingEnd */\n      sload(0x03)\n        /* \"contracts/Voting.sol\":1154:1168  votingEnd != 0 */\n      eq\n      iszero\n        /* \"contracts/Voting.sol\":1134:1168  votingStart != 0 && votingEnd != 0 */\n    tag_69:\n        /* \"contracts/Voting.sol\":1130:1290  if (votingStart != 0 && votingEnd != 0) {... */\n      iszero\n      tag_70\n      jumpi\n        /* \"contracts/Voting.sol\":1211:1222  votingStart */\n      sload(0x04)\n        /* \"contracts/Voting.sol\":1192:1207  block.timestamp */\n      timestamp\n        /* \"contracts/Voting.sol\":1192:1222  block.timestamp >= votingStart */\n      lt\n      iszero\n        /* \"contracts/Voting.sol\":1192:1254  block.timestamp >= votingStart && block.timestamp <= votingEnd */\n      dup1\n      iszero\n      tag_71\n      jumpi\n      pop\n        /* \"contracts/Voting.sol\":1245:1254  votingEnd */\n      sload(0x03)\n        /* \"contracts/Voting.sol\":1226:1241  block.timestamp */\n      timestamp\n        /* \"contracts/Voting.sol\":1226:1254  block.timestamp <= votingEnd */\n      gt\n      iszero\n        /* \"contracts/Voting.sol\":1192:1254  block.timestamp >= votingStart && block.timestamp <= votingEnd */\n    tag_71:\n        /* \"contracts/Voting.sol\":1184:1279  require(block.timestamp >= votingStart && block.timestamp <= votingEnd, \"Voting is not active\") */\n      tag_72\n      jumpi\n      mload(0x40)\n      0x08c379a000000000000000000000000000000000000000000000000000000000\n      dup2\n      mstore\n      0x04\n      add\n      tag_73\n      swap1\n      tag_74\n      jump\t// in\n    tag_73:\n      mload(0x40)\n      dup1\n      swap2\n      sub\n      swap1\n      revert\n    tag_72:\n        /* \"contracts/Voting.sol\":1130:1290  if (votingStart != 0 && votingEnd != 0) {... */\n    tag_70:\n        /* \"contracts/Voting.sol\":1321:1322  0 */\n      0x00\n        /* \"contracts/Voting.sol\":1307:1318  candidateID */\n      dup2\n        /* \"contracts/Voting.sol\":1307:1322  candidateID > 0 */\n      gt\n        /* \"contracts/Voting.sol\":1307:1356  candidateID > 0 && candidateID <= countCandidates */\n      dup1\n      iszero\n      tag_75\n      jumpi\n      pop\n        /* \"contracts/Voting.sol\":1341:1356  countCandidates */\n      sload(0x02)\n        /* \"contracts/Voting.sol\":1326:1337  candidateID */\n      dup2\n        /* \"contracts/Voting.sol\":1326:1356  candidateID <= countCandidates */\n      gt\n      iszero\n        /* \"contracts/Voting.sol\":1307:1356  candidateID > 0 && candidateID <= countCandidates */\n    tag_75:\n        /* \"contracts/Voting.sol\":1299:1381  require(candidateID > 0 && candidateID <= countCandidates, \"Invalid candidate ID\") */\n      tag_76\n      jumpi\n      mload(0x40)\n      0x08c379a000000000000000000000000000000000000000000000000000000000\n      dup2\n      mstore\n      0x04\n      add\n      tag_77\n      swap1\n      tag_78\n      jump\t// in\n    tag_77:\n      mload(0x40)\n      dup1\n      swap2\n      sub\n      swap1\n      revert\n    tag_76:\n        /* \"contracts/Voting.sol\":1400:1406  voters */\n      0x01\n        /* \"contracts/Voting.sol\":1400:1418  voters[msg.sender] */\n      0x00\n        /* \"contracts/Voting.sol\":1407:1417  msg.sender */\n      caller\n        /* \"contracts/Voting.sol\":1400:1418  voters[msg.sender] */\n      0xffffffffffffffffffffffffffffffffffffffff\n      and\n      0xffffffffffffffffffffffffffffffffffffffff\n      and\n      dup2\n      mstore\n      0x20\n      add\n      swap1\n      dup2\n      mstore\n      0x20\n      add\n      0x00\n      keccak256\n      0x00\n      swap1\n      sload\n      swap1\n      0x0100\n      exp\n      swap1\n      div\n      0xff\n      and\n        /* \"contracts/Voting.sol\":1399:1418  !voters[msg.sender] */\n      iszero\n        /* \"contracts/Voting.sol\":1391:1445  require(!voters[msg.sender], \"You have already voted\") */\n      tag_79\n      jumpi\n      mload(0x40)\n      0x08c379a000000000000000000000000000000000000000000000000000000000\n      dup2\n      mstore\n      0x04\n      add\n      tag_80\n      swap1\n      tag_81\n      jump\t// in\n    tag_80:\n      mload(0x40)\n      dup1\n      swap2\n      sub\n      swap1\n      revert\n    tag_79:\n        /* \"contracts/Voting.sol\":1477:1481  true */\n      0x01\n        /* \"contracts/Voting.sol\":1456:1462  voters */\n      dup1\n        /* \"contracts/Voting.sol\":1456:1474  voters[msg.sender] */\n      0x00\n        /* \"contracts/Voting.sol\":1463:1473  msg.sender */\n      caller\n        /* \"contracts/Voting.sol\":1456:1474  voters[msg.sender] */\n      0xffffffffffffffffffffffffffffffffffffffff\n      and\n      0xffffffffffffffffffffffffffffffffffffffff\n      and\n      dup2\n      mstore\n      0x20\n      add\n      swap1\n      dup2\n      mstore\n      0x20\n      add\n      0x00\n      keccak256\n      0x00\n        /* \"contracts/Voting.sol\":1456:1481  voters[msg.sender] = true */\n      0x0100\n      exp\n      dup2\n      sload\n      dup2\n      0xff\n      mul\n      not\n      and\n      swap1\n      dup4\n      iszero\n      iszero\n      mul\n      or\n      swap1\n      sstore\n      pop\n        /* \"contracts/Voting.sol\":1491:1501  candidates */\n      0x00\n        /* \"contracts/Voting.sol\":1491:1514  candidates[candidateID] */\n      dup1\n        /* \"contracts/Voting.sol\":1502:1513  candidateID */\n      dup3\n        /* \"contracts/Voting.sol\":1491:1514  candidates[candidateID] */\n      dup2\n      mstore\n      0x20\n      add\n      swap1\n      dup2\n      mstore\n      0x20\n      add\n      0x00\n      keccak256\n        /* \"contracts/Voting.sol\":1491:1524  candidates[candidateID].voteCount */\n      0x03\n      add\n      0x00\n        /* \"contracts/Voting.sol\":1491:1526  candidates[candidateID].voteCount++ */\n      dup2\n      sload\n      dup1\n      swap3\n      swap2\n      swap1\n      tag_82\n      swap1\n      tag_83\n      jump\t// in\n    tag_82:\n      swap2\n      swap1\n      pop\n      sstore\n      pop\n        /* \"contracts/Voting.sol\":899:1533  function vote(uint candidateID) public {... */\n      pop\n      jump\t// out\n        /* \"contracts/Voting.sol\":416:442  uint256 public votingStart */\n    tag_21:\n      sload(0x04)\n      dup2\n      jump\t// out\n        /* \"contracts/Voting.sol\":2285:2392  function getDates() public view returns (uint256, uint256) {... */\n    tag_25:\n        /* \"contracts/Voting.sol\":2326:2333  uint256 */\n      0x00\n        /* \"contracts/Voting.sol\":2335:2342  uint256 */\n      dup1\n        /* \"contracts/Voting.sol\":2362:2373  votingStart */\n      sload(0x04)\n        /* \"contracts/Voting.sol\":2375:2384  votingEnd */\n      sload(0x03)\n        /* \"contracts/Voting.sol\":2354:2385  return (votingStart, votingEnd) */\n      swap2\n      pop\n      swap2\n      pop\n        /* \"contracts/Voting.sol\":2285:2392  function getDates() public view returns (uint256, uint256) {... */\n      swap1\n      swap2\n      jump\t// out\n        /* \"contracts/Voting.sol\":651:893  function addCandidate(string memory name, string memory party) public onlyOwner returns(uint) {... */\n    tag_31:\n        /* \"contracts/Voting.sol\":739:743  uint */\n      0x00\n        /* \"contracts/Voting.sol\":583:588  owner */\n      0x05\n      0x00\n      swap1\n      sload\n      swap1\n      0x0100\n      exp\n      swap1\n      div\n      0xffffffffffffffffffffffffffffffffffffffff\n      and\n        /* \"contracts/Voting.sol\":569:588  msg.sender == owner */\n      0xffffffffffffffffffffffffffffffffffffffff\n      and\n        /* \"contracts/Voting.sol\":569:579  msg.sender */\n      caller\n        /* \"contracts/Voting.sol\":569:588  msg.sender == owner */\n      0xffffffffffffffffffffffffffffffffffffffff\n      and\n      eq\n        /* \"contracts/Voting.sol\":561:627  require(msg.sender == owner, \"Only owner can perform this action\") */\n      tag_86\n      jumpi\n      mload(0x40)\n      0x08c379a000000000000000000000000000000000000000000000000000000000\n      dup2\n      mstore\n      0x04\n      add\n      tag_87\n      swap1\n      tag_88\n      jump\t// in\n    tag_87:\n      mload(0x40)\n      dup1\n      swap2\n      sub\n      swap1\n      revert\n    tag_86:\n        /* \"contracts/Voting.sol\":755:770  countCandidates */\n      0x02\n      0x00\n        /* \"contracts/Voting.sol\":755:772  countCandidates++ */\n      dup2\n      sload\n      dup1\n      swap3\n      swap2\n      swap1\n      tag_90\n      swap1\n      tag_83\n      jump\t// in\n    tag_90:\n      swap2\n      swap1\n      pop\n      sstore\n      pop\n        /* \"contracts/Voting.sol\":812:854  Candidate(countCandidates, name, party, 0) */\n      mload(0x40)\n      dup1\n      0x80\n      add\n      0x40\n      mstore\n      dup1\n        /* \"contracts/Voting.sol\":822:837  countCandidates */\n      sload(0x02)\n        /* \"contracts/Voting.sol\":812:854  Candidate(countCandidates, name, party, 0) */\n      dup2\n      mstore\n      0x20\n      add\n        /* \"contracts/Voting.sol\":839:843  name */\n      dup5\n        /* \"contracts/Voting.sol\":812:854  Candidate(countCandidates, name, party, 0) */\n      dup2\n      mstore\n      0x20\n      add\n        /* \"contracts/Voting.sol\":845:850  party */\n      dup4\n        /* \"contracts/Voting.sol\":812:854  Candidate(countCandidates, name, party, 0) */\n      dup2\n      mstore\n      0x20\n      add\n        /* \"contracts/Voting.sol\":852:853  0 */\n      0x00\n        /* \"contracts/Voting.sol\":812:854  Candidate(countCandidates, name, party, 0) */\n      dup2\n      mstore\n      pop\n        /* \"contracts/Voting.sol\":782:792  candidates */\n      0x00\n        /* \"contracts/Voting.sol\":782:809  candidates[countCandidates] */\n      dup1\n        /* \"contracts/Voting.sol\":793:808  countCandidates */\n      sload(0x02)\n        /* \"contracts/Voting.sol\":782:809  candidates[countCandidates] */\n      dup2\n      mstore\n      0x20\n      add\n      swap1\n      dup2\n      mstore\n      0x20\n      add\n      0x00\n      keccak256\n        /* \"contracts/Voting.sol\":782:854  candidates[countCandidates] = Candidate(countCandidates, name, party, 0) */\n      0x00\n      dup3\n      add\n      mload\n      dup2\n      0x00\n      add\n      sstore\n      0x20\n      dup3\n      add\n      mload\n      dup2\n      0x01\n      add\n      swap1\n      dup2\n      tag_91\n      swap2\n      swap1\n      tag_92\n      jump\t// in\n    tag_91:\n      pop\n      0x40\n      dup3\n      add\n      mload\n      dup2\n      0x02\n      add\n      swap1\n      dup2\n      tag_93\n      swap2\n      swap1\n      tag_92\n      jump\t// in\n    tag_93:\n      pop\n      0x60\n      dup3\n      add\n      mload\n      dup2\n      0x03\n      add\n      sstore\n      swap1\n      pop\n      pop\n        /* \"contracts/Voting.sol\":871:886  countCandidates */\n      sload(0x02)\n        /* \"contracts/Voting.sol\":864:886  return countCandidates */\n      swap1\n      pop\n        /* \"contracts/Voting.sol\":651:893  function addCandidate(string memory name, string memory party) public onlyOwner returns(uint) {... */\n      swap3\n      swap2\n      pop\n      pop\n      jump\t// out\n        /* \"contracts/Voting.sol\":1957:2279  function getCandidate(uint candidateID) public view returns (uint, string memory, string memory) {... */\n    tag_35:\n        /* \"contracts/Voting.sol\":2018:2022  uint */\n      0x00\n        /* \"contracts/Voting.sol\":2024:2037  string memory */\n      0x60\n        /* \"contracts/Voting.sol\":2039:2052  string memory */\n      dup1\n        /* \"contracts/Voting.sol\":2086:2087  0 */\n      0x00\n        /* \"contracts/Voting.sol\":2072:2083  candidateID */\n      dup5\n        /* \"contracts/Voting.sol\":2072:2087  candidateID > 0 */\n      gt\n        /* \"contracts/Voting.sol\":2072:2121  candidateID > 0 && candidateID <= countCandidates */\n      dup1\n      iszero\n      tag_95\n      jumpi\n      pop\n        /* \"contracts/Voting.sol\":2106:2121  countCandidates */\n      sload(0x02)\n        /* \"contracts/Voting.sol\":2091:2102  candidateID */\n      dup5\n        /* \"contracts/Voting.sol\":2091:2121  candidateID <= countCandidates */\n      gt\n      iszero\n        /* \"contracts/Voting.sol\":2072:2121  candidateID > 0 && candidateID <= countCandidates */\n    tag_95:\n        /* \"contracts/Voting.sol\":2064:2146  require(candidateID > 0 && candidateID <= countCandidates, \"Invalid candidate ID\") */\n      tag_96\n      jumpi\n      mload(0x40)\n      0x08c379a000000000000000000000000000000000000000000000000000000000\n      dup2\n      mstore\n      0x04\n      add\n      tag_97\n      swap1\n      tag_78\n      jump\t// in\n    tag_97:\n      mload(0x40)\n      dup1\n      swap2\n      sub\n      swap1\n      revert\n    tag_96:\n        /* \"contracts/Voting.sol\":2156:2182  Candidate memory candidate */\n      0x00\n        /* \"contracts/Voting.sol\":2185:2195  candidates */\n      dup1\n        /* \"contracts/Voting.sol\":2185:2208  candidates[candidateID] */\n      0x00\n        /* \"contracts/Voting.sol\":2196:2207  candidateID */\n      dup7\n        /* \"contracts/Voting.sol\":2185:2208  candidates[candidateID] */\n      dup2\n      mstore\n      0x20\n      add\n      swap1\n      dup2\n      mstore\n      0x20\n      add\n      0x00\n      keccak256\n        /* \"contracts/Voting.sol\":2156:2208  Candidate memory candidate = candidates[candidateID] */\n      mload(0x40)\n      dup1\n      0x80\n      add\n      0x40\n      mstore\n      swap1\n      dup2\n      0x00\n      dup3\n      add\n      sload\n      dup2\n      mstore\n      0x20\n      add\n      0x01\n      dup3\n      add\n      dup1\n      sload\n      tag_98\n      swap1\n      tag_99\n      jump\t// in\n    tag_98:\n      dup1\n      0x1f\n      add\n      0x20\n      dup1\n      swap2\n      div\n      mul\n      0x20\n      add\n      mload(0x40)\n      swap1\n      dup2\n      add\n      0x40\n      mstore\n      dup1\n      swap3\n      swap2\n      swap1\n      dup2\n      dup2\n      mstore\n      0x20\n      add\n      dup3\n      dup1\n      sload\n      tag_100\n      swap1\n      tag_99\n      jump\t// in\n    tag_100:\n      dup1\n      iszero\n      tag_101\n      jumpi\n      dup1\n      0x1f\n      lt\n      tag_102\n      jumpi\n      0x0100\n      dup1\n      dup4\n      sload\n      div\n      mul\n      dup4\n      mstore\n      swap2\n      0x20\n      add\n      swap2\n      jump(tag_101)\n    tag_102:\n      dup3\n      add\n      swap2\n      swap1\n      0x00\n      mstore\n      keccak256(0x00, 0x20)\n      swap1\n    tag_103:\n      dup2\n      sload\n      dup2\n      mstore\n      swap1\n      0x01\n      add\n      swap1\n      0x20\n      add\n      dup1\n      dup4\n      gt\n      tag_103\n      jumpi\n      dup3\n      swap1\n      sub\n      0x1f\n      and\n      dup3\n      add\n      swap2\n    tag_101:\n      pop\n      pop\n      pop\n      pop\n      pop\n      dup2\n      mstore\n      0x20\n      add\n      0x02\n      dup3\n      add\n      dup1\n      sload\n      tag_104\n      swap1\n      tag_99\n      jump\t// in\n    tag_104:\n      dup1\n      0x1f\n      add\n      0x20\n      dup1\n      swap2\n      div\n      mul\n      0x20\n      add\n      mload(0x40)\n      swap1\n      dup2\n      add\n      0x40\n      mstore\n      dup1\n      swap3\n      swap2\n      swap1\n      dup2\n      dup2\n      mstore\n      0x20\n      add\n      dup3\n      dup1\n      sload\n      tag_105\n      swap1\n      tag_99\n      jump\t// in\n    tag_105:\n      dup1\n      iszero\n      tag_106\n      jumpi\n      dup1\n      0x1f\n      lt\n      tag_107\n      jumpi\n      0x0100\n      dup1\n      dup4\n      sload\n      div\n      mul\n      dup4\n      mstore\n      swap2\n      0x20\n      add\n      swap2\n      jump(tag_106)\n    tag_107:\n      dup3\n      add\n      swap2\n      swap1\n      0x00\n      mstore\n      keccak256(0x00, 0x20)\n      swap1\n    tag_108:\n      dup2\n      sload\n      dup2\n      mstore\n      swap1\n      0x01\n      add\n      swap1\n      0x20\n      add\n      dup1\n      dup4\n      gt\n      tag_108\n      jumpi\n      dup3\n      swap1\n      sub\n      0x1f\n      and\n      dup3\n      add\n      swap2\n    tag_106:\n      pop\n      pop\n      pop\n      pop\n      pop\n      dup2\n      mstore\n      0x20\n      add\n      0x03\n      dup3\n      add\n      sload\n      dup2\n      mstore\n      pop\n      pop\n      swap1\n      pop\n        /* \"contracts/Voting.sol\":2226:2235  candidate */\n      dup1\n        /* \"contracts/Voting.sol\":2226:2238  candidate.id */\n      0x00\n      add\n      mload\n        /* \"contracts/Voting.sol\":2240:2249  candidate */\n      dup2\n        /* \"contracts/Voting.sol\":2240:2254  candidate.name */\n      0x20\n      add\n      mload\n        /* \"contracts/Voting.sol\":2256:2265  candidate */\n      dup3\n        /* \"contracts/Voting.sol\":2256:2271  candidate.party */\n      0x40\n      add\n      mload\n        /* \"contracts/Voting.sol\":2218:2272  return (candidate.id, candidate.name, candidate.party) */\n      swap4\n      pop\n      swap4\n      pop\n      swap4\n      pop\n      pop\n        /* \"contracts/Voting.sol\":1957:2279  function getCandidate(uint candidateID) public view returns (uint, string memory, string memory) {... */\n      swap2\n      swap4\n      swap1\n      swap3\n      pop\n      jump\t// out\n        /* \"contracts/Voting.sol\":2398:3333  function getLeadingCandidate() public view onlyOwner returns (uint, string memory, string memory, uint, uint) {... */\n    tag_39:\n        /* \"contracts/Voting.sol\":2460:2464  uint */\n      0x00\n        /* \"contracts/Voting.sol\":2466:2479  string memory */\n      0x60\n        /* \"contracts/Voting.sol\":2481:2494  string memory */\n      dup1\n        /* \"contracts/Voting.sol\":2496:2500  uint */\n      0x00\n        /* \"contracts/Voting.sol\":2502:2506  uint */\n      dup1\n        /* \"contracts/Voting.sol\":583:588  owner */\n      0x05\n      0x00\n      swap1\n      sload\n      swap1\n      0x0100\n      exp\n      swap1\n      div\n      0xffffffffffffffffffffffffffffffffffffffff\n      and\n        /* \"contracts/Voting.sol\":569:588  msg.sender == owner */\n      0xffffffffffffffffffffffffffffffffffffffff\n      and\n        /* \"contracts/Voting.sol\":569:579  msg.sender */\n      caller\n        /* \"contracts/Voting.sol\":569:588  msg.sender == owner */\n      0xffffffffffffffffffffffffffffffffffffffff\n      and\n      eq\n        /* \"contracts/Voting.sol\":561:627  require(msg.sender == owner, \"Only owner can perform this action\") */\n      tag_110\n      jumpi\n      mload(0x40)\n      0x08c379a000000000000000000000000000000000000000000000000000000000\n      dup2\n      mstore\n      0x04\n      add\n      tag_111\n      swap1\n      tag_88\n      jump\t// in\n    tag_111:\n      mload(0x40)\n      dup1\n      swap2\n      sub\n      swap1\n      revert\n    tag_110:\n        /* \"contracts/Voting.sol\":2518:2535  uint maxVoteCount */\n      0x00\n        /* \"contracts/Voting.sol\":2549:2572  uint leadingCandidateId */\n      dup1\n        /* \"contracts/Voting.sol\":2586:2601  uint totalVotes */\n      0x00\n        /* \"contracts/Voting.sol\":2621:2627  uint i */\n      dup1\n        /* \"contracts/Voting.sol\":2630:2631  1 */\n      0x01\n        /* \"contracts/Voting.sol\":2621:2631  uint i = 1 */\n      swap1\n      pop\n        /* \"contracts/Voting.sol\":2616:2890  for (uint i = 1; i <= countCandidates; i++) {... */\n    tag_113:\n        /* \"contracts/Voting.sol\":2638:2653  countCandidates */\n      sload(0x02)\n        /* \"contracts/Voting.sol\":2633:2634  i */\n      dup2\n        /* \"contracts/Voting.sol\":2633:2653  i <= countCandidates */\n      gt\n        /* \"contracts/Voting.sol\":2616:2890  for (uint i = 1; i <= countCandidates; i++) {... */\n      tag_114\n      jumpi\n        /* \"contracts/Voting.sol\":2688:2698  candidates */\n      0x00\n        /* \"contracts/Voting.sol\":2688:2701  candidates[i] */\n      dup1\n        /* \"contracts/Voting.sol\":2699:2700  i */\n      dup3\n        /* \"contracts/Voting.sol\":2688:2701  candidates[i] */\n      dup2\n      mstore\n      0x20\n      add\n      swap1\n      dup2\n      mstore\n      0x20\n      add\n      0x00\n      keccak256\n        /* \"contracts/Voting.sol\":2688:2711  candidates[i].voteCount */\n      0x03\n      add\n      sload\n        /* \"contracts/Voting.sol\":2674:2711  totalVotes += candidates[i].voteCount */\n      dup3\n      tag_116\n      swap2\n      swap1\n      tag_117\n      jump\t// in\n    tag_116:\n      swap2\n      pop\n        /* \"contracts/Voting.sol\":2755:2767  maxVoteCount */\n      dup4\n        /* \"contracts/Voting.sol\":2729:2739  candidates */\n      0x00\n        /* \"contracts/Voting.sol\":2729:2742  candidates[i] */\n      dup1\n        /* \"contracts/Voting.sol\":2740:2741  i */\n      dup4\n        /* \"contracts/Voting.sol\":2729:2742  candidates[i] */\n      dup2\n      mstore\n      0x20\n      add\n      swap1\n      dup2\n      mstore\n      0x20\n      add\n      0x00\n      keccak256\n        /* \"contracts/Voting.sol\":2729:2752  candidates[i].voteCount */\n      0x03\n      add\n      sload\n        /* \"contracts/Voting.sol\":2729:2767  candidates[i].voteCount > maxVoteCount */\n      gt\n        /* \"contracts/Voting.sol\":2725:2880  if (candidates[i].voteCount > maxVoteCount) {... */\n      iszero\n      tag_118\n      jumpi\n        /* \"contracts/Voting.sol\":2802:2812  candidates */\n      0x00\n        /* \"contracts/Voting.sol\":2802:2815  candidates[i] */\n      dup1\n        /* \"contracts/Voting.sol\":2813:2814  i */\n      dup3\n        /* \"contracts/Voting.sol\":2802:2815  candidates[i] */\n      dup2\n      mstore\n      0x20\n      add\n      swap1\n      dup2\n      mstore\n      0x20\n      add\n      0x00\n      keccak256\n        /* \"contracts/Voting.sol\":2802:2825  candidates[i].voteCount */\n      0x03\n      add\n      sload\n        /* \"contracts/Voting.sol\":2787:2825  maxVoteCount = candidates[i].voteCount */\n      swap4\n      pop\n        /* \"contracts/Voting.sol\":2864:2865  i */\n      dup1\n        /* \"contracts/Voting.sol\":2843:2865  leadingCandidateId = i */\n      swap3\n      pop\n        /* \"contracts/Voting.sol\":2725:2880  if (candidates[i].voteCount > maxVoteCount) {... */\n    tag_118:\n        /* \"contracts/Voting.sol\":2655:2658  i++ */\n      dup1\n      dup1\n      tag_119\n      swap1\n      tag_83\n      jump\t// in\n    tag_119:\n      swap2\n      pop\n      pop\n        /* \"contracts/Voting.sol\":2616:2890  for (uint i = 1; i <= countCandidates; i++) {... */\n      jump(tag_113)\n    tag_114:\n      pop\n        /* \"contracts/Voting.sol\":2930:2931  0 */\n      0x00\n        /* \"contracts/Voting.sol\":2908:2926  leadingCandidateId */\n      dup3\n        /* \"contracts/Voting.sol\":2908:2931  leadingCandidateId != 0 */\n      sub\n        /* \"contracts/Voting.sol\":2900:2953  require(leadingCandidateId != 0, \"No votes cast yet\") */\n      tag_120\n      jumpi\n      mload(0x40)\n      0x08c379a000000000000000000000000000000000000000000000000000000000\n      dup2\n      mstore\n      0x04\n      add\n      tag_121\n      swap1\n      tag_122\n      jump\t// in\n    tag_121:\n      mload(0x40)\n      dup1\n      swap2\n      sub\n      swap1\n      revert\n    tag_120:\n        /* \"contracts/Voting.sol\":2963:2982  uint votePercentage */\n      0x00\n        /* \"contracts/Voting.sol\":3013:3014  0 */\n      dup1\n        /* \"contracts/Voting.sol\":3000:3010  totalVotes */\n      dup3\n        /* \"contracts/Voting.sol\":3000:3014  totalVotes > 0 */\n      gt\n        /* \"contracts/Voting.sol\":2996:3121  if (totalVotes > 0) {... */\n      iszero\n      tag_123\n      jumpi\n        /* \"contracts/Voting.sol\":3070:3080  totalVotes */\n      dup2\n        /* \"contracts/Voting.sol\":3063:3066  100 */\n      0x64\n        /* \"contracts/Voting.sol\":3048:3060  maxVoteCount */\n      dup6\n        /* \"contracts/Voting.sol\":3048:3066  maxVoteCount * 100 */\n      tag_124\n      swap2\n      swap1\n      tag_125\n      jump\t// in\n    tag_124:\n        /* \"contracts/Voting.sol\":3047:3080  (maxVoteCount * 100) / totalVotes */\n      tag_126\n      swap2\n      swap1\n      tag_127\n      jump\t// in\n    tag_126:\n        /* \"contracts/Voting.sol\":3030:3080  votePercentage = (maxVoteCount * 100) / totalVotes */\n      swap1\n      pop\n        /* \"contracts/Voting.sol\":2996:3121  if (totalVotes > 0) {... */\n    tag_123:\n        /* \"contracts/Voting.sol\":3131:3164  Candidate memory leadingCandidate */\n      0x00\n        /* \"contracts/Voting.sol\":3167:3177  candidates */\n      dup1\n        /* \"contracts/Voting.sol\":3167:3197  candidates[leadingCandidateId] */\n      0x00\n        /* \"contracts/Voting.sol\":3178:3196  leadingCandidateId */\n      dup6\n        /* \"contracts/Voting.sol\":3167:3197  candidates[leadingCandidateId] */\n      dup2\n      mstore\n      0x20\n      add\n      swap1\n      dup2\n      mstore\n      0x20\n      add\n      0x00\n      keccak256\n        /* \"contracts/Voting.sol\":3131:3197  Candidate memory leadingCandidate = candidates[leadingCandidateId] */\n      mload(0x40)\n      dup1\n      0x80\n      add\n      0x40\n      mstore\n      swap1\n      dup2\n      0x00\n      dup3\n      add\n      sload\n      dup2\n      mstore\n      0x20\n      add\n      0x01\n      dup3\n      add\n      dup1\n      sload\n      tag_128\n      swap1\n      tag_99\n      jump\t// in\n    tag_128:\n      dup1\n      0x1f\n      add\n      0x20\n      dup1\n      swap2\n      div\n      mul\n      0x20\n      add\n      mload(0x40)\n      swap1\n      dup2\n      add\n      0x40\n      mstore\n      dup1\n      swap3\n      swap2\n      swap1\n      dup2\n      dup2\n      mstore\n      0x20\n      add\n      dup3\n      dup1\n      sload\n      tag_129\n      swap1\n      tag_99\n      jump\t// in\n    tag_129:\n      dup1\n      iszero\n      tag_130\n      jumpi\n      dup1\n      0x1f\n      lt\n      tag_131\n      jumpi\n      0x0100\n      dup1\n      dup4\n      sload\n      div\n      mul\n      dup4\n      mstore\n      swap2\n      0x20\n      add\n      swap2\n      jump(tag_130)\n    tag_131:\n      dup3\n      add\n      swap2\n      swap1\n      0x00\n      mstore\n      keccak256(0x00, 0x20)\n      swap1\n    tag_132:\n      dup2\n      sload\n      dup2\n      mstore\n      swap1\n      0x01\n      add\n      swap1\n      0x20\n      add\n      dup1\n      dup4\n      gt\n      tag_132\n      jumpi\n      dup3\n      swap1\n      sub\n      0x1f\n      and\n      dup3\n      add\n      swap2\n    tag_130:\n      pop\n      pop\n      pop\n      pop\n      pop\n      dup2\n      mstore\n      0x20\n      add\n      0x02\n      dup3\n      add\n      dup1\n      sload\n      tag_133\n      swap1\n      tag_99\n      jump\t// in\n    tag_133:\n      dup1\n      0x1f\n      add\n      0x20\n      dup1\n      swap2\n      div\n      mul\n      0x20\n      add\n      mload(0x40)\n      swap1\n      dup2\n      add\n      0x40\n      mstore\n      dup1\n      swap3\n      swap2\n      swap1\n      dup2\n      dup2\n      mstore\n      0x20\n      add\n      dup3\n      dup1\n      sload\n      tag_134\n      swap1\n      tag_99\n      jump\t// in\n    tag_134:\n      dup1\n      iszero\n      tag_135\n      jumpi\n      dup1\n      0x1f\n      lt\n      tag_136\n      jumpi\n      0x0100\n      dup1\n      dup4\n      sload\n      div\n      mul\n      dup4\n      mstore\n      swap2\n      0x20\n      add\n      swap2\n      jump(tag_135)\n    tag_136:\n      dup3\n      add\n      swap2\n      swap1\n      0x00\n      mstore\n      keccak256(0x00, 0x20)\n      swap1\n    tag_137:\n      dup2\n      sload\n      dup2\n      mstore\n      swap1\n      0x01\n      add\n      swap1\n      0x20\n      add\n      dup1\n      dup4\n      gt\n      tag_137\n      jumpi\n      dup3\n      swap1\n      sub\n      0x1f\n      and\n      dup3\n      add\n      swap2\n    tag_135:\n      pop\n      pop\n      pop\n      pop\n      pop\n      dup2\n      mstore\n      0x20\n      add\n      0x03\n      dup3\n      add\n      sload\n      dup2\n      mstore\n      pop\n      pop\n      swap1\n      pop\n        /* \"contracts/Voting.sol\":3215:3231  leadingCandidate */\n      dup1\n        /* \"contracts/Voting.sol\":3215:3234  leadingCandidate.id */\n      0x00\n      add\n      mload\n        /* \"contracts/Voting.sol\":3236:3252  leadingCandidate */\n      dup2\n        /* \"contracts/Voting.sol\":3236:3257  leadingCandidate.name */\n      0x20\n      add\n      mload\n        /* \"contracts/Voting.sol\":3259:3275  leadingCandidate */\n      dup3\n        /* \"contracts/Voting.sol\":3259:3281  leadingCandidate.party */\n      0x40\n      add\n      mload\n        /* \"contracts/Voting.sol\":3283:3299  leadingCandidate */\n      dup4\n        /* \"contracts/Voting.sol\":3283:3309  leadingCandidate.voteCount */\n      0x60\n      add\n      mload\n        /* \"contracts/Voting.sol\":3311:3325  votePercentage */\n      dup6\n        /* \"contracts/Voting.sol\":3207:3326  return (leadingCandidate.id, leadingCandidate.name, leadingCandidate.party, leadingCandidate.voteCount, votePercentage) */\n      swap10\n      pop\n      swap10\n      pop\n      swap10\n      pop\n      swap10\n      pop\n      swap10\n      pop\n      pop\n      pop\n      pop\n      pop\n      pop\n        /* \"contracts/Voting.sol\":2398:3333  function getLeadingCandidate() public view onlyOwner returns (uint, string memory, string memory, uint, uint) {... */\n      swap1\n      swap2\n      swap3\n      swap4\n      swap5\n      jump\t// out\n        /* \"contracts/Voting.sol\":386:410  uint256 public votingEnd */\n    tag_43:\n      sload(0x03)\n      dup2\n      jump\t// out\n        /* \"contracts/Voting.sol\":448:468  address public owner */\n    tag_46:\n      0x05\n      0x00\n      swap1\n      sload\n      swap1\n      0x0100\n      exp\n      swap1\n      div\n      0xffffffffffffffffffffffffffffffffffffffff\n      and\n      dup2\n      jump\t// out\n        /* \"contracts/Voting.sol\":309:347  mapping(address => bool) public voters */\n    tag_52:\n      mstore(0x20, 0x01)\n      dup1\n      0x00\n      mstore\n      keccak256(0x00, 0x40)\n      0x00\n      swap2\n      pop\n      sload\n      swap1\n      0x0100\n      exp\n      swap1\n      div\n      0xff\n      and\n      dup2\n      jump\t// out\n        /* \"contracts/Voting.sol\":1862:1951  function checkVote() public view returns(bool) {... */\n    tag_56:\n        /* \"contracts/Voting.sol\":1903:1907  bool */\n      0x00\n        /* \"contracts/Voting.sol\":1926:1932  voters */\n      0x01\n        /* \"contracts/Voting.sol\":1926:1944  voters[msg.sender] */\n      0x00\n        /* \"contracts/Voting.sol\":1933:1943  msg.sender */\n      caller\n        /* \"contracts/Voting.sol\":1926:1944  voters[msg.sender] */\n      0xffffffffffffffffffffffffffffffffffffffff\n      and\n      0xffffffffffffffffffffffffffffffffffffffff\n      and\n      dup2\n      mstore\n      0x20\n      add\n      swap1\n      dup2\n      mstore\n      0x20\n      add\n      0x00\n      keccak256\n      0x00\n      swap1\n      sload\n      swap1\n      0x0100\n      exp\n      swap1\n      div\n      0xff\n      and\n        /* \"contracts/Voting.sol\":1919:1944  return voters[msg.sender] */\n      swap1\n      pop\n        /* \"contracts/Voting.sol\":1862:1951  function checkVote() public view returns(bool) {... */\n      swap1\n      jump\t// out\n        /* \"contracts/Voting.sol\":353:380  uint public countCandidates */\n    tag_59:\n      sload(0x02)\n      dup2\n      jump\t// out\n        /* \"contracts/Voting.sol\":1539:1856  function setDates(uint256 _startDate, uint256 _endDate) public onlyOwner {... */\n    tag_64:\n        /* \"contracts/Voting.sol\":583:588  owner */\n      0x05\n      0x00\n      swap1\n      sload\n      swap1\n      0x0100\n      exp\n      swap1\n      div\n      0xffffffffffffffffffffffffffffffffffffffff\n      and\n        /* \"contracts/Voting.sol\":569:588  msg.sender == owner */\n      0xffffffffffffffffffffffffffffffffffffffff\n      and\n        /* \"contracts/Voting.sol\":569:579  msg.sender */\n      caller\n        /* \"contracts/Voting.sol\":569:588  msg.sender == owner */\n      0xffffffffffffffffffffffffffffffffffffffff\n      and\n      eq\n        /* \"contracts/Voting.sol\":561:627  require(msg.sender == owner, \"Only owner can perform this action\") */\n      tag_140\n      jumpi\n      mload(0x40)\n      0x08c379a000000000000000000000000000000000000000000000000000000000\n      dup2\n      mstore\n      0x04\n      add\n      tag_141\n      swap1\n      tag_88\n      jump\t// in\n    tag_141:\n      mload(0x40)\n      dup1\n      swap2\n      sub\n      swap1\n      revert\n    tag_140:\n        /* \"contracts/Voting.sol\":1643:1644  0 */\n      0x00\n        /* \"contracts/Voting.sol\":1630:1639  votingEnd */\n      sload(0x03)\n        /* \"contracts/Voting.sol\":1630:1644  votingEnd == 0 */\n      eq\n        /* \"contracts/Voting.sol\":1630:1664  votingEnd == 0 && votingStart == 0 */\n      dup1\n      iszero\n      tag_143\n      jumpi\n      pop\n        /* \"contracts/Voting.sol\":1663:1664  0 */\n      0x00\n        /* \"contracts/Voting.sol\":1648:1659  votingStart */\n      sload(0x04)\n        /* \"contracts/Voting.sol\":1648:1664  votingStart == 0 */\n      eq\n        /* \"contracts/Voting.sol\":1630:1664  votingEnd == 0 && votingStart == 0 */\n    tag_143:\n        /* \"contracts/Voting.sol\":1622:1686  require(votingEnd == 0 && votingStart == 0, \"Dates already set\") */\n      tag_144\n      jumpi\n      mload(0x40)\n      0x08c379a000000000000000000000000000000000000000000000000000000000\n      dup2\n      mstore\n      0x04\n      add\n      tag_145\n      swap1\n      tag_146\n      jump\t// in\n    tag_145:\n      mload(0x40)\n      dup1\n      swap2\n      sub\n      swap1\n      revert\n    tag_144:\n        /* \"contracts/Voting.sol\":1718:1733  block.timestamp */\n      timestamp\n        /* \"contracts/Voting.sol\":1704:1714  _startDate */\n      dup3\n        /* \"contracts/Voting.sol\":1704:1733  _startDate >= block.timestamp */\n      lt\n      iszero\n        /* \"contracts/Voting.sol\":1704:1758  _startDate >= block.timestamp && _endDate > _startDate */\n      dup1\n      iszero\n      tag_147\n      jumpi\n      pop\n        /* \"contracts/Voting.sol\":1748:1758  _startDate */\n      dup2\n        /* \"contracts/Voting.sol\":1737:1745  _endDate */\n      dup2\n        /* \"contracts/Voting.sol\":1737:1758  _endDate > _startDate */\n      gt\n        /* \"contracts/Voting.sol\":1704:1758  _startDate >= block.timestamp && _endDate > _startDate */\n    tag_147:\n        /* \"contracts/Voting.sol\":1696:1784  require(_startDate >= block.timestamp && _endDate > _startDate, \"Invalid date settings\") */\n      tag_148\n      jumpi\n      mload(0x40)\n      0x08c379a000000000000000000000000000000000000000000000000000000000\n      dup2\n      mstore\n      0x04\n      add\n      tag_149\n      swap1\n      tag_150\n      jump\t// in\n    tag_149:\n      mload(0x40)\n      dup1\n      swap2\n      sub\n      swap1\n      revert\n    tag_148:\n        /* \"contracts/Voting.sol\":1809:1819  _startDate */\n      dup2\n        /* \"contracts/Voting.sol\":1795:1806  votingStart */\n      0x04\n        /* \"contracts/Voting.sol\":1795:1819  votingStart = _startDate */\n      dup2\n      swap1\n      sstore\n      pop\n        /* \"contracts/Voting.sol\":1841:1849  _endDate */\n      dup1\n        /* \"contracts/Voting.sol\":1829:1838  votingEnd */\n      0x03\n        /* \"contracts/Voting.sol\":1829:1849  votingEnd = _endDate */\n      dup2\n      swap1\n      sstore\n      pop\n        /* \"contracts/Voting.sol\":1539:1856  function setDates(uint256 _startDate, uint256 _endDate) public onlyOwner {... */\n      pop\n      pop\n      jump\t// out\n        /* \"#utility.yul\":7:82   */\n    tag_151:\n        /* \"#utility.yul\":40:46   */\n      0x00\n        /* \"#utility.yul\":73:75   */\n      0x40\n        /* \"#utility.yul\":67:76   */\n      mload\n        /* \"#utility.yul\":57:76   */\n      swap1\n      pop\n        /* \"#utility.yul\":7:82   */\n      swap1\n      jump\t// out\n        /* \"#utility.yul\":88:205   */\n    tag_152:\n        /* \"#utility.yul\":197:198   */\n      0x00\n        /* \"#utility.yul\":194:195   */\n      dup1\n        /* \"#utility.yul\":187:199   */\n      revert\n        /* \"#utility.yul\":211:328   */\n    tag_153:\n        /* \"#utility.yul\":320:321   */\n      0x00\n        /* \"#utility.yul\":317:318   */\n      dup1\n        /* \"#utility.yul\":310:322   */\n      revert\n        /* \"#utility.yul\":334:411   */\n    tag_154:\n        /* \"#utility.yul\":371:378   */\n      0x00\n        /* \"#utility.yul\":400:405   */\n      dup2\n        /* \"#utility.yul\":389:405   */\n      swap1\n      pop\n        /* \"#utility.yul\":334:411   */\n      swap2\n      swap1\n      pop\n      jump\t// out\n        /* \"#utility.yul\":417:539   */\n    tag_155:\n        /* \"#utility.yul\":490:514   */\n      tag_219\n        /* \"#utility.yul\":508:513   */\n      dup2\n        /* \"#utility.yul\":490:514   */\n      tag_154\n      jump\t// in\n    tag_219:\n        /* \"#utility.yul\":483:488   */\n      dup2\n        /* \"#utility.yul\":480:515   */\n      eq\n        /* \"#utility.yul\":470:533   */\n      tag_220\n      jumpi\n        /* \"#utility.yul\":529:530   */\n      0x00\n        /* \"#utility.yul\":526:527   */\n      dup1\n        /* \"#utility.yul\":519:531   */\n      revert\n        /* \"#utility.yul\":470:533   */\n    tag_220:\n        /* \"#utility.yul\":417:539   */\n      pop\n      jump\t// out\n        /* \"#utility.yul\":545:684   */\n    tag_156:\n        /* \"#utility.yul\":591:596   */\n      0x00\n        /* \"#utility.yul\":629:635   */\n      dup2\n        /* \"#utility.yul\":616:636   */\n      calldataload\n        /* \"#utility.yul\":607:636   */\n      swap1\n      pop\n        /* \"#utility.yul\":645:678   */\n      tag_222\n        /* \"#utility.yul\":672:677   */\n      dup2\n        /* \"#utility.yul\":645:678   */\n      tag_155\n      jump\t// in\n    tag_222:\n        /* \"#utility.yul\":545:684   */\n      swap3\n      swap2\n      pop\n      pop\n      jump\t// out\n        /* \"#utility.yul\":690:1019   */\n    tag_18:\n        /* \"#utility.yul\":749:755   */\n      0x00\n        /* \"#utility.yul\":798:800   */\n      0x20\n        /* \"#utility.yul\":786:795   */\n      dup3\n        /* \"#utility.yul\":777:784   */\n      dup5\n        /* \"#utility.yul\":773:796   */\n      sub\n        /* \"#utility.yul\":769:801   */\n      slt\n        /* \"#utility.yul\":766:885   */\n      iszero\n      tag_224\n      jumpi\n        /* \"#utility.yul\":804:883   */\n      tag_225\n      tag_152\n      jump\t// in\n    tag_225:\n        /* \"#utility.yul\":766:885   */\n    tag_224:\n        /* \"#utility.yul\":924:925   */\n      0x00\n        /* \"#utility.yul\":949:1002   */\n      tag_226\n        /* \"#utility.yul\":994:1001   */\n      dup5\n        /* \"#utility.yul\":985:991   */\n      dup3\n        /* \"#utility.yul\":974:983   */\n      dup6\n        /* \"#utility.yul\":970:992   */\n      add\n        /* \"#utility.yul\":949:1002   */\n      tag_156\n      jump\t// in\n    tag_226:\n        /* \"#utility.yul\":939:1002   */\n      swap2\n      pop\n        /* \"#utility.yul\":895:1012   */\n      pop\n        /* \"#utility.yul\":690:1019   */\n      swap3\n      swap2\n      pop\n      pop\n      jump\t// out\n        /* \"#utility.yul\":1025:1143   */\n    tag_157:\n        /* \"#utility.yul\":1112:1136   */\n      tag_228\n        /* \"#utility.yul\":1130:1135   */\n      dup2\n        /* \"#utility.yul\":1112:1136   */\n      tag_154\n      jump\t// in\n    tag_228:\n        /* \"#utility.yul\":1107:1110   */\n      dup3\n        /* \"#utility.yul\":1100:1137   */\n      mstore\n        /* \"#utility.yul\":1025:1143   */\n      pop\n      pop\n      jump\t// out\n        /* \"#utility.yul\":1149:1371   */\n    tag_23:\n        /* \"#utility.yul\":1242:1246   */\n      0x00\n        /* \"#utility.yul\":1280:1282   */\n      0x20\n        /* \"#utility.yul\":1269:1278   */\n      dup3\n        /* \"#utility.yul\":1265:1283   */\n      add\n        /* \"#utility.yul\":1257:1283   */\n      swap1\n      pop\n        /* \"#utility.yul\":1293:1364   */\n      tag_230\n        /* \"#utility.yul\":1361:1362   */\n      0x00\n        /* \"#utility.yul\":1350:1359   */\n      dup4\n        /* \"#utility.yul\":1346:1363   */\n      add\n        /* \"#utility.yul\":1337:1343   */\n      dup5\n        /* \"#utility.yul\":1293:1364   */\n      tag_157\n      jump\t// in\n    tag_230:\n        /* \"#utility.yul\":1149:1371   */\n      swap3\n      swap2\n      pop\n      pop\n      jump\t// out\n        /* \"#utility.yul\":1377:1709   */\n    tag_27:\n        /* \"#utility.yul\":1498:1502   */\n      0x00\n        /* \"#utility.yul\":1536:1538   */\n      0x40\n        /* \"#utility.yul\":1525:1534   */\n      dup3\n        /* \"#utility.yul\":1521:1539   */\n      add\n        /* \"#utility.yul\":1513:1539   */\n      swap1\n      pop\n        /* \"#utility.yul\":1549:1620   */\n      tag_232\n        /* \"#utility.yul\":1617:1618   */\n      0x00\n        /* \"#utility.yul\":1606:1615   */\n      dup4\n        /* \"#utility.yul\":1602:1619   */\n      add\n        /* \"#utility.yul\":1593:1599   */\n      dup6\n        /* \"#utility.yul\":1549:1620   */\n      tag_157\n      jump\t// in\n    tag_232:\n        /* \"#utility.yul\":1630:1702   */\n      tag_233\n        /* \"#utility.yul\":1698:1700   */\n      0x20\n        /* \"#utility.yul\":1687:1696   */\n      dup4\n        /* \"#utility.yul\":1683:1701   */\n      add\n        /* \"#utility.yul\":1674:1680   */\n      dup5\n        /* \"#utility.yul\":1630:1702   */\n      tag_157\n      jump\t// in\n    tag_233:\n        /* \"#utility.yul\":1377:1709   */\n      swap4\n      swap3\n      pop\n      pop\n      pop\n      jump\t// out\n        /* \"#utility.yul\":1715:1832   */\n    tag_158:\n        /* \"#utility.yul\":1824:1825   */\n      0x00\n        /* \"#utility.yul\":1821:1822   */\n      dup1\n        /* \"#utility.yul\":1814:1826   */\n      revert\n        /* \"#utility.yul\":1838:1955   */\n    tag_159:\n        /* \"#utility.yul\":1947:1948   */\n      0x00\n        /* \"#utility.yul\":1944:1945   */\n      dup1\n        /* \"#utility.yul\":1937:1949   */\n      revert\n        /* \"#utility.yul\":1961:2063   */\n    tag_160:\n        /* \"#utility.yul\":2002:2008   */\n      0x00\n        /* \"#utility.yul\":2053:2055   */\n      0x1f\n        /* \"#utility.yul\":2049:2056   */\n      not\n        /* \"#utility.yul\":2044:2046   */\n      0x1f\n        /* \"#utility.yul\":2037:2042   */\n      dup4\n        /* \"#utility.yul\":2033:2047   */\n      add\n        /* \"#utility.yul\":2029:2057   */\n      and\n        /* \"#utility.yul\":2019:2057   */\n      swap1\n      pop\n        /* \"#utility.yul\":1961:2063   */\n      swap2\n      swap1\n      pop\n      jump\t// out\n        /* \"#utility.yul\":2069:2249   */\n    tag_161:\n        /* \"#utility.yul\":2117:2194   */\n      0x4e487b7100000000000000000000000000000000000000000000000000000000\n        /* \"#utility.yul\":2114:2115   */\n      0x00\n        /* \"#utility.yul\":2107:2195   */\n      mstore\n        /* \"#utility.yul\":2214:2218   */\n      0x41\n        /* \"#utility.yul\":2211:2212   */\n      0x04\n        /* \"#utility.yul\":2204:2219   */\n      mstore\n        /* \"#utility.yul\":2238:2242   */\n      0x24\n        /* \"#utility.yul\":2235:2236   */\n      0x00\n        /* \"#utility.yul\":2228:2243   */\n      revert\n        /* \"#utility.yul\":2255:2536   */\n    tag_162:\n        /* \"#utility.yul\":2338:2365   */\n      tag_239\n        /* \"#utility.yul\":2360:2364   */\n      dup3\n        /* \"#utility.yul\":2338:2365   */\n      tag_160\n      jump\t// in\n    tag_239:\n        /* \"#utility.yul\":2330:2336   */\n      dup2\n        /* \"#utility.yul\":2326:2366   */\n      add\n        /* \"#utility.yul\":2468:2474   */\n      dup2\n        /* \"#utility.yul\":2456:2466   */\n      dup2\n        /* \"#utility.yul\":2453:2475   */\n      lt\n        /* \"#utility.yul\":2432:2450   */\n      0xffffffffffffffff\n        /* \"#utility.yul\":2420:2430   */\n      dup3\n        /* \"#utility.yul\":2417:2451   */\n      gt\n        /* \"#utility.yul\":2414:2476   */\n      or\n        /* \"#utility.yul\":2411:2499   */\n      iszero\n      tag_240\n      jumpi\n        /* \"#utility.yul\":2479:2497   */\n      tag_241\n      tag_161\n      jump\t// in\n    tag_241:\n        /* \"#utility.yul\":2411:2499   */\n    tag_240:\n        /* \"#utility.yul\":2519:2529   */\n      dup1\n        /* \"#utility.yul\":2515:2517   */\n      0x40\n        /* \"#utility.yul\":2508:2530   */\n      mstore\n        /* \"#utility.yul\":2298:2536   */\n      pop\n        /* \"#utility.yul\":2255:2536   */\n      pop\n      pop\n      jump\t// out\n        /* \"#utility.yul\":2542:2671   */\n    tag_163:\n        /* \"#utility.yul\":2576:2582   */\n      0x00\n        /* \"#utility.yul\":2603:2623   */\n      tag_243\n      tag_151\n      jump\t// in\n    tag_243:\n        /* \"#utility.yul\":2593:2623   */\n      swap1\n      pop\n        /* \"#utility.yul\":2632:2665   */\n      tag_244\n        /* \"#utility.yul\":2660:2664   */\n      dup3\n        /* \"#utility.yul\":2652:2658   */\n      dup3\n        /* \"#utility.yul\":2632:2665   */\n      tag_162\n      jump\t// in\n    tag_244:\n        /* \"#utility.yul\":2542:2671   */\n      swap2\n      swap1\n      pop\n      jump\t// out\n        /* \"#utility.yul\":2677:2985   */\n    tag_164:\n        /* \"#utility.yul\":2739:2743   */\n      0x00\n        /* \"#utility.yul\":2829:2847   */\n      0xffffffffffffffff\n        /* \"#utility.yul\":2821:2827   */\n      dup3\n        /* \"#utility.yul\":2818:2848   */\n      gt\n        /* \"#utility.yul\":2815:2871   */\n      iszero\n      tag_246\n      jumpi\n        /* \"#utility.yul\":2851:2869   */\n      tag_247\n      tag_161\n      jump\t// in\n    tag_247:\n        /* \"#utility.yul\":2815:2871   */\n    tag_246:\n        /* \"#utility.yul\":2889:2918   */\n      tag_248\n        /* \"#utility.yul\":2911:2917   */\n      dup3\n        /* \"#utility.yul\":2889:2918   */\n      tag_160\n      jump\t// in\n    tag_248:\n        /* \"#utility.yul\":2881:2918   */\n      swap1\n      pop\n        /* \"#utility.yul\":2973:2977   */\n      0x20\n        /* \"#utility.yul\":2967:2971   */\n      dup2\n        /* \"#utility.yul\":2963:2978   */\n      add\n        /* \"#utility.yul\":2955:2978   */\n      swap1\n      pop\n        /* \"#utility.yul\":2677:2985   */\n      swap2\n      swap1\n      pop\n      jump\t// out\n        /* \"#utility.yul\":2991:3137   */\n    tag_165:\n        /* \"#utility.yul\":3088:3094   */\n      dup3\n        /* \"#utility.yul\":3083:3086   */\n      dup2\n        /* \"#utility.yul\":3078:3081   */\n      dup4\n        /* \"#utility.yul\":3065:3095   */\n      calldatacopy\n        /* \"#utility.yul\":3129:3130   */\n      0x00\n        /* \"#utility.yul\":3120:3126   */\n      dup4\n        /* \"#utility.yul\":3115:3118   */\n      dup4\n        /* \"#utility.yul\":3111:3127   */\n      add\n        /* \"#utility.yul\":3104:3131   */\n      mstore\n        /* \"#utility.yul\":2991:3137   */\n      pop\n      pop\n      pop\n      jump\t// out\n        /* \"#utility.yul\":3143:3568   */\n    tag_166:\n        /* \"#utility.yul\":3221:3226   */\n      0x00\n        /* \"#utility.yul\":3246:3312   */\n      tag_251\n        /* \"#utility.yul\":3262:3311   */\n      tag_252\n        /* \"#utility.yul\":3304:3310   */\n      dup5\n        /* \"#utility.yul\":3262:3311   */\n      tag_164\n      jump\t// in\n    tag_252:\n        /* \"#utility.yul\":3246:3312   */\n      tag_163\n      jump\t// in\n    tag_251:\n        /* \"#utility.yul\":3237:3312   */\n      swap1\n      pop\n        /* \"#utility.yul\":3335:3341   */\n      dup3\n        /* \"#utility.yul\":3328:3333   */\n      dup2\n        /* \"#utility.yul\":3321:3342   */\n      mstore\n        /* \"#utility.yul\":3373:3377   */\n      0x20\n        /* \"#utility.yul\":3366:3371   */\n      dup2\n        /* \"#utility.yul\":3362:3378   */\n      add\n        /* \"#utility.yul\":3411:3414   */\n      dup5\n        /* \"#utility.yul\":3402:3408   */\n      dup5\n        /* \"#utility.yul\":3397:3400   */\n      dup5\n        /* \"#utility.yul\":3393:3409   */\n      add\n        /* \"#utility.yul\":3390:3415   */\n      gt\n        /* \"#utility.yul\":3387:3499   */\n      iszero\n      tag_253\n      jumpi\n        /* \"#utility.yul\":3418:3497   */\n      tag_254\n      tag_159\n      jump\t// in\n    tag_254:\n        /* \"#utility.yul\":3387:3499   */\n    tag_253:\n        /* \"#utility.yul\":3508:3562   */\n      tag_255\n        /* \"#utility.yul\":3555:3561   */\n      dup5\n        /* \"#utility.yul\":3550:3553   */\n      dup3\n        /* \"#utility.yul\":3545:3548   */\n      dup6\n        /* \"#utility.yul\":3508:3562   */\n      tag_165\n      jump\t// in\n    tag_255:\n        /* \"#utility.yul\":3227:3568   */\n      pop\n        /* \"#utility.yul\":3143:3568   */\n      swap4\n      swap3\n      pop\n      pop\n      pop\n      jump\t// out\n        /* \"#utility.yul\":3588:3928   */\n    tag_167:\n        /* \"#utility.yul\":3644:3649   */\n      0x00\n        /* \"#utility.yul\":3693:3696   */\n      dup3\n        /* \"#utility.yul\":3686:3690   */\n      0x1f\n        /* \"#utility.yul\":3678:3684   */\n      dup4\n        /* \"#utility.yul\":3674:3691   */\n      add\n        /* \"#utility.yul\":3670:3697   */\n      slt\n        /* \"#utility.yul\":3660:3782   */\n      tag_257\n      jumpi\n        /* \"#utility.yul\":3701:3780   */\n      tag_258\n      tag_158\n      jump\t// in\n    tag_258:\n        /* \"#utility.yul\":3660:3782   */\n    tag_257:\n        /* \"#utility.yul\":3818:3824   */\n      dup2\n        /* \"#utility.yul\":3805:3825   */\n      calldataload\n        /* \"#utility.yul\":3843:3922   */\n      tag_259\n        /* \"#utility.yul\":3918:3921   */\n      dup5\n        /* \"#utility.yul\":3910:3916   */\n      dup3\n        /* \"#utility.yul\":3903:3907   */\n      0x20\n        /* \"#utility.yul\":3895:3901   */\n      dup7\n        /* \"#utility.yul\":3891:3908   */\n      add\n        /* \"#utility.yul\":3843:3922   */\n      tag_166\n      jump\t// in\n    tag_259:\n        /* \"#utility.yul\":3834:3922   */\n      swap2\n      pop\n        /* \"#utility.yul\":3650:3928   */\n      pop\n        /* \"#utility.yul\":3588:3928   */\n      swap3\n      swap2\n      pop\n      pop\n      jump\t// out\n        /* \"#utility.yul\":3934:4768   */\n    tag_30:\n        /* \"#utility.yul\":4022:4028   */\n      0x00\n        /* \"#utility.yul\":4030:4036   */\n      dup1\n        /* \"#utility.yul\":4079:4081   */\n      0x40\n        /* \"#utility.yul\":4067:4076   */\n      dup4\n        /* \"#utility.yul\":4058:4065   */\n      dup6\n        /* \"#utility.yul\":4054:4077   */\n      sub\n        /* \"#utility.yul\":4050:4082   */\n      slt\n        /* \"#utility.yul\":4047:4166   */\n      iszero\n      tag_261\n      jumpi\n        /* \"#utility.yul\":4085:4164   */\n      tag_262\n      tag_152\n      jump\t// in\n    tag_262:\n        /* \"#utility.yul\":4047:4166   */\n    tag_261:\n        /* \"#utility.yul\":4233:4234   */\n      0x00\n        /* \"#utility.yul\":4222:4231   */\n      dup4\n        /* \"#utility.yul\":4218:4235   */\n      add\n        /* \"#utility.yul\":4205:4236   */\n      calldataload\n        /* \"#utility.yul\":4263:4281   */\n      0xffffffffffffffff\n        /* \"#utility.yul\":4255:4261   */\n      dup2\n        /* \"#utility.yul\":4252:4282   */\n      gt\n        /* \"#utility.yul\":4249:4366   */\n      iszero\n      tag_263\n      jumpi\n        /* \"#utility.yul\":4285:4364   */\n      tag_264\n      tag_153\n      jump\t// in\n    tag_264:\n        /* \"#utility.yul\":4249:4366   */\n    tag_263:\n        /* \"#utility.yul\":4390:4453   */\n      tag_265\n        /* \"#utility.yul\":4445:4452   */\n      dup6\n        /* \"#utility.yul\":4436:4442   */\n      dup3\n        /* \"#utility.yul\":4425:4434   */\n      dup7\n        /* \"#utility.yul\":4421:4443   */\n      add\n        /* \"#utility.yul\":4390:4453   */\n      tag_167\n      jump\t// in\n    tag_265:\n        /* \"#utility.yul\":4380:4453   */\n      swap3\n      pop\n        /* \"#utility.yul\":4176:4463   */\n      pop\n        /* \"#utility.yul\":4530:4532   */\n      0x20\n        /* \"#utility.yul\":4519:4528   */\n      dup4\n        /* \"#utility.yul\":4515:4533   */\n      add\n        /* \"#utility.yul\":4502:4534   */\n      calldataload\n        /* \"#utility.yul\":4561:4579   */\n      0xffffffffffffffff\n        /* \"#utility.yul\":4553:4559   */\n      dup2\n        /* \"#utility.yul\":4550:4580   */\n      gt\n        /* \"#utility.yul\":4547:4664   */\n      iszero\n      tag_266\n      jumpi\n        /* \"#utility.yul\":4583:4662   */\n      tag_267\n      tag_153\n      jump\t// in\n    tag_267:\n        /* \"#utility.yul\":4547:4664   */\n    tag_266:\n        /* \"#utility.yul\":4688:4751   */\n      tag_268\n        /* \"#utility.yul\":4743:4750   */\n      dup6\n        /* \"#utility.yul\":4734:4740   */\n      dup3\n        /* \"#utility.yul\":4723:4732   */\n      dup7\n        /* \"#utility.yul\":4719:4741   */\n      add\n        /* \"#utility.yul\":4688:4751   */\n      tag_167\n      jump\t// in\n    tag_268:\n        /* \"#utility.yul\":4678:4751   */\n      swap2\n      pop\n        /* \"#utility.yul\":4473:4761   */\n      pop\n        /* \"#utility.yul\":3934:4768   */\n      swap3\n      pop\n      swap3\n      swap1\n      pop\n      jump\t// out\n        /* \"#utility.yul\":4774:4873   */\n    tag_168:\n        /* \"#utility.yul\":4826:4832   */\n      0x00\n        /* \"#utility.yul\":4860:4865   */\n      dup2\n        /* \"#utility.yul\":4854:4866   */\n      mload\n        /* \"#utility.yul\":4844:4866   */\n      swap1\n      pop\n        /* \"#utility.yul\":4774:4873   */\n      swap2\n      swap1\n      pop\n      jump\t// out\n        /* \"#utility.yul\":4879:5048   */\n    tag_169:\n        /* \"#utility.yul\":4963:4974   */\n      0x00\n        /* \"#utility.yul\":4997:5003   */\n      dup3\n        /* \"#utility.yul\":4992:4995   */\n      dup3\n        /* \"#utility.yul\":4985:5004   */\n      mstore\n        /* \"#utility.yul\":5037:5041   */\n      0x20\n        /* \"#utility.yul\":5032:5035   */\n      dup3\n        /* \"#utility.yul\":5028:5042   */\n      add\n        /* \"#utility.yul\":5013:5042   */\n      swap1\n      pop\n        /* \"#utility.yul\":4879:5048   */\n      swap3\n      swap2\n      pop\n      pop\n      jump\t// out\n        /* \"#utility.yul\":5054:5300   */\n    tag_170:\n        /* \"#utility.yul\":5135:5136   */\n      0x00\n        /* \"#utility.yul\":5145:5258   */\n    tag_272:\n        /* \"#utility.yul\":5159:5165   */\n      dup4\n        /* \"#utility.yul\":5156:5157   */\n      dup2\n        /* \"#utility.yul\":5153:5166   */\n      lt\n        /* \"#utility.yul\":5145:5258   */\n      iszero\n      tag_274\n      jumpi\n        /* \"#utility.yul\":5244:5245   */\n      dup1\n        /* \"#utility.yul\":5239:5242   */\n      dup3\n        /* \"#utility.yul\":5235:5246   */\n      add\n        /* \"#utility.yul\":5229:5247   */\n      mload\n        /* \"#utility.yul\":5225:5226   */\n      dup2\n        /* \"#utility.yul\":5220:5223   */\n      dup5\n        /* \"#utility.yul\":5216:5227   */\n      add\n        /* \"#utility.yul\":5209:5248   */\n      mstore\n        /* \"#utility.yul\":5181:5183   */\n      0x20\n        /* \"#utility.yul\":5178:5179   */\n      dup2\n        /* \"#utility.yul\":5174:5184   */\n      add\n        /* \"#utility.yul\":5169:5184   */\n      swap1\n      pop\n        /* \"#utility.yul\":5145:5258   */\n      jump(tag_272)\n    tag_274:\n        /* \"#utility.yul\":5292:5293   */\n      0x00\n        /* \"#utility.yul\":5283:5289   */\n      dup5\n        /* \"#utility.yul\":5278:5281   */\n      dup5\n        /* \"#utility.yul\":5274:5290   */\n      add\n        /* \"#utility.yul\":5267:5294   */\n      mstore\n        /* \"#utility.yul\":5116:5300   */\n      pop\n        /* \"#utility.yul\":5054:5300   */\n      pop\n      pop\n      pop\n      jump\t// out\n        /* \"#utility.yul\":5306:5683   */\n    tag_171:\n        /* \"#utility.yul\":5394:5397   */\n      0x00\n        /* \"#utility.yul\":5422:5461   */\n      tag_276\n        /* \"#utility.yul\":5455:5460   */\n      dup3\n        /* \"#utility.yul\":5422:5461   */\n      tag_168\n      jump\t// in\n    tag_276:\n        /* \"#utility.yul\":5477:5548   */\n      tag_277\n        /* \"#utility.yul\":5541:5547   */\n      dup2\n        /* \"#utility.yul\":5536:5539   */\n      dup6\n        /* \"#utility.yul\":5477:5548   */\n      tag_169\n      jump\t// in\n    tag_277:\n        /* \"#utility.yul\":5470:5548   */\n      swap4\n      pop\n        /* \"#utility.yul\":5557:5622   */\n      tag_278\n        /* \"#utility.yul\":5615:5621   */\n      dup2\n        /* \"#utility.yul\":5610:5613   */\n      dup6\n        /* \"#utility.yul\":5603:5607   */\n      0x20\n        /* \"#utility.yul\":5596:5601   */\n      dup7\n        /* \"#utility.yul\":5592:5608   */\n      add\n        /* \"#utility.yul\":5557:5622   */\n      tag_170\n      jump\t// in\n    tag_278:\n        /* \"#utility.yul\":5647:5676   */\n      tag_279\n        /* \"#utility.yul\":5669:5675   */\n      dup2\n        /* \"#utility.yul\":5647:5676   */\n      tag_160\n      jump\t// in\n    tag_279:\n        /* \"#utility.yul\":5642:5645   */\n      dup5\n        /* \"#utility.yul\":5638:5677   */\n      add\n        /* \"#utility.yul\":5631:5677   */\n      swap2\n      pop\n        /* \"#utility.yul\":5398:5683   */\n      pop\n        /* \"#utility.yul\":5306:5683   */\n      swap3\n      swap2\n      pop\n      pop\n      jump\t// out\n        /* \"#utility.yul\":5689:6313   */\n    tag_37:\n        /* \"#utility.yul\":5878:5882   */\n      0x00\n        /* \"#utility.yul\":5916:5918   */\n      0x60\n        /* \"#utility.yul\":5905:5914   */\n      dup3\n        /* \"#utility.yul\":5901:5919   */\n      add\n        /* \"#utility.yul\":5893:5919   */\n      swap1\n      pop\n        /* \"#utility.yul\":5929:6000   */\n      tag_281\n        /* \"#utility.yul\":5997:5998   */\n      0x00\n        /* \"#utility.yul\":5986:5995   */\n      dup4\n        /* \"#utility.yul\":5982:5999   */\n      add\n        /* \"#utility.yul\":5973:5979   */\n      dup7\n        /* \"#utility.yul\":5929:6000   */\n      tag_157\n      jump\t// in\n    tag_281:\n        /* \"#utility.yul\":6047:6056   */\n      dup2\n        /* \"#utility.yul\":6041:6045   */\n      dup2\n        /* \"#utility.yul\":6037:6057   */\n      sub\n        /* \"#utility.yul\":6032:6034   */\n      0x20\n        /* \"#utility.yul\":6021:6030   */\n      dup4\n        /* \"#utility.yul\":6017:6035   */\n      add\n        /* \"#utility.yul\":6010:6058   */\n      mstore\n        /* \"#utility.yul\":6075:6153   */\n      tag_282\n        /* \"#utility.yul\":6148:6152   */\n      dup2\n        /* \"#utility.yul\":6139:6145   */\n      dup6\n        /* \"#utility.yul\":6075:6153   */\n      tag_171\n      jump\t// in\n    tag_282:\n        /* \"#utility.yul\":6067:6153   */\n      swap1\n      pop\n        /* \"#utility.yul\":6200:6209   */\n      dup2\n        /* \"#utility.yul\":6194:6198   */\n      dup2\n        /* \"#utility.yul\":6190:6210   */\n      sub\n        /* \"#utility.yul\":6185:6187   */\n      0x40\n        /* \"#utility.yul\":6174:6183   */\n      dup4\n        /* \"#utility.yul\":6170:6188   */\n      add\n        /* \"#utility.yul\":6163:6211   */\n      mstore\n        /* \"#utility.yul\":6228:6306   */\n      tag_283\n        /* \"#utility.yul\":6301:6305   */\n      dup2\n        /* \"#utility.yul\":6292:6298   */\n      dup5\n        /* \"#utility.yul\":6228:6306   */\n      tag_171\n      jump\t// in\n    tag_283:\n        /* \"#utility.yul\":6220:6306   */\n      swap1\n      pop\n        /* \"#utility.yul\":5689:6313   */\n      swap5\n      swap4\n      pop\n      pop\n      pop\n      pop\n      jump\t// out\n        /* \"#utility.yul\":6319:7165   */\n    tag_41:\n        /* \"#utility.yul\":6564:6568   */\n      0x00\n        /* \"#utility.yul\":6602:6605   */\n      0xa0\n        /* \"#utility.yul\":6591:6600   */\n      dup3\n        /* \"#utility.yul\":6587:6606   */\n      add\n        /* \"#utility.yul\":6579:6606   */\n      swap1\n      pop\n        /* \"#utility.yul\":6616:6687   */\n      tag_285\n        /* \"#utility.yul\":6684:6685   */\n      0x00\n        /* \"#utility.yul\":6673:6682   */\n      dup4\n        /* \"#utility.yul\":6669:6686   */\n      add\n        /* \"#utility.yul\":6660:6666   */\n      dup9\n        /* \"#utility.yul\":6616:6687   */\n      tag_157\n      jump\t// in\n    tag_285:\n        /* \"#utility.yul\":6734:6743   */\n      dup2\n        /* \"#utility.yul\":6728:6732   */\n      dup2\n        /* \"#utility.yul\":6724:6744   */\n      sub\n        /* \"#utility.yul\":6719:6721   */\n      0x20\n        /* \"#utility.yul\":6708:6717   */\n      dup4\n        /* \"#utility.yul\":6704:6722   */\n      add\n        /* \"#utility.yul\":6697:6745   */\n      mstore\n        /* \"#utility.yul\":6762:6840   */\n      tag_286\n        /* \"#utility.yul\":6835:6839   */\n      dup2\n        /* \"#utility.yul\":6826:6832   */\n      dup8\n        /* \"#utility.yul\":6762:6840   */\n      tag_171\n      jump\t// in\n    tag_286:\n        /* \"#utility.yul\":6754:6840   */\n      swap1\n      pop\n        /* \"#utility.yul\":6887:6896   */\n      dup2\n        /* \"#utility.yul\":6881:6885   */\n      dup2\n        /* \"#utility.yul\":6877:6897   */\n      sub\n        /* \"#utility.yul\":6872:6874   */\n      0x40\n        /* \"#utility.yul\":6861:6870   */\n      dup4\n        /* \"#utility.yul\":6857:6875   */\n      add\n        /* \"#utility.yul\":6850:6898   */\n      mstore\n        /* \"#utility.yul\":6915:6993   */\n      tag_287\n        /* \"#utility.yul\":6988:6992   */\n      dup2\n        /* \"#utility.yul\":6979:6985   */\n      dup7\n        /* \"#utility.yul\":6915:6993   */\n      tag_171\n      jump\t// in\n    tag_287:\n        /* \"#utility.yul\":6907:6993   */\n      swap1\n      pop\n        /* \"#utility.yul\":7003:7075   */\n      tag_288\n        /* \"#utility.yul\":7071:7073   */\n      0x60\n        /* \"#utility.yul\":7060:7069   */\n      dup4\n        /* \"#utility.yul\":7056:7074   */\n      add\n        /* \"#utility.yul\":7047:7053   */\n      dup6\n        /* \"#utility.yul\":7003:7075   */\n      tag_157\n      jump\t// in\n    tag_288:\n        /* \"#utility.yul\":7085:7158   */\n      tag_289\n        /* \"#utility.yul\":7153:7156   */\n      0x80\n        /* \"#utility.yul\":7142:7151   */\n      dup4\n        /* \"#utility.yul\":7138:7157   */\n      add\n        /* \"#utility.yul\":7129:7135   */\n      dup5\n        /* \"#utility.yul\":7085:7158   */\n      tag_157\n      jump\t// in\n    tag_289:\n        /* \"#utility.yul\":6319:7165   */\n      swap7\n      swap6\n      pop\n      pop\n      pop\n      pop\n      pop\n      pop\n      jump\t// out\n        /* \"#utility.yul\":7171:7297   */\n    tag_172:\n        /* \"#utility.yul\":7208:7215   */\n      0x00\n        /* \"#utility.yul\":7248:7290   */\n      0xffffffffffffffffffffffffffffffffffffffff\n        /* \"#utility.yul\":7241:7246   */\n      dup3\n        /* \"#utility.yul\":7237:7291   */\n      and\n        /* \"#utility.yul\":7226:7291   */\n      swap1\n      pop\n        /* \"#utility.yul\":7171:7297   */\n      swap2\n      swap1\n      pop\n      jump\t// out\n        /* \"#utility.yul\":7303:7399   */\n    tag_173:\n        /* \"#utility.yul\":7340:7347   */\n      0x00\n        /* \"#utility.yul\":7369:7393   */\n      tag_292\n        /* \"#utility.yul\":7387:7392   */\n      dup3\n        /* \"#utility.yul\":7369:7393   */\n      tag_172\n      jump\t// in\n    tag_292:\n        /* \"#utility.yul\":7358:7393   */\n      swap1\n      pop\n        /* \"#utility.yul\":7303:7399   */\n      swap2\n      swap1\n      pop\n      jump\t// out\n        /* \"#utility.yul\":7405:7523   */\n    tag_174:\n        /* \"#utility.yul\":7492:7516   */\n      tag_294\n        /* \"#utility.yul\":7510:7515   */\n      dup2\n        /* \"#utility.yul\":7492:7516   */\n      tag_173\n      jump\t// in\n    tag_294:\n        /* \"#utility.yul\":7487:7490   */\n      dup3\n        /* \"#utility.yul\":7480:7517   */\n      mstore\n        /* \"#utility.yul\":7405:7523   */\n      pop\n      pop\n      jump\t// out\n        /* \"#utility.yul\":7529:7751   */\n    tag_48:\n        /* \"#utility.yul\":7622:7626   */\n      0x00\n        /* \"#utility.yul\":7660:7662   */\n      0x20\n        /* \"#utility.yul\":7649:7658   */\n      dup3\n        /* \"#utility.yul\":7645:7663   */\n      add\n        /* \"#utility.yul\":7637:7663   */\n      swap1\n      pop\n        /* \"#utility.yul\":7673:7744   */\n      tag_296\n        /* \"#utility.yul\":7741:7742   */\n      0x00\n        /* \"#utility.yul\":7730:7739   */\n      dup4\n        /* \"#utility.yul\":7726:7743   */\n      add\n        /* \"#utility.yul\":7717:7723   */\n      dup5\n        /* \"#utility.yul\":7673:7744   */\n      tag_174\n      jump\t// in\n    tag_296:\n        /* \"#utility.yul\":7529:7751   */\n      swap3\n      swap2\n      pop\n      pop\n      jump\t// out\n        /* \"#utility.yul\":7757:7879   */\n    tag_175:\n        /* \"#utility.yul\":7830:7854   */\n      tag_298\n        /* \"#utility.yul\":7848:7853   */\n      dup2\n        /* \"#utility.yul\":7830:7854   */\n      tag_173\n      jump\t// in\n    tag_298:\n        /* \"#utility.yul\":7823:7828   */\n      dup2\n        /* \"#utility.yul\":7820:7855   */\n      eq\n        /* \"#utility.yul\":7810:7873   */\n      tag_299\n      jumpi\n        /* \"#utility.yul\":7869:7870   */\n      0x00\n        /* \"#utility.yul\":7866:7867   */\n      dup1\n        /* \"#utility.yul\":7859:7871   */\n      revert\n        /* \"#utility.yul\":7810:7873   */\n    tag_299:\n        /* \"#utility.yul\":7757:7879   */\n      pop\n      jump\t// out\n        /* \"#utility.yul\":7885:8024   */\n    tag_176:\n        /* \"#utility.yul\":7931:7936   */\n      0x00\n        /* \"#utility.yul\":7969:7975   */\n      dup2\n        /* \"#utility.yul\":7956:7976   */\n      calldataload\n        /* \"#utility.yul\":7947:7976   */\n      swap1\n      pop\n        /* \"#utility.yul\":7985:8018   */\n      tag_301\n        /* \"#utility.yul\":8012:8017   */\n      dup2\n        /* \"#utility.yul\":7985:8018   */\n      tag_175\n      jump\t// in\n    tag_301:\n        /* \"#utility.yul\":7885:8024   */\n      swap3\n      swap2\n      pop\n      pop\n      jump\t// out\n        /* \"#utility.yul\":8030:8359   */\n    tag_51:\n        /* \"#utility.yul\":8089:8095   */\n      0x00\n        /* \"#utility.yul\":8138:8140   */\n      0x20\n        /* \"#utility.yul\":8126:8135   */\n      dup3\n        /* \"#utility.yul\":8117:8124   */\n      dup5\n        /* \"#utility.yul\":8113:8136   */\n      sub\n        /* \"#utility.yul\":8109:8141   */\n      slt\n        /* \"#utility.yul\":8106:8225   */\n      iszero\n      tag_303\n      jumpi\n        /* \"#utility.yul\":8144:8223   */\n      tag_304\n      tag_152\n      jump\t// in\n    tag_304:\n        /* \"#utility.yul\":8106:8225   */\n    tag_303:\n        /* \"#utility.yul\":8264:8265   */\n      0x00\n        /* \"#utility.yul\":8289:8342   */\n      tag_305\n        /* \"#utility.yul\":8334:8341   */\n      dup5\n        /* \"#utility.yul\":8325:8331   */\n      dup3\n        /* \"#utility.yul\":8314:8323   */\n      dup6\n        /* \"#utility.yul\":8310:8332   */\n      add\n        /* \"#utility.yul\":8289:8342   */\n      tag_176\n      jump\t// in\n    tag_305:\n        /* \"#utility.yul\":8279:8342   */\n      swap2\n      pop\n        /* \"#utility.yul\":8235:8352   */\n      pop\n        /* \"#utility.yul\":8030:8359   */\n      swap3\n      swap2\n      pop\n      pop\n      jump\t// out\n        /* \"#utility.yul\":8365:8455   */\n    tag_177:\n        /* \"#utility.yul\":8399:8406   */\n      0x00\n        /* \"#utility.yul\":8442:8447   */\n      dup2\n        /* \"#utility.yul\":8435:8448   */\n      iszero\n        /* \"#utility.yul\":8428:8449   */\n      iszero\n        /* \"#utility.yul\":8417:8449   */\n      swap1\n      pop\n        /* \"#utility.yul\":8365:8455   */\n      swap2\n      swap1\n      pop\n      jump\t// out\n        /* \"#utility.yul\":8461:8570   */\n    tag_178:\n        /* \"#utility.yul\":8542:8563   */\n      tag_308\n        /* \"#utility.yul\":8557:8562   */\n      dup2\n        /* \"#utility.yul\":8542:8563   */\n      tag_177\n      jump\t// in\n    tag_308:\n        /* \"#utility.yul\":8537:8540   */\n      dup3\n        /* \"#utility.yul\":8530:8564   */\n      mstore\n        /* \"#utility.yul\":8461:8570   */\n      pop\n      pop\n      jump\t// out\n        /* \"#utility.yul\":8576:8786   */\n    tag_54:\n        /* \"#utility.yul\":8663:8667   */\n      0x00\n        /* \"#utility.yul\":8701:8703   */\n      0x20\n        /* \"#utility.yul\":8690:8699   */\n      dup3\n        /* \"#utility.yul\":8686:8704   */\n      add\n        /* \"#utility.yul\":8678:8704   */\n      swap1\n      pop\n        /* \"#utility.yul\":8714:8779   */\n      tag_310\n        /* \"#utility.yul\":8776:8777   */\n      0x00\n        /* \"#utility.yul\":8765:8774   */\n      dup4\n        /* \"#utility.yul\":8761:8778   */\n      add\n        /* \"#utility.yul\":8752:8758   */\n      dup5\n        /* \"#utility.yul\":8714:8779   */\n      tag_178\n      jump\t// in\n    tag_310:\n        /* \"#utility.yul\":8576:8786   */\n      swap3\n      swap2\n      pop\n      pop\n      jump\t// out\n        /* \"#utility.yul\":8792:9266   */\n    tag_63:\n        /* \"#utility.yul\":8860:8866   */\n      0x00\n        /* \"#utility.yul\":8868:8874   */\n      dup1\n        /* \"#utility.yul\":8917:8919   */\n      0x40\n        /* \"#utility.yul\":8905:8914   */\n      dup4\n        /* \"#utility.yul\":8896:8903   */\n      dup6\n        /* \"#utility.yul\":8892:8915   */\n      sub\n        /* \"#utility.yul\":8888:8920   */\n      slt\n        /* \"#utility.yul\":8885:9004   */\n      iszero\n      tag_312\n      jumpi\n        /* \"#utility.yul\":8923:9002   */\n      tag_313\n      tag_152\n      jump\t// in\n    tag_313:\n        /* \"#utility.yul\":8885:9004   */\n    tag_312:\n        /* \"#utility.yul\":9043:9044   */\n      0x00\n        /* \"#utility.yul\":9068:9121   */\n      tag_314\n        /* \"#utility.yul\":9113:9120   */\n      dup6\n        /* \"#utility.yul\":9104:9110   */\n      dup3\n        /* \"#utility.yul\":9093:9102   */\n      dup7\n        /* \"#utility.yul\":9089:9111   */\n      add\n        /* \"#utility.yul\":9068:9121   */\n      tag_156\n      jump\t// in\n    tag_314:\n        /* \"#utility.yul\":9058:9121   */\n      swap3\n      pop\n        /* \"#utility.yul\":9014:9131   */\n      pop\n        /* \"#utility.yul\":9170:9172   */\n      0x20\n        /* \"#utility.yul\":9196:9249   */\n      tag_315\n        /* \"#utility.yul\":9241:9248   */\n      dup6\n        /* \"#utility.yul\":9232:9238   */\n      dup3\n        /* \"#utility.yul\":9221:9230   */\n      dup7\n        /* \"#utility.yul\":9217:9239   */\n      add\n        /* \"#utility.yul\":9196:9249   */\n      tag_156\n      jump\t// in\n    tag_315:\n        /* \"#utility.yul\":9186:9249   */\n      swap2\n      pop\n        /* \"#utility.yul\":9141:9259   */\n      pop\n        /* \"#utility.yul\":8792:9266   */\n      swap3\n      pop\n      swap3\n      swap1\n      pop\n      jump\t// out\n        /* \"#utility.yul\":9272:9450   */\n    tag_179:\n        /* \"#utility.yul\":9412:9442   */\n      0x4f776e6572206973206e6f7420616c6c6f77656420746f20766f746500000000\n        /* \"#utility.yul\":9408:9409   */\n      0x00\n        /* \"#utility.yul\":9400:9406   */\n      dup3\n        /* \"#utility.yul\":9396:9410   */\n      add\n        /* \"#utility.yul\":9389:9443   */\n      mstore\n        /* \"#utility.yul\":9272:9450   */\n      pop\n      jump\t// out\n        /* \"#utility.yul\":9456:9822   */\n    tag_180:\n        /* \"#utility.yul\":9598:9601   */\n      0x00\n        /* \"#utility.yul\":9619:9686   */\n      tag_318\n        /* \"#utility.yul\":9683:9685   */\n      0x1c\n        /* \"#utility.yul\":9678:9681   */\n      dup4\n        /* \"#utility.yul\":9619:9686   */\n      tag_169\n      jump\t// in\n    tag_318:\n        /* \"#utility.yul\":9612:9686   */\n      swap2\n      pop\n        /* \"#utility.yul\":9695:9788   */\n      tag_319\n        /* \"#utility.yul\":9784:9787   */\n      dup3\n        /* \"#utility.yul\":9695:9788   */\n      tag_179\n      jump\t// in\n    tag_319:\n        /* \"#utility.yul\":9813:9815   */\n      0x20\n        /* \"#utility.yul\":9808:9811   */\n      dup3\n        /* \"#utility.yul\":9804:9816   */\n      add\n        /* \"#utility.yul\":9797:9816   */\n      swap1\n      pop\n        /* \"#utility.yul\":9456:9822   */\n      swap2\n      swap1\n      pop\n      jump\t// out\n        /* \"#utility.yul\":9828:10247   */\n    tag_68:\n        /* \"#utility.yul\":9994:9998   */\n      0x00\n        /* \"#utility.yul\":10032:10034   */\n      0x20\n        /* \"#utility.yul\":10021:10030   */\n      dup3\n        /* \"#utility.yul\":10017:10035   */\n      add\n        /* \"#utility.yul\":10009:10035   */\n      swap1\n      pop\n        /* \"#utility.yul\":10081:10090   */\n      dup2\n        /* \"#utility.yul\":10075:10079   */\n      dup2\n        /* \"#utility.yul\":10071:10091   */\n      sub\n        /* \"#utility.yul\":10067:10068   */\n      0x00\n        /* \"#utility.yul\":10056:10065   */\n      dup4\n        /* \"#utility.yul\":10052:10069   */\n      add\n        /* \"#utility.yul\":10045:10092   */\n      mstore\n        /* \"#utility.yul\":10109:10240   */\n      tag_321\n        /* \"#utility.yul\":10235:10239   */\n      dup2\n        /* \"#utility.yul\":10109:10240   */\n      tag_180\n      jump\t// in\n    tag_321:\n        /* \"#utility.yul\":10101:10240   */\n      swap1\n      pop\n        /* \"#utility.yul\":9828:10247   */\n      swap2\n      swap1\n      pop\n      jump\t// out\n        /* \"#utility.yul\":10253:10423   */\n    tag_181:\n        /* \"#utility.yul\":10393:10415   */\n      0x566f74696e67206973206e6f7420616374697665000000000000000000000000\n        /* \"#utility.yul\":10389:10390   */\n      0x00\n        /* \"#utility.yul\":10381:10387   */\n      dup3\n        /* \"#utility.yul\":10377:10391   */\n      add\n        /* \"#utility.yul\":10370:10416   */\n      mstore\n        /* \"#utility.yul\":10253:10423   */\n      pop\n      jump\t// out\n        /* \"#utility.yul\":10429:10795   */\n    tag_182:\n        /* \"#utility.yul\":10571:10574   */\n      0x00\n        /* \"#utility.yul\":10592:10659   */\n      tag_324\n        /* \"#utility.yul\":10656:10658   */\n      0x14\n        /* \"#utility.yul\":10651:10654   */\n      dup4\n        /* \"#utility.yul\":10592:10659   */\n      tag_169\n      jump\t// in\n    tag_324:\n        /* \"#utility.yul\":10585:10659   */\n      swap2\n      pop\n        /* \"#utility.yul\":10668:10761   */\n      tag_325\n        /* \"#utility.yul\":10757:10760   */\n      dup3\n        /* \"#utility.yul\":10668:10761   */\n      tag_181\n      jump\t// in\n    tag_325:\n        /* \"#utility.yul\":10786:10788   */\n      0x20\n        /* \"#utility.yul\":10781:10784   */\n      dup3\n        /* \"#utility.yul\":10777:10789   */\n      add\n        /* \"#utility.yul\":10770:10789   */\n      swap1\n      pop\n        /* \"#utility.yul\":10429:10795   */\n      swap2\n      swap1\n      pop\n      jump\t// out\n        /* \"#utility.yul\":10801:11220   */\n    tag_74:\n        /* \"#utility.yul\":10967:10971   */\n      0x00\n        /* \"#utility.yul\":11005:11007   */\n      0x20\n        /* \"#utility.yul\":10994:11003   */\n      dup3\n        /* \"#utility.yul\":10990:11008   */\n      add\n        /* \"#utility.yul\":10982:11008   */\n      swap1\n      pop\n        /* \"#utility.yul\":11054:11063   */\n      dup2\n        /* \"#utility.yul\":11048:11052   */\n      dup2\n        /* \"#utility.yul\":11044:11064   */\n      sub\n        /* \"#utility.yul\":11040:11041   */\n      0x00\n        /* \"#utility.yul\":11029:11038   */\n      dup4\n        /* \"#utility.yul\":11025:11042   */\n      add\n        /* \"#utility.yul\":11018:11065   */\n      mstore\n        /* \"#utility.yul\":11082:11213   */\n      tag_327\n        /* \"#utility.yul\":11208:11212   */\n      dup2\n        /* \"#utility.yul\":11082:11213   */\n      tag_182\n      jump\t// in\n    tag_327:\n        /* \"#utility.yul\":11074:11213   */\n      swap1\n      pop\n        /* \"#utility.yul\":10801:11220   */\n      swap2\n      swap1\n      pop\n      jump\t// out\n        /* \"#utility.yul\":11226:11396   */\n    tag_183:\n        /* \"#utility.yul\":11366:11388   */\n      0x496e76616c69642063616e646964617465204944000000000000000000000000\n        /* \"#utility.yul\":11362:11363   */\n      0x00\n        /* \"#utility.yul\":11354:11360   */\n      dup3\n        /* \"#utility.yul\":11350:11364   */\n      add\n        /* \"#utility.yul\":11343:11389   */\n      mstore\n        /* \"#utility.yul\":11226:11396   */\n      pop\n      jump\t// out\n        /* \"#utility.yul\":11402:11768   */\n    tag_184:\n        /* \"#utility.yul\":11544:11547   */\n      0x00\n        /* \"#utility.yul\":11565:11632   */\n      tag_330\n        /* \"#utility.yul\":11629:11631   */\n      0x14\n        /* \"#utility.yul\":11624:11627   */\n      dup4\n        /* \"#utility.yul\":11565:11632   */\n      tag_169\n      jump\t// in\n    tag_330:\n        /* \"#utility.yul\":11558:11632   */\n      swap2\n      pop\n        /* \"#utility.yul\":11641:11734   */\n      tag_331\n        /* \"#utility.yul\":11730:11733   */\n      dup3\n        /* \"#utility.yul\":11641:11734   */\n      tag_183\n      jump\t// in\n    tag_331:\n        /* \"#utility.yul\":11759:11761   */\n      0x20\n        /* \"#utility.yul\":11754:11757   */\n      dup3\n        /* \"#utility.yul\":11750:11762   */\n      add\n        /* \"#utility.yul\":11743:11762   */\n      swap1\n      pop\n        /* \"#utility.yul\":11402:11768   */\n      swap2\n      swap1\n      pop\n      jump\t// out\n        /* \"#utility.yul\":11774:12193   */\n    tag_78:\n        /* \"#utility.yul\":11940:11944   */\n      0x00\n        /* \"#utility.yul\":11978:11980   */\n      0x20\n        /* \"#utility.yul\":11967:11976   */\n      dup3\n        /* \"#utility.yul\":11963:11981   */\n      add\n        /* \"#utility.yul\":11955:11981   */\n      swap1\n      pop\n        /* \"#utility.yul\":12027:12036   */\n      dup2\n        /* \"#utility.yul\":12021:12025   */\n      dup2\n        /* \"#utility.yul\":12017:12037   */\n      sub\n        /* \"#utility.yul\":12013:12014   */\n      0x00\n        /* \"#utility.yul\":12002:12011   */\n      dup4\n        /* \"#utility.yul\":11998:12015   */\n      add\n        /* \"#utility.yul\":11991:12038   */\n      mstore\n        /* \"#utility.yul\":12055:12186   */\n      tag_333\n        /* \"#utility.yul\":12181:12185   */\n      dup2\n        /* \"#utility.yul\":12055:12186   */\n      tag_184\n      jump\t// in\n    tag_333:\n        /* \"#utility.yul\":12047:12186   */\n      swap1\n      pop\n        /* \"#utility.yul\":11774:12193   */\n      swap2\n      swap1\n      pop\n      jump\t// out\n        /* \"#utility.yul\":12199:12371   */\n    tag_185:\n        /* \"#utility.yul\":12339:12363   */\n      0x596f75206861766520616c726561647920766f74656400000000000000000000\n        /* \"#utility.yul\":12335:12336   */\n      0x00\n        /* \"#utility.yul\":12327:12333   */\n      dup3\n        /* \"#utility.yul\":12323:12337   */\n      add\n        /* \"#utility.yul\":12316:12364   */\n      mstore\n        /* \"#utility.yul\":12199:12371   */\n      pop\n      jump\t// out\n        /* \"#utility.yul\":12377:12743   */\n    tag_186:\n        /* \"#utility.yul\":12519:12522   */\n      0x00\n        /* \"#utility.yul\":12540:12607   */\n      tag_336\n        /* \"#utility.yul\":12604:12606   */\n      0x16\n        /* \"#utility.yul\":12599:12602   */\n      dup4\n        /* \"#utility.yul\":12540:12607   */\n      tag_169\n      jump\t// in\n    tag_336:\n        /* \"#utility.yul\":12533:12607   */\n      swap2\n      pop\n        /* \"#utility.yul\":12616:12709   */\n      tag_337\n        /* \"#utility.yul\":12705:12708   */\n      dup3\n        /* \"#utility.yul\":12616:12709   */\n      tag_185\n      jump\t// in\n    tag_337:\n        /* \"#utility.yul\":12734:12736   */\n      0x20\n        /* \"#utility.yul\":12729:12732   */\n      dup3\n        /* \"#utility.yul\":12725:12737   */\n      add\n        /* \"#utility.yul\":12718:12737   */\n      swap1\n      pop\n        /* \"#utility.yul\":12377:12743   */\n      swap2\n      swap1\n      pop\n      jump\t// out\n        /* \"#utility.yul\":12749:13168   */\n    tag_81:\n        /* \"#utility.yul\":12915:12919   */\n      0x00\n        /* \"#utility.yul\":12953:12955   */\n      0x20\n        /* \"#utility.yul\":12942:12951   */\n      dup3\n        /* \"#utility.yul\":12938:12956   */\n      add\n        /* \"#utility.yul\":12930:12956   */\n      swap1\n      pop\n        /* \"#utility.yul\":13002:13011   */\n      dup2\n        /* \"#utility.yul\":12996:13000   */\n      dup2\n        /* \"#utility.yul\":12992:13012   */\n      sub\n        /* \"#utility.yul\":12988:12989   */\n      0x00\n        /* \"#utility.yul\":12977:12986   */\n      dup4\n        /* \"#utility.yul\":12973:12990   */\n      add\n        /* \"#utility.yul\":12966:13013   */\n      mstore\n        /* \"#utility.yul\":13030:13161   */\n      tag_339\n        /* \"#utility.yul\":13156:13160   */\n      dup2\n        /* \"#utility.yul\":13030:13161   */\n      tag_186\n      jump\t// in\n    tag_339:\n        /* \"#utility.yul\":13022:13161   */\n      swap1\n      pop\n        /* \"#utility.yul\":12749:13168   */\n      swap2\n      swap1\n      pop\n      jump\t// out\n        /* \"#utility.yul\":13174:13354   */\n    tag_187:\n        /* \"#utility.yul\":13222:13299   */\n      0x4e487b7100000000000000000000000000000000000000000000000000000000\n        /* \"#utility.yul\":13219:13220   */\n      0x00\n        /* \"#utility.yul\":13212:13300   */\n      mstore\n        /* \"#utility.yul\":13319:13323   */\n      0x11\n        /* \"#utility.yul\":13316:13317   */\n      0x04\n        /* \"#utility.yul\":13309:13324   */\n      mstore\n        /* \"#utility.yul\":13343:13347   */\n      0x24\n        /* \"#utility.yul\":13340:13341   */\n      0x00\n        /* \"#utility.yul\":13333:13348   */\n      revert\n        /* \"#utility.yul\":13360:13593   */\n    tag_83:\n        /* \"#utility.yul\":13399:13402   */\n      0x00\n        /* \"#utility.yul\":13422:13446   */\n      tag_342\n        /* \"#utility.yul\":13440:13445   */\n      dup3\n        /* \"#utility.yul\":13422:13446   */\n      tag_154\n      jump\t// in\n    tag_342:\n        /* \"#utility.yul\":13413:13446   */\n      swap2\n      pop\n        /* \"#utility.yul\":13468:13534   */\n      0xffffffffffffffffffffffffffffffffffffffffffffffffffffffffffffffff\n        /* \"#utility.yul\":13461:13466   */\n      dup3\n        /* \"#utility.yul\":13458:13535   */\n      sub\n        /* \"#utility.yul\":13455:13558   */\n      tag_343\n      jumpi\n        /* \"#utility.yul\":13538:13556   */\n      tag_344\n      tag_187\n      jump\t// in\n    tag_344:\n        /* \"#utility.yul\":13455:13558   */\n    tag_343:\n        /* \"#utility.yul\":13585:13586   */\n      0x01\n        /* \"#utility.yul\":13578:13583   */\n      dup3\n        /* \"#utility.yul\":13574:13587   */\n      add\n        /* \"#utility.yul\":13567:13587   */\n      swap1\n      pop\n        /* \"#utility.yul\":13360:13593   */\n      swap2\n      swap1\n      pop\n      jump\t// out\n        /* \"#utility.yul\":13599:13820   */\n    tag_188:\n        /* \"#utility.yul\":13739:13773   */\n      0x4f6e6c79206f776e65722063616e20706572666f726d20746869732061637469\n        /* \"#utility.yul\":13735:13736   */\n      0x00\n        /* \"#utility.yul\":13727:13733   */\n      dup3\n        /* \"#utility.yul\":13723:13737   */\n      add\n        /* \"#utility.yul\":13716:13774   */\n      mstore\n        /* \"#utility.yul\":13808:13812   */\n      0x6f6e000000000000000000000000000000000000000000000000000000000000\n        /* \"#utility.yul\":13803:13805   */\n      0x20\n        /* \"#utility.yul\":13795:13801   */\n      dup3\n        /* \"#utility.yul\":13791:13806   */\n      add\n        /* \"#utility.yul\":13784:13813   */\n      mstore\n        /* \"#utility.yul\":13599:13820   */\n      pop\n      jump\t// out\n        /* \"#utility.yul\":13826:14192   */\n    tag_189:\n        /* \"#utility.yul\":13968:13971   */\n      0x00\n        /* \"#utility.yul\":13989:14056   */\n      tag_347\n        /* \"#utility.yul\":14053:14055   */\n      0x22\n        /* \"#utility.yul\":14048:14051   */\n      dup4\n        /* \"#utility.yul\":13989:14056   */\n      tag_169\n      jump\t// in\n    tag_347:\n        /* \"#utility.yul\":13982:14056   */\n      swap2\n      pop\n        /* \"#utility.yul\":14065:14158   */\n      tag_348\n        /* \"#utility.yul\":14154:14157   */\n      dup3\n        /* \"#utility.yul\":14065:14158   */\n      tag_188\n      jump\t// in\n    tag_348:\n        /* \"#utility.yul\":14183:14185   */\n      0x40\n        /* \"#utility.yul\":14178:14181   */\n      dup3\n        /* \"#utility.yul\":14174:14186   */\n      add\n        /* \"#utility.yul\":14167:14186   */\n      swap1\n      pop\n        /* \"#utility.yul\":13826:14192   */\n      swap2\n      swap1\n      pop\n      jump\t// out\n        /* \"#utility.yul\":14198:14617   */\n    tag_88:\n        /* \"#utility.yul\":14364:14368   */\n      0x00\n        /* \"#utility.yul\":14402:14404   */\n      0x20\n        /* \"#utility.yul\":14391:14400   */\n      dup3\n        /* \"#utility.yul\":14387:14405   */\n      add\n        /* \"#utility.yul\":14379:14405   */\n      swap1\n      pop\n        /* \"#utility.yul\":14451:14460   */\n      dup2\n        /* \"#utility.yul\":14445:14449   */\n      dup2\n        /* \"#utility.yul\":14441:14461   */\n      sub\n        /* \"#utility.yul\":14437:14438   */\n      0x00\n        /* \"#utility.yul\":14426:14435   */\n      dup4\n        /* \"#utility.yul\":14422:14439   */\n      add\n        /* \"#utility.yul\":14415:14462   */\n      mstore\n        /* \"#utility.yul\":14479:14610   */\n      tag_350\n        /* \"#utility.yul\":14605:14609   */\n      dup2\n        /* \"#utility.yul\":14479:14610   */\n      tag_189\n      jump\t// in\n    tag_350:\n        /* \"#utility.yul\":14471:14610   */\n      swap1\n      pop\n        /* \"#utility.yul\":14198:14617   */\n      swap2\n      swap1\n      pop\n      jump\t// out\n        /* \"#utility.yul\":14623:14803   */\n    tag_190:\n        /* \"#utility.yul\":14671:14748   */\n      0x4e487b7100000000000000000000000000000000000000000000000000000000\n        /* \"#utility.yul\":14668:14669   */\n      0x00\n        /* \"#utility.yul\":14661:14749   */\n      mstore\n        /* \"#utility.yul\":14768:14772   */\n      0x22\n        /* \"#utility.yul\":14765:14766   */\n      0x04\n        /* \"#utility.yul\":14758:14773   */\n      mstore\n        /* \"#utility.yul\":14792:14796   */\n      0x24\n        /* \"#utility.yul\":14789:14790   */\n      0x00\n        /* \"#utility.yul\":14782:14797   */\n      revert\n        /* \"#utility.yul\":14809:15129   */\n    tag_99:\n        /* \"#utility.yul\":14853:14859   */\n      0x00\n        /* \"#utility.yul\":14890:14891   */\n      0x02\n        /* \"#utility.yul\":14884:14888   */\n      dup3\n        /* \"#utility.yul\":14880:14892   */\n      div\n        /* \"#utility.yul\":14870:14892   */\n      swap1\n      pop\n        /* \"#utility.yul\":14937:14938   */\n      0x01\n        /* \"#utility.yul\":14931:14935   */\n      dup3\n        /* \"#utility.yul\":14927:14939   */\n      and\n        /* \"#utility.yul\":14958:14976   */\n      dup1\n        /* \"#utility.yul\":14948:15029   */\n      tag_353\n      jumpi\n        /* \"#utility.yul\":15014:15018   */\n      0x7f\n        /* \"#utility.yul\":15006:15012   */\n      dup3\n        /* \"#utility.yul\":15002:15019   */\n      and\n        /* \"#utility.yul\":14992:15019   */\n      swap2\n      pop\n        /* \"#utility.yul\":14948:15029   */\n    tag_353:\n        /* \"#utility.yul\":15076:15078   */\n      0x20\n        /* \"#utility.yul\":15068:15074   */\n      dup3\n        /* \"#utility.yul\":15065:15079   */\n      lt\n        /* \"#utility.yul\":15045:15063   */\n      dup2\n        /* \"#utility.yul\":15042:15080   */\n      sub\n        /* \"#utility.yul\":15039:15123   */\n      tag_354\n      jumpi\n        /* \"#utility.yul\":15095:15113   */\n      tag_355\n      tag_190\n      jump\t// in\n    tag_355:\n        /* \"#utility.yul\":15039:15123   */\n    tag_354:\n        /* \"#utility.yul\":14860:15129   */\n      pop\n        /* \"#utility.yul\":14809:15129   */\n      swap2\n      swap1\n      pop\n      jump\t// out\n        /* \"#utility.yul\":15135:15276   */\n    tag_191:\n        /* \"#utility.yul\":15184:15188   */\n      0x00\n        /* \"#utility.yul\":15207:15210   */\n      dup2\n        /* \"#utility.yul\":15199:15210   */\n      swap1\n      pop\n        /* \"#utility.yul\":15230:15233   */\n      dup2\n        /* \"#utility.yul\":15227:15228   */\n      0x00\n        /* \"#utility.yul\":15220:15234   */\n      mstore\n        /* \"#utility.yul\":15264:15268   */\n      0x20\n        /* \"#utility.yul\":15261:15262   */\n      0x00\n        /* \"#utility.yul\":15251:15269   */\n      keccak256\n        /* \"#utility.yul\":15243:15269   */\n      swap1\n      pop\n        /* \"#utility.yul\":15135:15276   */\n      swap2\n      swap1\n      pop\n      jump\t// out\n        /* \"#utility.yul\":15282:15375   */\n    tag_192:\n        /* \"#utility.yul\":15319:15325   */\n      0x00\n        /* \"#utility.yul\":15366:15368   */\n      0x20\n        /* \"#utility.yul\":15361:15363   */\n      0x1f\n        /* \"#utility.yul\":15354:15359   */\n      dup4\n        /* \"#utility.yul\":15350:15364   */\n      add\n        /* \"#utility.yul\":15346:15369   */\n      div\n        /* \"#utility.yul\":15336:15369   */\n      swap1\n      pop\n        /* \"#utility.yul\":15282:15375   */\n      swap2\n      swap1\n      pop\n      jump\t// out\n        /* \"#utility.yul\":15381:15488   */\n    tag_193:\n        /* \"#utility.yul\":15425:15433   */\n      0x00\n        /* \"#utility.yul\":15475:15480   */\n      dup3\n        /* \"#utility.yul\":15469:15473   */\n      dup3\n        /* \"#utility.yul\":15465:15481   */\n      shl\n        /* \"#utility.yul\":15444:15481   */\n      swap1\n      pop\n        /* \"#utility.yul\":15381:15488   */\n      swap3\n      swap2\n      pop\n      pop\n      jump\t// out\n        /* \"#utility.yul\":15494:15887   */\n    tag_194:\n        /* \"#utility.yul\":15563:15569   */\n      0x00\n        /* \"#utility.yul\":15613:15614   */\n      0x08\n        /* \"#utility.yul\":15601:15611   */\n      dup4\n        /* \"#utility.yul\":15597:15615   */\n      mul\n        /* \"#utility.yul\":15636:15733   */\n      tag_360\n        /* \"#utility.yul\":15666:15732   */\n      0xffffffffffffffffffffffffffffffffffffffffffffffffffffffffffffffff\n        /* \"#utility.yul\":15655:15664   */\n      dup3\n        /* \"#utility.yul\":15636:15733   */\n      tag_193\n      jump\t// in\n    tag_360:\n        /* \"#utility.yul\":15754:15793   */\n      tag_361\n        /* \"#utility.yul\":15784:15792   */\n      dup7\n        /* \"#utility.yul\":15773:15782   */\n      dup4\n        /* \"#utility.yul\":15754:15793   */\n      tag_193\n      jump\t// in\n    tag_361:\n        /* \"#utility.yul\":15742:15793   */\n      swap6\n      pop\n        /* \"#utility.yul\":15826:15830   */\n      dup1\n        /* \"#utility.yul\":15822:15831   */\n      not\n        /* \"#utility.yul\":15815:15820   */\n      dup5\n        /* \"#utility.yul\":15811:15832   */\n      and\n        /* \"#utility.yul\":15802:15832   */\n      swap4\n      pop\n        /* \"#utility.yul\":15875:15879   */\n      dup1\n        /* \"#utility.yul\":15865:15873   */\n      dup7\n        /* \"#utility.yul\":15861:15880   */\n      and\n        /* \"#utility.yul\":15854:15859   */\n      dup5\n        /* \"#utility.yul\":15851:15881   */\n      or\n        /* \"#utility.yul\":15841:15881   */\n      swap3\n      pop\n        /* \"#utility.yul\":15570:15887   */\n      pop\n      pop\n        /* \"#utility.yul\":15494:15887   */\n      swap4\n      swap3\n      pop\n      pop\n      pop\n      jump\t// out\n        /* \"#utility.yul\":15893:15953   */\n    tag_195:\n        /* \"#utility.yul\":15921:15924   */\n      0x00\n        /* \"#utility.yul\":15942:15947   */\n      dup2\n        /* \"#utility.yul\":15935:15947   */\n      swap1\n      pop\n        /* \"#utility.yul\":15893:15953   */\n      swap2\n      swap1\n      pop\n      jump\t// out\n        /* \"#utility.yul\":15959:16101   */\n    tag_196:\n        /* \"#utility.yul\":16009:16018   */\n      0x00\n        /* \"#utility.yul\":16042:16095   */\n      tag_364\n        /* \"#utility.yul\":16060:16094   */\n      tag_365\n        /* \"#utility.yul\":16069:16093   */\n      tag_366\n        /* \"#utility.yul\":16087:16092   */\n      dup5\n        /* \"#utility.yul\":16069:16093   */\n      tag_154\n      jump\t// in\n    tag_366:\n        /* \"#utility.yul\":16060:16094   */\n      tag_195\n      jump\t// in\n    tag_365:\n        /* \"#utility.yul\":16042:16095   */\n      tag_154\n      jump\t// in\n    tag_364:\n        /* \"#utility.yul\":16029:16095   */\n      swap1\n      pop\n        /* \"#utility.yul\":15959:16101   */\n      swap2\n      swap1\n      pop\n      jump\t// out\n        /* \"#utility.yul\":16107:16182   */\n    tag_197:\n        /* \"#utility.yul\":16150:16153   */\n      0x00\n        /* \"#utility.yul\":16171:16176   */\n      dup2\n        /* \"#utility.yul\":16164:16176   */\n      swap1\n      pop\n        /* \"#utility.yul\":16107:16182   */\n      swap2\n      swap1\n      pop\n      jump\t// out\n        /* \"#utility.yul\":16188:16457   */\n    tag_198:\n        /* \"#utility.yul\":16298:16337   */\n      tag_369\n        /* \"#utility.yul\":16329:16336   */\n      dup4\n        /* \"#utility.yul\":16298:16337   */\n      tag_196\n      jump\t// in\n    tag_369:\n        /* \"#utility.yul\":16359:16450   */\n      tag_370\n        /* \"#utility.yul\":16408:16449   */\n      tag_371\n        /* \"#utility.yul\":16432:16448   */\n      dup3\n        /* \"#utility.yul\":16408:16449   */\n      tag_197\n      jump\t// in\n    tag_371:\n        /* \"#utility.yul\":16400:16406   */\n      dup5\n        /* \"#utility.yul\":16393:16397   */\n      dup5\n        /* \"#utility.yul\":16387:16398   */\n      sload\n        /* \"#utility.yul\":16359:16450   */\n      tag_194\n      jump\t// in\n    tag_370:\n        /* \"#utility.yul\":16353:16357   */\n      dup3\n        /* \"#utility.yul\":16346:16451   */\n      sstore\n        /* \"#utility.yul\":16264:16457   */\n      pop\n        /* \"#utility.yul\":16188:16457   */\n      pop\n      pop\n      pop\n      jump\t// out\n        /* \"#utility.yul\":16463:16536   */\n    tag_199:\n        /* \"#utility.yul\":16508:16511   */\n      0x00\n        /* \"#utility.yul\":16463:16536   */\n      swap1\n      jump\t// out\n        /* \"#utility.yul\":16542:16731   */\n    tag_200:\n        /* \"#utility.yul\":16619:16651   */\n      tag_374\n      tag_199\n      jump\t// in\n    tag_374:\n        /* \"#utility.yul\":16660:16725   */\n      tag_375\n        /* \"#utility.yul\":16718:16724   */\n      dup2\n        /* \"#utility.yul\":16710:16716   */\n      dup5\n        /* \"#utility.yul\":16704:16708   */\n      dup5\n        /* \"#utility.yul\":16660:16725   */\n      tag_198\n      jump\t// in\n    tag_375:\n        /* \"#utility.yul\":16595:16731   */\n      pop\n        /* \"#utility.yul\":16542:16731   */\n      pop\n      pop\n      jump\t// out\n        /* \"#utility.yul\":16737:16923   */\n    tag_201:\n        /* \"#utility.yul\":16797:16917   */\n    tag_377:\n        /* \"#utility.yul\":16814:16817   */\n      dup2\n        /* \"#utility.yul\":16807:16812   */\n      dup2\n        /* \"#utility.yul\":16804:16818   */\n      lt\n        /* \"#utility.yul\":16797:16917   */\n      iszero\n      tag_379\n      jumpi\n        /* \"#utility.yul\":16868:16907   */\n      tag_380\n        /* \"#utility.yul\":16905:16906   */\n      0x00\n        /* \"#utility.yul\":16898:16903   */\n      dup3\n        /* \"#utility.yul\":16868:16907   */\n      tag_200\n      jump\t// in\n    tag_380:\n        /* \"#utility.yul\":16841:16842   */\n      0x01\n        /* \"#utility.yul\":16834:16839   */\n      dup2\n        /* \"#utility.yul\":16830:16843   */\n      add\n        /* \"#utility.yul\":16821:16843   */\n      swap1\n      pop\n        /* \"#utility.yul\":16797:16917   */\n      jump(tag_377)\n    tag_379:\n        /* \"#utility.yul\":16737:16923   */\n      pop\n      pop\n      jump\t// out\n        /* \"#utility.yul\":16929:17472   */\n    tag_202:\n        /* \"#utility.yul\":17030:17032   */\n      0x1f\n        /* \"#utility.yul\":17025:17028   */\n      dup3\n        /* \"#utility.yul\":17022:17033   */\n      gt\n        /* \"#utility.yul\":17019:17465   */\n      iszero\n      tag_382\n      jumpi\n        /* \"#utility.yul\":17064:17102   */\n      tag_383\n        /* \"#utility.yul\":17096:17101   */\n      dup2\n        /* \"#utility.yul\":17064:17102   */\n      tag_191\n      jump\t// in\n    tag_383:\n        /* \"#utility.yul\":17148:17177   */\n      tag_384\n        /* \"#utility.yul\":17166:17176   */\n      dup5\n        /* \"#utility.yul\":17148:17177   */\n      tag_192\n      jump\t// in\n    tag_384:\n        /* \"#utility.yul\":17138:17146   */\n      dup2\n        /* \"#utility.yul\":17134:17178   */\n      add\n        /* \"#utility.yul\":17331:17333   */\n      0x20\n        /* \"#utility.yul\":17319:17329   */\n      dup6\n        /* \"#utility.yul\":17316:17334   */\n      lt\n        /* \"#utility.yul\":17313:17362   */\n      iszero\n      tag_385\n      jumpi\n        /* \"#utility.yul\":17352:17360   */\n      dup2\n        /* \"#utility.yul\":17337:17360   */\n      swap1\n      pop\n        /* \"#utility.yul\":17313:17362   */\n    tag_385:\n        /* \"#utility.yul\":17375:17455   */\n      tag_386\n        /* \"#utility.yul\":17431:17453   */\n      tag_387\n        /* \"#utility.yul\":17449:17452   */\n      dup6\n        /* \"#utility.yul\":17431:17453   */\n      tag_192\n      jump\t// in\n    tag_387:\n        /* \"#utility.yul\":17421:17429   */\n      dup4\n        /* \"#utility.yul\":17417:17454   */\n      add\n        /* \"#utility.yul\":17404:17415   */\n      dup3\n        /* \"#utility.yul\":17375:17455   */\n      tag_201\n      jump\t// in\n    tag_386:\n        /* \"#utility.yul\":17034:17465   */\n      pop\n      pop\n        /* \"#utility.yul\":17019:17465   */\n    tag_382:\n        /* \"#utility.yul\":16929:17472   */\n      pop\n      pop\n      pop\n      jump\t// out\n        /* \"#utility.yul\":17478:17595   */\n    tag_203:\n        /* \"#utility.yul\":17532:17540   */\n      0x00\n        /* \"#utility.yul\":17582:17587   */\n      dup3\n        /* \"#utility.yul\":17576:17580   */\n      dup3\n        /* \"#utility.yul\":17572:17588   */\n      shr\n        /* \"#utility.yul\":17551:17588   */\n      swap1\n      pop\n        /* \"#utility.yul\":17478:17595   */\n      swap3\n      swap2\n      pop\n      pop\n      jump\t// out\n        /* \"#utility.yul\":17601:17770   */\n    tag_204:\n        /* \"#utility.yul\":17645:17651   */\n      0x00\n        /* \"#utility.yul\":17678:17729   */\n      tag_390\n        /* \"#utility.yul\":17726:17727   */\n      0x00\n        /* \"#utility.yul\":17722:17728   */\n      not\n        /* \"#utility.yul\":17714:17719   */\n      dup5\n        /* \"#utility.yul\":17711:17712   */\n      0x08\n        /* \"#utility.yul\":17707:17720   */\n      mul\n        /* \"#utility.yul\":17678:17729   */\n      tag_203\n      jump\t// in\n    tag_390:\n        /* \"#utility.yul\":17674:17730   */\n      not\n        /* \"#utility.yul\":17759:17763   */\n      dup1\n        /* \"#utility.yul\":17753:17757   */\n      dup4\n        /* \"#utility.yul\":17749:17764   */\n      and\n        /* \"#utility.yul\":17739:17764   */\n      swap2\n      pop\n        /* \"#utility.yul\":17652:17770   */\n      pop\n        /* \"#utility.yul\":17601:17770   */\n      swap3\n      swap2\n      pop\n      pop\n      jump\t// out\n        /* \"#utility.yul\":17775:18070   */\n    tag_205:\n        /* \"#utility.yul\":17851:17855   */\n      0x00\n        /* \"#utility.yul\":17997:18026   */\n      tag_392\n        /* \"#utility.yul\":18022:18025   */\n      dup4\n        /* \"#utility.yul\":18016:18020   */\n      dup4\n        /* \"#utility.yul\":17997:18026   */\n      tag_204\n      jump\t// in\n    tag_392:\n        /* \"#utility.yul\":17989:18026   */\n      swap2\n      pop\n        /* \"#utility.yul\":18059:18062   */\n      dup3\n        /* \"#utility.yul\":18056:18057   */\n      0x02\n        /* \"#utility.yul\":18052:18063   */\n      mul\n        /* \"#utility.yul\":18046:18050   */\n      dup3\n        /* \"#utility.yul\":18043:18064   */\n      or\n        /* \"#utility.yul\":18035:18064   */\n      swap1\n      pop\n        /* \"#utility.yul\":17775:18070   */\n      swap3\n      swap2\n      pop\n      pop\n      jump\t// out\n        /* \"#utility.yul\":18075:19470   */\n    tag_92:\n        /* \"#utility.yul\":18192:18229   */\n      tag_394\n        /* \"#utility.yul\":18225:18228   */\n      dup3\n        /* \"#utility.yul\":18192:18229   */\n      tag_168\n      jump\t// in\n    tag_394:\n        /* \"#utility.yul\":18294:18312   */\n      0xffffffffffffffff\n        /* \"#utility.yul\":18286:18292   */\n      dup2\n        /* \"#utility.yul\":18283:18313   */\n      gt\n        /* \"#utility.yul\":18280:18336   */\n      iszero\n      tag_395\n      jumpi\n        /* \"#utility.yul\":18316:18334   */\n      tag_396\n      tag_161\n      jump\t// in\n    tag_396:\n        /* \"#utility.yul\":18280:18336   */\n    tag_395:\n        /* \"#utility.yul\":18360:18398   */\n      tag_397\n        /* \"#utility.yul\":18392:18396   */\n      dup3\n        /* \"#utility.yul\":18386:18397   */\n      sload\n        /* \"#utility.yul\":18360:18398   */\n      tag_99\n      jump\t// in\n    tag_397:\n        /* \"#utility.yul\":18445:18512   */\n      tag_398\n        /* \"#utility.yul\":18505:18511   */\n      dup3\n        /* \"#utility.yul\":18497:18503   */\n      dup3\n        /* \"#utility.yul\":18491:18495   */\n      dup6\n        /* \"#utility.yul\":18445:18512   */\n      tag_202\n      jump\t// in\n    tag_398:\n        /* \"#utility.yul\":18539:18540   */\n      0x00\n        /* \"#utility.yul\":18563:18567   */\n      0x20\n        /* \"#utility.yul\":18550:18567   */\n      swap1\n      pop\n        /* \"#utility.yul\":18595:18597   */\n      0x1f\n        /* \"#utility.yul\":18587:18593   */\n      dup4\n        /* \"#utility.yul\":18584:18598   */\n      gt\n        /* \"#utility.yul\":18612:18613   */\n      0x01\n        /* \"#utility.yul\":18607:19225   */\n      dup2\n      eq\n      tag_400\n      jumpi\n        /* \"#utility.yul\":19269:19270   */\n      0x00\n        /* \"#utility.yul\":19286:19292   */\n      dup5\n        /* \"#utility.yul\":19283:19360   */\n      iszero\n      tag_401\n      jumpi\n        /* \"#utility.yul\":19335:19344   */\n      dup3\n        /* \"#utility.yul\":19330:19333   */\n      dup8\n        /* \"#utility.yul\":19326:19345   */\n      add\n        /* \"#utility.yul\":19320:19346   */\n      mload\n        /* \"#utility.yul\":19311:19346   */\n      swap1\n      pop\n        /* \"#utility.yul\":19283:19360   */\n    tag_401:\n        /* \"#utility.yul\":19386:19453   */\n      tag_402\n        /* \"#utility.yul\":19446:19452   */\n      dup6\n        /* \"#utility.yul\":19439:19444   */\n      dup3\n        /* \"#utility.yul\":19386:19453   */\n      tag_205\n      jump\t// in\n    tag_402:\n        /* \"#utility.yul\":19380:19384   */\n      dup7\n        /* \"#utility.yul\":19373:19454   */\n      sstore\n        /* \"#utility.yul\":19242:19464   */\n      pop\n        /* \"#utility.yul\":18577:19464   */\n      jump(tag_399)\n        /* \"#utility.yul\":18607:19225   */\n    tag_400:\n        /* \"#utility.yul\":18659:18663   */\n      0x1f\n        /* \"#utility.yul\":18655:18664   */\n      not\n        /* \"#utility.yul\":18647:18653   */\n      dup5\n        /* \"#utility.yul\":18643:18665   */\n      and\n        /* \"#utility.yul\":18693:18730   */\n      tag_403\n        /* \"#utility.yul\":18725:18729   */\n      dup7\n        /* \"#utility.yul\":18693:18730   */\n      tag_191\n      jump\t// in\n    tag_403:\n        /* \"#utility.yul\":18752:18753   */\n      0x00\n        /* \"#utility.yul\":18766:18974   */\n    tag_404:\n        /* \"#utility.yul\":18780:18787   */\n      dup3\n        /* \"#utility.yul\":18777:18778   */\n      dup2\n        /* \"#utility.yul\":18774:18788   */\n      lt\n        /* \"#utility.yul\":18766:18974   */\n      iszero\n      tag_406\n      jumpi\n        /* \"#utility.yul\":18859:18868   */\n      dup5\n        /* \"#utility.yul\":18854:18857   */\n      dup10\n        /* \"#utility.yul\":18850:18869   */\n      add\n        /* \"#utility.yul\":18844:18870   */\n      mload\n        /* \"#utility.yul\":18836:18842   */\n      dup3\n        /* \"#utility.yul\":18829:18871   */\n      sstore\n        /* \"#utility.yul\":18910:18911   */\n      0x01\n        /* \"#utility.yul\":18902:18908   */\n      dup3\n        /* \"#utility.yul\":18898:18912   */\n      add\n        /* \"#utility.yul\":18888:18912   */\n      swap2\n      pop\n        /* \"#utility.yul\":18957:18959   */\n      0x20\n        /* \"#utility.yul\":18946:18955   */\n      dup6\n        /* \"#utility.yul\":18942:18960   */\n      add\n        /* \"#utility.yul\":18929:18960   */\n      swap5\n      pop\n        /* \"#utility.yul\":18803:18807   */\n      0x20\n        /* \"#utility.yul\":18800:18801   */\n      dup2\n        /* \"#utility.yul\":18796:18808   */\n      add\n        /* \"#utility.yul\":18791:18808   */\n      swap1\n      pop\n        /* \"#utility.yul\":18766:18974   */\n      jump(tag_404)\n    tag_406:\n        /* \"#utility.yul\":19002:19008   */\n      dup7\n        /* \"#utility.yul\":18993:19000   */\n      dup4\n        /* \"#utility.yul\":18990:19009   */\n      lt\n        /* \"#utility.yul\":18987:19166   */\n      iszero\n      tag_407\n      jumpi\n        /* \"#utility.yul\":19060:19069   */\n      dup5\n        /* \"#utility.yul\":19055:19058   */\n      dup10\n        /* \"#utility.yul\":19051:19070   */\n      add\n        /* \"#utility.yul\":19045:19071   */\n      mload\n        /* \"#utility.yul\":19103:19151   */\n      tag_408\n        /* \"#utility.yul\":19145:19149   */\n      0x1f\n        /* \"#utility.yul\":19137:19143   */\n      dup10\n        /* \"#utility.yul\":19133:19150   */\n      and\n        /* \"#utility.yul\":19122:19131   */\n      dup3\n        /* \"#utility.yul\":19103:19151   */\n      tag_204\n      jump\t// in\n    tag_408:\n        /* \"#utility.yul\":19095:19101   */\n      dup4\n        /* \"#utility.yul\":19088:19152   */\n      sstore\n        /* \"#utility.yul\":19010:19166   */\n      pop\n        /* \"#utility.yul\":18987:19166   */\n    tag_407:\n        /* \"#utility.yul\":19212:19213   */\n      0x01\n        /* \"#utility.yul\":19208:19209   */\n      0x02\n        /* \"#utility.yul\":19200:19206   */\n      dup9\n        /* \"#utility.yul\":19196:19210   */\n      mul\n        /* \"#utility.yul\":19192:19214   */\n      add\n        /* \"#utility.yul\":19186:19190   */\n      dup9\n        /* \"#utility.yul\":19179:19215   */\n      sstore\n        /* \"#utility.yul\":18614:19225   */\n      pop\n      pop\n      pop\n        /* \"#utility.yul\":18577:19464   */\n    tag_399:\n      pop\n        /* \"#utility.yul\":18167:19470   */\n      pop\n      pop\n      pop\n        /* \"#utility.yul\":18075:19470   */\n      pop\n      pop\n      jump\t// out\n        /* \"#utility.yul\":19476:19667   */\n    tag_117:\n        /* \"#utility.yul\":19516:19519   */\n      0x00\n        /* \"#utility.yul\":19535:19555   */\n      tag_410\n        /* \"#utility.yul\":19553:19554   */\n      dup3\n        /* \"#utility.yul\":19535:19555   */\n      tag_154\n      jump\t// in\n    tag_410:\n        /* \"#utility.yul\":19530:19555   */\n      swap2\n      pop\n        /* \"#utility.yul\":19569:19589   */\n      tag_411\n        /* \"#utility.yul\":19587:19588   */\n      dup4\n        /* \"#utility.yul\":19569:19589   */\n      tag_154\n      jump\t// in\n    tag_411:\n        /* \"#utility.yul\":19564:19589   */\n      swap3\n      pop\n        /* \"#utility.yul\":19612:19613   */\n      dup3\n        /* \"#utility.yul\":19609:19610   */\n      dup3\n        /* \"#utility.yul\":19605:19614   */\n      add\n        /* \"#utility.yul\":19598:19614   */\n      swap1\n      pop\n        /* \"#utility.yul\":19633:19636   */\n      dup1\n        /* \"#utility.yul\":19630:19631   */\n      dup3\n        /* \"#utility.yul\":19627:19637   */\n      gt\n        /* \"#utility.yul\":19624:19660   */\n      iszero\n      tag_412\n      jumpi\n        /* \"#utility.yul\":19640:19658   */\n      tag_413\n      tag_187\n      jump\t// in\n    tag_413:\n        /* \"#utility.yul\":19624:19660   */\n    tag_412:\n        /* \"#utility.yul\":19476:19667   */\n      swap3\n      swap2\n      pop\n      pop\n      jump\t// out\n        /* \"#utility.yul\":19673:19840   */\n    tag_206:\n        /* \"#utility.yul\":19813:19832   */\n      0x4e6f20766f746573206361737420796574000000000000000000000000000000\n        /* \"#utility.yul\":19809:19810   */\n      0x00\n        /* \"#utility.yul\":19801:19807   */\n      dup3\n        /* \"#utility.yul\":19797:19811   */\n      add\n        /* \"#utility.yul\":19790:19833   */\n      mstore\n        /* \"#utility.yul\":19673:19840   */\n      pop\n      jump\t// out\n        /* \"#utility.yul\":19846:20212   */\n    tag_207:\n        /* \"#utility.yul\":19988:19991   */\n      0x00\n        /* \"#utility.yul\":20009:20076   */\n      tag_416\n        /* \"#utility.yul\":20073:20075   */\n      0x11\n        /* \"#utility.yul\":20068:20071   */\n      dup4\n        /* \"#utility.yul\":20009:20076   */\n      tag_169\n      jump\t// in\n    tag_416:\n        /* \"#utility.yul\":20002:20076   */\n      swap2\n      pop\n        /* \"#utility.yul\":20085:20178   */\n      tag_417\n        /* \"#utility.yul\":20174:20177   */\n      dup3\n        /* \"#utility.yul\":20085:20178   */\n      tag_206\n      jump\t// in\n    tag_417:\n        /* \"#utility.yul\":20203:20205   */\n      0x20\n        /* \"#utility.yul\":20198:20201   */\n      dup3\n        /* \"#utility.yul\":20194:20206   */\n      add\n        /* \"#utility.yul\":20187:20206   */\n      swap1\n      pop\n        /* \"#utility.yul\":19846:20212   */\n      swap2\n      swap1\n      pop\n      jump\t// out\n        /* \"#utility.yul\":20218:20637   */\n    tag_122:\n        /* \"#utility.yul\":20384:20388   */\n      0x00\n        /* \"#utility.yul\":20422:20424   */\n      0x20\n        /* \"#utility.yul\":20411:20420   */\n      dup3\n        /* \"#utility.yul\":20407:20425   */\n      add\n        /* \"#utility.yul\":20399:20425   */\n      swap1\n      pop\n        /* \"#utility.yul\":20471:20480   */\n      dup2\n        /* \"#utility.yul\":20465:20469   */\n      dup2\n        /* \"#utility.yul\":20461:20481   */\n      sub\n        /* \"#utility.yul\":20457:20458   */\n      0x00\n        /* \"#utility.yul\":20446:20455   */\n      dup4\n        /* \"#utility.yul\":20442:20459   */\n      add\n        /* \"#utility.yul\":20435:20482   */\n      mstore\n        /* \"#utility.yul\":20499:20630   */\n      tag_419\n        /* \"#utility.yul\":20625:20629   */\n      dup2\n        /* \"#utility.yul\":20499:20630   */\n      tag_207\n      jump\t// in\n    tag_419:\n        /* \"#utility.yul\":20491:20630   */\n      swap1\n      pop\n        /* \"#utility.yul\":20218:20637   */\n      swap2\n      swap1\n      pop\n      jump\t// out\n        /* \"#utility.yul\":20643:21053   */\n    tag_125:\n        /* \"#utility.yul\":20683:20690   */\n      0x00\n        /* \"#utility.yul\":20706:20726   */\n      tag_421\n        /* \"#utility.yul\":20724:20725   */\n      dup3\n        /* \"#utility.yul\":20706:20726   */\n      tag_154\n      jump\t// in\n    tag_421:\n        /* \"#utility.yul\":20701:20726   */\n      swap2\n      pop\n        /* \"#utility.yul\":20740:20760   */\n      tag_422\n        /* \"#utility.yul\":20758:20759   */\n      dup4\n        /* \"#utility.yul\":20740:20760   */\n      tag_154\n      jump\t// in\n    tag_422:\n        /* \"#utility.yul\":20735:20760   */\n      swap3\n      pop\n        /* \"#utility.yul\":20795:20796   */\n      dup3\n        /* \"#utility.yul\":20792:20793   */\n      dup3\n        /* \"#utility.yul\":20788:20797   */\n      mul\n        /* \"#utility.yul\":20817:20847   */\n      tag_423\n        /* \"#utility.yul\":20835:20846   */\n      dup2\n        /* \"#utility.yul\":20817:20847   */\n      tag_154\n      jump\t// in\n    tag_423:\n        /* \"#utility.yul\":20806:20847   */\n      swap2\n      pop\n        /* \"#utility.yul\":20996:20997   */\n      dup3\n        /* \"#utility.yul\":20987:20994   */\n      dup3\n        /* \"#utility.yul\":20983:20998   */\n      div\n        /* \"#utility.yul\":20980:20981   */\n      dup5\n        /* \"#utility.yul\":20977:20999   */\n      eq\n        /* \"#utility.yul\":20957:20958   */\n      dup4\n        /* \"#utility.yul\":20950:20959   */\n      iszero\n        /* \"#utility.yul\":20930:21013   */\n      or\n        /* \"#utility.yul\":20907:21046   */\n      tag_424\n      jumpi\n        /* \"#utility.yul\":21026:21044   */\n      tag_425\n      tag_187\n      jump\t// in\n    tag_425:\n        /* \"#utility.yul\":20907:21046   */\n    tag_424:\n        /* \"#utility.yul\":20691:21053   */\n      pop\n        /* \"#utility.yul\":20643:21053   */\n      swap3\n      swap2\n      pop\n      pop\n      jump\t// out\n        /* \"#utility.yul\":21059:21239   */\n    tag_208:\n        /* \"#utility.yul\":21107:21184   */\n      0x4e487b7100000000000000000000000000000000000000000000000000000000\n        /* \"#utility.yul\":21104:21105   */\n      0x00\n        /* \"#utility.yul\":21097:21185   */\n      mstore\n        /* \"#utility.yul\":21204:21208   */\n      0x12\n        /* \"#utility.yul\":21201:21202   */\n      0x04\n        /* \"#utility.yul\":21194:21209   */\n      mstore\n        /* \"#utility.yul\":21228:21232   */\n      0x24\n        /* \"#utility.yul\":21225:21226   */\n      0x00\n        /* \"#utility.yul\":21218:21233   */\n      revert\n        /* \"#utility.yul\":21245:21430   */\n    tag_127:\n        /* \"#utility.yul\":21285:21286   */\n      0x00\n        /* \"#utility.yul\":21302:21322   */\n      tag_428\n        /* \"#utility.yul\":21320:21321   */\n      dup3\n        /* \"#utility.yul\":21302:21322   */\n      tag_154\n      jump\t// in\n    tag_428:\n        /* \"#utility.yul\":21297:21322   */\n      swap2\n      pop\n        /* \"#utility.yul\":21336:21356   */\n      tag_429\n        /* \"#utility.yul\":21354:21355   */\n      dup4\n        /* \"#utility.yul\":21336:21356   */\n      tag_154\n      jump\t// in\n    tag_429:\n        /* \"#utility.yul\":21331:21356   */\n      swap3\n      pop\n        /* \"#utility.yul\":21375:21376   */\n      dup3\n        /* \"#utility.yul\":21365:21400   */\n      tag_430\n      jumpi\n        /* \"#utility.yul\":21380:21398   */\n      tag_431\n      tag_208\n      jump\t// in\n    tag_431:\n        /* \"#utility.yul\":21365:21400   */\n    tag_430:\n        /* \"#utility.yul\":21422:21423   */\n      dup3\n        /* \"#utility.yul\":21419:21420   */\n      dup3\n        /* \"#utility.yul\":21415:21424   */\n      div\n        /* \"#utility.yul\":21410:21424   */\n      swap1\n      pop\n        /* \"#utility.yul\":21245:21430   */\n      swap3\n      swap2\n      pop\n      pop\n      jump\t// out\n        /* \"#utility.yul\":21436:21603   */\n    tag_209:\n        /* \"#utility.yul\":21576:21595   */\n      0x446174657320616c726561647920736574000000000000000000000000000000\n        /* \"#utility.yul\":21572:21573   */\n      0x00\n        /* \"#utility.yul\":21564:21570   */\n      dup3\n        /* \"#utility.yul\":21560:21574   */\n      add\n        /* \"#utility.yul\":21553:21596   */\n      mstore\n        /* \"#utility.yul\":21436:21603   */\n      pop\n      jump\t// out\n        /* \"#utility.yul\":21609:21975   */\n    tag_210:\n        /* \"#utility.yul\":21751:21754   */\n      0x00\n        /* \"#utility.yul\":21772:21839   */\n      tag_434\n        /* \"#utility.yul\":21836:21838   */\n      0x11\n        /* \"#utility.yul\":21831:21834   */\n      dup4\n        /* \"#utility.yul\":21772:21839   */\n      tag_169\n      jump\t// in\n    tag_434:\n        /* \"#utility.yul\":21765:21839   */\n      swap2\n      pop\n        /* \"#utility.yul\":21848:21941   */\n      tag_435\n        /* \"#utility.yul\":21937:21940   */\n      dup3\n        /* \"#utility.yul\":21848:21941   */\n      tag_209\n      jump\t// in\n    tag_435:\n        /* \"#utility.yul\":21966:21968   */\n      0x20\n        /* \"#utility.yul\":21961:21964   */\n      dup3\n        /* \"#utility.yul\":21957:21969   */\n      add\n        /* \"#utility.yul\":21950:21969   */\n      swap1\n      pop\n        /* \"#utility.yul\":21609:21975   */\n      swap2\n      swap1\n      pop\n      jump\t// out\n        /* \"#utility.yul\":21981:22400   */\n    tag_146:\n        /* \"#utility.yul\":22147:22151   */\n      0x00\n        /* \"#utility.yul\":22185:22187   */\n      0x20\n        /* \"#utility.yul\":22174:22183   */\n      dup3\n        /* \"#utility.yul\":22170:22188   */\n      add\n        /* \"#utility.yul\":22162:22188   */\n      swap1\n      pop\n        /* \"#utility.yul\":22234:22243   */\n      dup2\n        /* \"#utility.yul\":22228:22232   */\n      dup2\n        /* \"#utility.yul\":22224:22244   */\n      sub\n        /* \"#utility.yul\":22220:22221   */\n      0x00\n        /* \"#utility.yul\":22209:22218   */\n      dup4\n        /* \"#utility.yul\":22205:22222   */\n      add\n        /* \"#utility.yul\":22198:22245   */\n      mstore\n        /* \"#utility.yul\":22262:22393   */\n      tag_437\n        /* \"#utility.yul\":22388:22392   */\n      dup2\n        /* \"#utility.yul\":22262:22393   */\n      tag_210\n      jump\t// in\n    tag_437:\n        /* \"#utility.yul\":22254:22393   */\n      swap1\n      pop\n        /* \"#utility.yul\":21981:22400   */\n      swap2\n      swap1\n      pop\n      jump\t// out\n        /* \"#utility.yul\":22406:22577   */\n    tag_211:\n        /* \"#utility.yul\":22546:22569   */\n      0x496e76616c696420646174652073657474696e67730000000000000000000000\n        /* \"#utility.yul\":22542:22543   */\n      0x00\n        /* \"#utility.yul\":22534:22540   */\n      dup3\n        /* \"#utility.yul\":22530:22544   */\n      add\n        /* \"#utility.yul\":22523:22570   */\n      mstore\n        /* \"#utility.yul\":22406:22577   */\n      pop\n      jump\t// out\n        /* \"#utility.yul\":22583:22949   */\n    tag_212:\n        /* \"#utility.yul\":22725:22728   */\n      0x00\n        /* \"#utility.yul\":22746:22813   */\n      tag_440\n        /* \"#utility.yul\":22810:22812   */\n      0x15\n        /* \"#utility.yul\":22805:22808   */\n      dup4\n        /* \"#utility.yul\":22746:22813   */\n      tag_169\n      jump\t// in\n    tag_440:\n        /* \"#utility.yul\":22739:22813   */\n      swap2\n      pop\n        /* \"#utility.yul\":22822:22915   */\n      tag_441\n        /* \"#utility.yul\":22911:22914   */\n      dup3\n        /* \"#utility.yul\":22822:22915   */\n      tag_211\n      jump\t// in\n    tag_441:\n        /* \"#utility.yul\":22940:22942   */\n      0x20\n        /* \"#utility.yul\":22935:22938   */\n      dup3\n        /* \"#utility.yul\":22931:22943   */\n      add\n        /* \"#utility.yul\":22924:22943   */\n      swap1\n      pop\n        /* \"#utility.yul\":22583:22949   */\n      swap2\n      swap1\n      pop\n      jump\t// out\n        /* \"#utility.yul\":22955:23374   */\n    tag_150:\n        /* \"#utility.yul\":23121:23125   */\n      0x00\n        /* \"#utility.yul\":23159:23161   */\n      0x20\n        /* \"#utility.yul\":23148:23157   */\n      dup3\n        /* \"#utility.yul\":23144:23162   */\n      add\n        /* \"#utility.yul\":23136:23162   */\n      swap1\n      pop\n        /* \"#utility.yul\":23208:23217   */\n      dup2\n        /* \"#utility.yul\":23202:23206   */\n      dup2\n        /* \"#utility.yul\":23198:23218   */\n      sub\n        /* \"#utility.yul\":23194:23195   */\n      0x00\n        /* \"#utility.yul\":23183:23192   */\n      dup4\n        /* \"#utility.yul\":23179:23196   */\n      add\n        /* \"#utility.yul\":23172:23219   */\n      mstore\n        /* \"#utility.yul\":23236:23367   */\n      tag_443\n        /* \"#utility.yul\":23362:23366   */\n      dup2\n        /* \"#utility.yul\":23236:23367   */\n      tag_212\n      jump\t// in\n    tag_443:\n        /* \"#utility.yul\":23228:23367   */\n      swap1\n      pop\n        /* \"#utility.yul\":22955:23374   */\n      swap2\n      swap1\n      pop\n      jump\t// out\n\n    auxdata: 0xa26469706673582212209fa939a089df41baa6d7e9ab11cbaa500f7a683ea3f50ed964ed2c88411b86ca64736f6c63430008110033\n}\n",
				"bytecode": {
					"linkReferences": {},
					"object": "608060405234801561001057600080fd5b5033600560006101000a81548173ffffffffffffffffffffffffffffffffffffffff021916908373ffffffffffffffffffffffffffffffffffffffff16021790555061197f806100616000396000f3fe608060405234801561001057600080fd5b50600436106100b45760003560e01c806385a386351161007157806385a38635146101965780638da5cb5b146101b4578063a3ec138d146101d2578063b0417e9814610202578063b86eda9114610220578063dedf141e1461023e576100b4565b80630121b93f146100b9578063101158af146100d557806316441813146100f357806326541b561461011257806335b8e8201461014257806369d76ae214610174575b600080fd5b6100d360048036038101906100ce9190610d0a565b61025a565b005b6100dd6104bc565b6040516100ea9190610d46565b60405180910390f35b6100fb6104c2565b604051610109929190610d61565b60405180910390f35b61012c60048036038101906101279190610ed0565b6104d3565b6040516101399190610d46565b60405180910390f35b61015c60048036038101906101579190610d0a565b610603565b60405161016b93929190610fc7565b60405180910390f35b61017c6107cf565b60405161018d95949392919061100c565b60405180910390f35b61019e610ad7565b6040516101ab9190610d46565b60405180910390f35b6101bc610add565b6040516101c991906110ae565b60405180910390f35b6101ec60048036038101906101e791906110f5565b610b03565b6040516101f9919061113d565b60405180910390f35b61020a610b23565b604051610217919061113d565b60405180910390f35b610228610b77565b6040516102359190610d46565b60405180910390f35b61025860048036038101906102539190611158565b610b7d565b005b600560009054906101000a900473ffffffffffffffffffffffffffffffffffffffff1673ffffffffffffffffffffffffffffffffffffffff163373ffffffffffffffffffffffffffffffffffffffff16036102ea576040517f08c379a00000000000000000000000000000000000000000000000000000000081526004016102e1906111e4565b60405180910390fd5b6000600454141580156103005750600060035414155b1561035957600454421015801561031957506003544211155b610358576040517f08c379a000000000000000000000000000000000000000000000000000000000815260040161034f90611250565b60405180910390fd5b5b60008111801561036b57506002548111155b6103aa576040517f08c379a00000000000000000000000000000000000000000000000000000000081526004016103a1906112bc565b60405180910390fd5b600160003373ffffffffffffffffffffffffffffffffffffffff1673ffffffffffffffffffffffffffffffffffffffff16815260200190815260200160002060009054906101000a900460ff1615610437576040517f08c379a000000000000000000000000000000000000000000000000000000000815260040161042e90611328565b60405180910390fd5b60018060003373ffffffffffffffffffffffffffffffffffffffff1673ffffffffffffffffffffffffffffffffffffffff16815260200190815260200160002060006101000a81548160ff02191690831515021790555060008082815260200190815260200160002060030160008154809291906104b490611377565b919050555050565b60045481565b600080600454600354915091509091565b6000600560009054906101000a900473ffffffffffffffffffffffffffffffffffffffff1673ffffffffffffffffffffffffffffffffffffffff163373ffffffffffffffffffffffffffffffffffffffff1614610565576040517f08c379a000000000000000000000000000000000000000000000000000000000815260040161055c90611431565b60405180910390fd5b6002600081548092919061057890611377565b919050555060405180608001604052806002548152602001848152602001838152602001600081525060008060025481526020019081526020016000206000820151816000015560208201518160010190816105d4919061165d565b5060408201518160020190816105ea919061165d565b5060608201518160030155905050600254905092915050565b600060608060008411801561061a57506002548411155b610659576040517f08c379a0000000000000000000000000000000000000000000000000000000008152600401610650906112bc565b60405180910390fd5b60008060008681526020019081526020016000206040518060800160405290816000820154815260200160018201805461069290611480565b80601f01602080910402602001604051908101604052809291908181526020018280546106be90611480565b801561070b5780601f106106e05761010080835404028352916020019161070b565b820191906000526020600020905b8154815290600101906020018083116106ee57829003601f168201915b5050505050815260200160028201805461072490611480565b80601f016020809104026020016040519081016040528092919081815260200182805461075090611480565b801561079d5780601f106107725761010080835404028352916020019161079d565b820191906000526020600020905b81548152906001019060200180831161078057829003601f168201915b505050505081526020016003820154815250509050806000015181602001518260400151935093509350509193909250565b6000606080600080600560009054906101000a900473ffffffffffffffffffffffffffffffffffffffff1673ffffffffffffffffffffffffffffffffffffffff163373ffffffffffffffffffffffffffffffffffffffff1614610867576040517f08c379a000000000000000000000000000000000000000000000000000000000815260040161085e90611431565b60405180910390fd5b600080600080600190505b60025481116108ea57600080828152602001908152602001600020600301548261089c919061172f565b9150836000808381526020019081526020016000206003015411156108d7576000808281526020019081526020016000206003015493508092505b80806108e290611377565b915050610872565b506000820361092e576040517f08c379a0000000000000000000000000000000000000000000000000000000008152600401610925906117af565b60405180910390fd5b600080821115610953578160648561094691906117cf565b6109509190611840565b90505b60008060008581526020019081526020016000206040518060800160405290816000820154815260200160018201805461098c90611480565b80601f01602080910402602001604051908101604052809291908181526020018280546109b890611480565b8015610a055780601f106109da57610100808354040283529160200191610a05565b820191906000526020600020905b8154815290600101906020018083116109e857829003601f168201915b50505050508152602001600282018054610a1e90611480565b80601f0160208091040260200160405190810160405280929190818152602001828054610a4a90611480565b8015610a975780601f10610a6c57610100808354040283529160200191610a97565b820191906000526020600020905b815481529060010190602001808311610a7a57829003601f168201915b5050505050815260200160038201548152505090508060000151816020015182604001518360600151859950995099509950995050505050509091929394565b60035481565b600560009054906101000a900473ffffffffffffffffffffffffffffffffffffffff1681565b60016020528060005260406000206000915054906101000a900460ff1681565b6000600160003373ffffffffffffffffffffffffffffffffffffffff1673ffffffffffffffffffffffffffffffffffffffff16815260200190815260200160002060009054906101000a900460ff16905090565b60025481565b600560009054906101000a900473ffffffffffffffffffffffffffffffffffffffff1673ffffffffffffffffffffffffffffffffffffffff163373ffffffffffffffffffffffffffffffffffffffff1614610c0d576040517f08c379a0000000000000000000000000000000000000000000000000000000008152600401610c0490611431565b60405180910390fd5b6000600354148015610c2157506000600454145b610c60576040517f08c379a0000000000000000000000000000000000000000000000000000000008152600401610c57906118bd565b60405180910390fd5b428210158015610c6f57508181115b610cae576040517f08c379a0000000000000000000000000000000000000000000000000000000008152600401610ca590611929565b60405180910390fd5b81600481905550806003819055505050565b6000604051905090565b600080fd5b600080fd5b6000819050919050565b610ce781610cd4565b8114610cf257600080fd5b50565b600081359050610d0481610cde565b92915050565b600060208284031215610d2057610d1f610cca565b5b6000610d2e84828501610cf5565b91505092915050565b610d4081610cd4565b82525050565b6000602082019050610d5b6000830184610d37565b92915050565b6000604082019050610d766000830185610d37565b610d836020830184610d37565b9392505050565b600080fd5b600080fd5b6000601f19601f8301169050919050565b7f4e487b7100000000000000000000000000000000000000000000000000000000600052604160045260246000fd5b610ddd82610d94565b810181811067ffffffffffffffff82111715610dfc57610dfb610da5565b5b80604052505050565b6000610e0f610cc0565b9050610e1b8282610dd4565b919050565b600067ffffffffffffffff821115610e3b57610e3a610da5565b5b610e4482610d94565b9050602081019050919050565b82818337600083830152505050565b6000610e73610e6e84610e20565b610e05565b905082815260208101848484011115610e8f57610e8e610d8f565b5b610e9a848285610e51565b509392505050565b600082601f830112610eb757610eb6610d8a565b5b8135610ec7848260208601610e60565b91505092915050565b60008060408385031215610ee757610ee6610cca565b5b600083013567ffffffffffffffff811115610f0557610f04610ccf565b5b610f1185828601610ea2565b925050602083013567ffffffffffffffff811115610f3257610f31610ccf565b5b610f3e85828601610ea2565b9150509250929050565b600081519050919050565b600082825260208201905092915050565b60005b83811015610f82578082015181840152602081019050610f67565b60008484015250505050565b6000610f9982610f48565b610fa38185610f53565b9350610fb3818560208601610f64565b610fbc81610d94565b840191505092915050565b6000606082019050610fdc6000830186610d37565b8181036020830152610fee8185610f8e565b905081810360408301526110028184610f8e565b9050949350505050565b600060a0820190506110216000830188610d37565b81810360208301526110338187610f8e565b905081810360408301526110478186610f8e565b90506110566060830185610d37565b6110636080830184610d37565b9695505050505050565b600073ffffffffffffffffffffffffffffffffffffffff82169050919050565b60006110988261106d565b9050919050565b6110a88161108d565b82525050565b60006020820190506110c3600083018461109f565b92915050565b6110d28161108d565b81146110dd57600080fd5b50565b6000813590506110ef816110c9565b92915050565b60006020828403121561110b5761110a610cca565b5b6000611119848285016110e0565b91505092915050565b60008115159050919050565b61113781611122565b82525050565b6000602082019050611152600083018461112e565b92915050565b6000806040838503121561116f5761116e610cca565b5b600061117d85828601610cf5565b925050602061118e85828601610cf5565b9150509250929050565b7f4f776e6572206973206e6f7420616c6c6f77656420746f20766f746500000000600082015250565b60006111ce601c83610f53565b91506111d982611198565b602082019050919050565b600060208201905081810360008301526111fd816111c1565b9050919050565b7f566f74696e67206973206e6f7420616374697665000000000000000000000000600082015250565b600061123a601483610f53565b915061124582611204565b602082019050919050565b600060208201905081810360008301526112698161122d565b9050919050565b7f496e76616c69642063616e646964617465204944000000000000000000000000600082015250565b60006112a6601483610f53565b91506112b182611270565b602082019050919050565b600060208201905081810360008301526112d581611299565b9050919050565b7f596f75206861766520616c726561647920766f74656400000000000000000000600082015250565b6000611312601683610f53565b915061131d826112dc565b602082019050919050565b6000602082019050818103600083015261134181611305565b9050919050565b7f4e487b7100000000000000000000000000000000000000000000000000000000600052601160045260246000fd5b600061138282610cd4565b91507fffffffffffffffffffffffffffffffffffffffffffffffffffffffffffffffff82036113b4576113b3611348565b5b600182019050919050565b7f4f6e6c79206f776e65722063616e20706572666f726d2074686973206163746960008201527f6f6e000000000000000000000000000000000000000000000000000000000000602082015250565b600061141b602283610f53565b9150611426826113bf565b604082019050919050565b6000602082019050818103600083015261144a8161140e565b9050919050565b7f4e487b7100000000000000000000000000000000000000000000000000000000600052602260045260246000fd5b6000600282049050600182168061149857607f821691505b6020821081036114ab576114aa611451565b5b50919050565b60008190508160005260206000209050919050565b60006020601f8301049050919050565b600082821b905092915050565b6000600883026115137fffffffffffffffffffffffffffffffffffffffffffffffffffffffffffffffff826114d6565b61151d86836114d6565b95508019841693508086168417925050509392505050565b6000819050919050565b600061155a61155561155084610cd4565b611535565b610cd4565b9050919050565b6000819050919050565b6115748361153f565b61158861158082611561565b8484546114e3565b825550505050565b600090565b61159d611590565b6115a881848461156b565b505050565b5b818110156115cc576115c1600082611595565b6001810190506115ae565b5050565b601f821115611611576115e2816114b1565b6115eb846114c6565b810160208510156115fa578190505b61160e611606856114c6565b8301826115ad565b50505b505050565b600082821c905092915050565b600061163460001984600802611616565b1980831691505092915050565b600061164d8383611623565b9150826002028217905092915050565b61166682610f48565b67ffffffffffffffff81111561167f5761167e610da5565b5b6116898254611480565b6116948282856115d0565b600060209050601f8311600181146116c757600084156116b5578287015190505b6116bf8582611641565b865550611727565b601f1984166116d5866114b1565b60005b828110156116fd578489015182556001820191506020850194506020810190506116d8565b8683101561171a5784890151611716601f891682611623565b8355505b6001600288020188555050505b505050505050565b600061173a82610cd4565b915061174583610cd4565b925082820190508082111561175d5761175c611348565b5b92915050565b7f4e6f20766f746573206361737420796574000000000000000000000000000000600082015250565b6000611799601183610f53565b91506117a482611763565b602082019050919050565b600060208201905081810360008301526117c88161178c565b9050919050565b60006117da82610cd4565b91506117e583610cd4565b92508282026117f381610cd4565b9150828204841483151761180a57611809611348565b5b5092915050565b7f4e487b7100000000000000000000000000000000000000000000000000000000600052601260045260246000fd5b600061184b82610cd4565b915061185683610cd4565b92508261186657611865611811565b5b828204905092915050565b7f446174657320616c726561647920736574000000000000000000000000000000600082015250565b60006118a7601183610f53565b91506118b282611871565b602082019050919050565b600060208201905081810360008301526118d68161189a565b9050919050565b7f496e76616c696420646174652073657474696e67730000000000000000000000600082015250565b6000611913601583610f53565b915061191e826118dd565b602082019050919050565b6000602082019050818103600083015261194281611906565b905091905056fea26469706673582212209fa939a089df41baa6d7e9ab11cbaa500f7a683ea3f50ed964ed2c88411b86ca64736f6c63430008110033",
					"opcodes": "PUSH1 0x80 PUSH1 0x40 MSTORE CALLVALUE DUP1 ISZERO PUSH2 0x10 JUMPI PUSH1 0x0 DUP1 REVERT JUMPDEST POP CALLER PUSH1 0x5 PUSH1 0x0 PUSH2 0x100 EXP DUP2 SLOAD DUP2 PUSH20 0xFFFFFFFFFFFFFFFFFFFFFFFFFFFFFFFFFFFFFFFF MUL NOT AND SWAP1 DUP4 PUSH20 0xFFFFFFFFFFFFFFFFFFFFFFFFFFFFFFFFFFFFFFFF AND MUL OR SWAP1 SSTORE POP PUSH2 0x197F DUP1 PUSH2 0x61 PUSH1 0x0 CODECOPY PUSH1 0x0 RETURN INVALID PUSH1 0x80 PUSH1 0x40 MSTORE CALLVALUE DUP1 ISZERO PUSH2 0x10 JUMPI PUSH1 0x0 DUP1 REVERT JUMPDEST POP PUSH1 0x4 CALLDATASIZE LT PUSH2 0xB4 JUMPI PUSH1 0x0 CALLDATALOAD PUSH1 0xE0 SHR DUP1 PUSH4 0x85A38635 GT PUSH2 0x71 JUMPI DUP1 PUSH4 0x85A38635 EQ PUSH2 0x196 JUMPI DUP1 PUSH4 0x8DA5CB5B EQ PUSH2 0x1B4 JUMPI DUP1 PUSH4 0xA3EC138D EQ PUSH2 0x1D2 JUMPI DUP1 PUSH4 0xB0417E98 EQ PUSH2 0x202 JUMPI DUP1 PUSH4 0xB86EDA91 EQ PUSH2 0x220 JUMPI DUP1 PUSH4 0xDEDF141E EQ PUSH2 0x23E JUMPI PUSH2 0xB4 JUMP JUMPDEST DUP1 PUSH4 0x121B93F EQ PUSH2 0xB9 JUMPI DUP1 PUSH4 0x101158AF EQ PUSH2 0xD5 JUMPI DUP1 PUSH4 0x16441813 EQ PUSH2 0xF3 JUMPI DUP1 PUSH4 0x26541B56 EQ PUSH2 0x112 JUMPI DUP1 PUSH4 0x35B8E820 EQ PUSH2 0x142 JUMPI DUP1 PUSH4 0x69D76AE2 EQ PUSH2 0x174 JUMPI JUMPDEST PUSH1 0x0 DUP1 REVERT JUMPDEST PUSH2 0xD3 PUSH1 0x4 DUP1 CALLDATASIZE SUB DUP2 ADD SWAP1 PUSH2 0xCE SWAP2 SWAP1 PUSH2 0xD0A JUMP JUMPDEST PUSH2 0x25A JUMP JUMPDEST STOP JUMPDEST PUSH2 0xDD PUSH2 0x4BC JUMP JUMPDEST PUSH1 0x40 MLOAD PUSH2 0xEA SWAP2 SWAP1 PUSH2 0xD46 JUMP JUMPDEST PUSH1 0x40 MLOAD DUP1 SWAP2 SUB SWAP1 RETURN JUMPDEST PUSH2 0xFB PUSH2 0x4C2 JUMP JUMPDEST PUSH1 0x40 MLOAD PUSH2 0x109 SWAP3 SWAP2 SWAP1 PUSH2 0xD61 JUMP JUMPDEST PUSH1 0x40 MLOAD DUP1 SWAP2 SUB SWAP1 RETURN JUMPDEST PUSH2 0x12C PUSH1 0x4 DUP1 CALLDATASIZE SUB DUP2 ADD SWAP1 PUSH2 0x127 SWAP2 SWAP1 PUSH2 0xED0 JUMP JUMPDEST PUSH2 0x4D3 JUMP JUMPDEST PUSH1 0x40 MLOAD PUSH2 0x139 SWAP2 SWAP1 PUSH2 0xD46 JUMP JUMPDEST PUSH1 0x40 MLOAD DUP1 SWAP2 SUB SWAP1 RETURN JUMPDEST PUSH2 0x15C PUSH1 0x4 DUP1 CALLDATASIZE SUB DUP2 ADD SWAP1 PUSH2 0x157 SWAP2 SWAP1 PUSH2 0xD0A JUMP JUMPDEST PUSH2 0x603 JUMP JUMPDEST PUSH1 0x40 MLOAD PUSH2 0x16B SWAP4 SWAP3 SWAP2 SWAP1 PUSH2 0xFC7 JUMP JUMPDEST PUSH1 0x40 MLOAD DUP1 SWAP2 SUB SWAP1 RETURN JUMPDEST PUSH2 0x17C PUSH2 0x7CF JUMP JUMPDEST PUSH1 0x40 MLOAD PUSH2 0x18D SWAP6 SWAP5 SWAP4 SWAP3 SWAP2 SWAP1 PUSH2 0x100C JUMP JUMPDEST PUSH1 0x40 MLOAD DUP1 SWAP2 SUB SWAP1 RETURN JUMPDEST PUSH2 0x19E PUSH2 0xAD7 JUMP JUMPDEST PUSH1 0x40 MLOAD PUSH2 0x1AB SWAP2 SWAP1 PUSH2 0xD46 JUMP JUMPDEST PUSH1 0x40 MLOAD DUP1 SWAP2 SUB SWAP1 RETURN JUMPDEST PUSH2 0x1BC PUSH2 0xADD JUMP JUMPDEST PUSH1 0x40 MLOAD PUSH2 0x1C9 SWAP2 SWAP1 PUSH2 0x10AE JUMP JUMPDEST PUSH1 0x40 MLOAD DUP1 SWAP2 SUB SWAP1 RETURN JUMPDEST PUSH2 0x1EC PUSH1 0x4 DUP1 CALLDATASIZE SUB DUP2 ADD SWAP1 PUSH2 0x1E7 SWAP2 SWAP1 PUSH2 0x10F5 JUMP JUMPDEST PUSH2 0xB03 JUMP JUMPDEST PUSH1 0x40 MLOAD PUSH2 0x1F9 SWAP2 SWAP1 PUSH2 0x113D JUMP JUMPDEST PUSH1 0x40 MLOAD DUP1 SWAP2 SUB SWAP1 RETURN JUMPDEST PUSH2 0x20A PUSH2 0xB23 JUMP JUMPDEST PUSH1 0x40 MLOAD PUSH2 0x217 SWAP2 SWAP1 PUSH2 0x113D JUMP JUMPDEST PUSH1 0x40 MLOAD DUP1 SWAP2 SUB SWAP1 RETURN JUMPDEST PUSH2 0x228 PUSH2 0xB77 JUMP JUMPDEST PUSH1 0x40 MLOAD PUSH2 0x235 SWAP2 SWAP1 PUSH2 0xD46 JUMP JUMPDEST PUSH1 0x40 MLOAD DUP1 SWAP2 SUB SWAP1 RETURN JUMPDEST PUSH2 0x258 PUSH1 0x4 DUP1 CALLDATASIZE SUB DUP2 ADD SWAP1 PUSH2 0x253 SWAP2 SWAP1 PUSH2 0x1158 JUMP JUMPDEST PUSH2 0xB7D JUMP JUMPDEST STOP JUMPDEST PUSH1 0x5 PUSH1 0x0 SWAP1 SLOAD SWAP1 PUSH2 0x100 EXP SWAP1 DIV PUSH20 0xFFFFFFFFFFFFFFFFFFFFFFFFFFFFFFFFFFFFFFFF AND PUSH20 0xFFFFFFFFFFFFFFFFFFFFFFFFFFFFFFFFFFFFFFFF AND CALLER PUSH20 0xFFFFFFFFFFFFFFFFFFFFFFFFFFFFFFFFFFFFFFFF AND SUB PUSH2 0x2EA JUMPI PUSH1 0x40 MLOAD PUSH32 0x8C379A000000000000000000000000000000000000000000000000000000000 DUP2 MSTORE PUSH1 0x4 ADD PUSH2 0x2E1 SWAP1 PUSH2 0x11E4 JUMP JUMPDEST PUSH1 0x40 MLOAD DUP1 SWAP2 SUB SWAP1 REVERT JUMPDEST PUSH1 0x0 PUSH1 0x4 SLOAD EQ ISZERO DUP1 ISZERO PUSH2 0x300 JUMPI POP PUSH1 0x0 PUSH1 0x3 SLOAD EQ ISZERO JUMPDEST ISZERO PUSH2 0x359 JUMPI PUSH1 0x4 SLOAD TIMESTAMP LT ISZERO DUP1 ISZERO PUSH2 0x319 JUMPI POP PUSH1 0x3 SLOAD TIMESTAMP GT ISZERO JUMPDEST PUSH2 0x358 JUMPI PUSH1 0x40 MLOAD PUSH32 0x8C379A000000000000000000000000000000000000000000000000000000000 DUP2 MSTORE PUSH1 0x4 ADD PUSH2 0x34F SWAP1 PUSH2 0x1250 JUMP JUMPDEST PUSH1 0x40 MLOAD DUP1 SWAP2 SUB SWAP1 REVERT JUMPDEST JUMPDEST PUSH1 0x0 DUP2 GT DUP1 ISZERO PUSH2 0x36B JUMPI POP PUSH1 0x2 SLOAD DUP2 GT ISZERO JUMPDEST PUSH2 0x3AA JUMPI PUSH1 0x40 MLOAD PUSH32 0x8C379A000000000000000000000000000000000000000000000000000000000 DUP2 MSTORE PUSH1 0x4 ADD PUSH2 0x3A1 SWAP1 PUSH2 0x12BC JUMP JUMPDEST PUSH1 0x40 MLOAD DUP1 SWAP2 SUB SWAP1 REVERT JUMPDEST PUSH1 0x1 PUSH1 0x0 CALLER PUSH20 0xFFFFFFFFFFFFFFFFFFFFFFFFFFFFFFFFFFFFFFFF AND PUSH20 0xFFFFFFFFFFFFFFFFFFFFFFFFFFFFFFFFFFFFFFFF AND DUP2 MSTORE PUSH1 0x20 ADD SWAP1 DUP2 MSTORE PUSH1 0x20 ADD PUSH1 0x0 KECCAK256 PUSH1 0x0 SWAP1 SLOAD SWAP1 PUSH2 0x100 EXP SWAP1 DIV PUSH1 0xFF AND ISZERO PUSH2 0x437 JUMPI PUSH1 0x40 MLOAD PUSH32 0x8C379A000000000000000000000000000000000000000000000000000000000 DUP2 MSTORE PUSH1 0x4 ADD PUSH2 0x42E SWAP1 PUSH2 0x1328 JUMP JUMPDEST PUSH1 0x40 MLOAD DUP1 SWAP2 SUB SWAP1 REVERT JUMPDEST PUSH1 0x1 DUP1 PUSH1 0x0 CALLER PUSH20 0xFFFFFFFFFFFFFFFFFFFFFFFFFFFFFFFFFFFFFFFF AND PUSH20 0xFFFFFFFFFFFFFFFFFFFFFFFFFFFFFFFFFFFFFFFF AND DUP2 MSTORE PUSH1 0x20 ADD SWAP1 DUP2 MSTORE PUSH1 0x20 ADD PUSH1 0x0 KECCAK256 PUSH1 0x0 PUSH2 0x100 EXP DUP2 SLOAD DUP2 PUSH1 0xFF MUL NOT AND SWAP1 DUP4 ISZERO ISZERO MUL OR SWAP1 SSTORE POP PUSH1 0x0 DUP1 DUP3 DUP2 MSTORE PUSH1 0x20 ADD SWAP1 DUP2 MSTORE PUSH1 0x20 ADD PUSH1 0x0 KECCAK256 PUSH1 0x3 ADD PUSH1 0x0 DUP2 SLOAD DUP1 SWAP3 SWAP2 SWAP1 PUSH2 0x4B4 SWAP1 PUSH2 0x1377 JUMP JUMPDEST SWAP2 SWAP1 POP SSTORE POP POP JUMP JUMPDEST PUSH1 0x4 SLOAD DUP2 JUMP JUMPDEST PUSH1 0x0 DUP1 PUSH1 0x4 SLOAD PUSH1 0x3 SLOAD SWAP2 POP SWAP2 POP SWAP1 SWAP2 JUMP JUMPDEST PUSH1 0x0 PUSH1 0x5 PUSH1 0x0 SWAP1 SLOAD SWAP1 PUSH2 0x100 EXP SWAP1 DIV PUSH20 0xFFFFFFFFFFFFFFFFFFFFFFFFFFFFFFFFFFFFFFFF AND PUSH20 0xFFFFFFFFFFFFFFFFFFFFFFFFFFFFFFFFFFFFFFFF AND CALLER PUSH20 0xFFFFFFFFFFFFFFFFFFFFFFFFFFFFFFFFFFFFFFFF AND EQ PUSH2 0x565 JUMPI PUSH1 0x40 MLOAD PUSH32 0x8C379A000000000000000000000000000000000000000000000000000000000 DUP2 MSTORE PUSH1 0x4 ADD PUSH2 0x55C SWAP1 PUSH2 0x1431 JUMP JUMPDEST PUSH1 0x40 MLOAD DUP1 SWAP2 SUB SWAP1 REVERT JUMPDEST PUSH1 0x2 PUSH1 0x0 DUP2 SLOAD DUP1 SWAP3 SWAP2 SWAP1 PUSH2 0x578 SWAP1 PUSH2 0x1377 JUMP JUMPDEST SWAP2 SWAP1 POP SSTORE POP PUSH1 0x40 MLOAD DUP1 PUSH1 0x80 ADD PUSH1 0x40 MSTORE DUP1 PUSH1 0x2 SLOAD DUP2 MSTORE PUSH1 0x20 ADD DUP5 DUP2 MSTORE PUSH1 0x20 ADD DUP4 DUP2 MSTORE PUSH1 0x20 ADD PUSH1 0x0 DUP2 MSTORE POP PUSH1 0x0 DUP1 PUSH1 0x2 SLOAD DUP2 MSTORE PUSH1 0x20 ADD SWAP1 DUP2 MSTORE PUSH1 0x20 ADD PUSH1 0x0 KECCAK256 PUSH1 0x0 DUP3 ADD MLOAD DUP2 PUSH1 0x0 ADD SSTORE PUSH1 0x20 DUP3 ADD MLOAD DUP2 PUSH1 0x1 ADD SWAP1 DUP2 PUSH2 0x5D4 SWAP2 SWAP1 PUSH2 0x165D JUMP JUMPDEST POP PUSH1 0x40 DUP3 ADD MLOAD DUP2 PUSH1 0x2 ADD SWAP1 DUP2 PUSH2 0x5EA SWAP2 SWAP1 PUSH2 0x165D JUMP JUMPDEST POP PUSH1 0x60 DUP3 ADD MLOAD DUP2 PUSH1 0x3 ADD SSTORE SWAP1 POP POP PUSH1 0x2 SLOAD SWAP1 POP SWAP3 SWAP2 POP POP JUMP JUMPDEST PUSH1 0x0 PUSH1 0x60 DUP1 PUSH1 0x0 DUP5 GT DUP1 ISZERO PUSH2 0x61A JUMPI POP PUSH1 0x2 SLOAD DUP5 GT ISZERO JUMPDEST PUSH2 0x659 JUMPI PUSH1 0x40 MLOAD PUSH32 0x8C379A000000000000000000000000000000000000000000000000000000000 DUP2 MSTORE PUSH1 0x4 ADD PUSH2 0x650 SWAP1 PUSH2 0x12BC JUMP JUMPDEST PUSH1 0x40 MLOAD DUP1 SWAP2 SUB SWAP1 REVERT JUMPDEST PUSH1 0x0 DUP1 PUSH1 0x0 DUP7 DUP2 MSTORE PUSH1 0x20 ADD SWAP1 DUP2 MSTORE PUSH1 0x20 ADD PUSH1 0x0 KECCAK256 PUSH1 0x40 MLOAD DUP1 PUSH1 0x80 ADD PUSH1 0x40 MSTORE SWAP1 DUP2 PUSH1 0x0 DUP3 ADD SLOAD DUP2 MSTORE PUSH1 0x20 ADD PUSH1 0x1 DUP3 ADD DUP1 SLOAD PUSH2 0x692 SWAP1 PUSH2 0x1480 JUMP JUMPDEST DUP1 PUSH1 0x1F ADD PUSH1 0x20 DUP1 SWAP2 DIV MUL PUSH1 0x20 ADD PUSH1 0x40 MLOAD SWAP1 DUP2 ADD PUSH1 0x40 MSTORE DUP1 SWAP3 SWAP2 SWAP1 DUP2 DUP2 MSTORE PUSH1 0x20 ADD DUP3 DUP1 SLOAD PUSH2 0x6BE SWAP1 PUSH2 0x1480 JUMP JUMPDEST DUP1 ISZERO PUSH2 0x70B JUMPI DUP1 PUSH1 0x1F LT PUSH2 0x6E0 JUMPI PUSH2 0x100 DUP1 DUP4 SLOAD DIV MUL DUP4 MSTORE SWAP2 PUSH1 0x20 ADD SWAP2 PUSH2 0x70B JUMP JUMPDEST DUP3 ADD SWAP2 SWAP1 PUSH1 0x0 MSTORE PUSH1 0x20 PUSH1 0x0 KECCAK256 SWAP1 JUMPDEST DUP2 SLOAD DUP2 MSTORE SWAP1 PUSH1 0x1 ADD SWAP1 PUSH1 0x20 ADD DUP1 DUP4 GT PUSH2 0x6EE JUMPI DUP3 SWAP1 SUB PUSH1 0x1F AND DUP3 ADD SWAP2 JUMPDEST POP POP POP POP POP DUP2 MSTORE PUSH1 0x20 ADD PUSH1 0x2 DUP3 ADD DUP1 SLOAD PUSH2 0x724 SWAP1 PUSH2 0x1480 JUMP JUMPDEST DUP1 PUSH1 0x1F ADD PUSH1 0x20 DUP1 SWAP2 DIV MUL PUSH1 0x20 ADD PUSH1 0x40 MLOAD SWAP1 DUP2 ADD PUSH1 0x40 MSTORE DUP1 SWAP3 SWAP2 SWAP1 DUP2 DUP2 MSTORE PUSH1 0x20 ADD DUP3 DUP1 SLOAD PUSH2 0x750 SWAP1 PUSH2 0x1480 JUMP JUMPDEST DUP1 ISZERO PUSH2 0x79D JUMPI DUP1 PUSH1 0x1F LT PUSH2 0x772 JUMPI PUSH2 0x100 DUP1 DUP4 SLOAD DIV MUL DUP4 MSTORE SWAP2 PUSH1 0x20 ADD SWAP2 PUSH2 0x79D JUMP JUMPDEST DUP3 ADD SWAP2 SWAP1 PUSH1 0x0 MSTORE PUSH1 0x20 PUSH1 0x0 KECCAK256 SWAP1 JUMPDEST DUP2 SLOAD DUP2 MSTORE SWAP1 PUSH1 0x1 ADD SWAP1 PUSH1 0x20 ADD DUP1 DUP4 GT PUSH2 0x780 JUMPI DUP3 SWAP1 SUB PUSH1 0x1F AND DUP3 ADD SWAP2 JUMPDEST POP POP POP POP POP DUP2 MSTORE PUSH1 0x20 ADD PUSH1 0x3 DUP3 ADD SLOAD DUP2 MSTORE POP POP SWAP1 POP DUP1 PUSH1 0x0 ADD MLOAD DUP2 PUSH1 0x20 ADD MLOAD DUP3 PUSH1 0x40 ADD MLOAD SWAP4 POP SWAP4 POP SWAP4 POP POP SWAP2 SWAP4 SWAP1 SWAP3 POP JUMP JUMPDEST PUSH1 0x0 PUSH1 0x60 DUP1 PUSH1 0x0 DUP1 PUSH1 0x5 PUSH1 0x0 SWAP1 SLOAD SWAP1 PUSH2 0x100 EXP SWAP1 DIV PUSH20 0xFFFFFFFFFFFFFFFFFFFFFFFFFFFFFFFFFFFFFFFF AND PUSH20 0xFFFFFFFFFFFFFFFFFFFFFFFFFFFFFFFFFFFFFFFF AND CALLER PUSH20 0xFFFFFFFFFFFFFFFFFFFFFFFFFFFFFFFFFFFFFFFF AND EQ PUSH2 0x867 JUMPI PUSH1 0x40 MLOAD PUSH32 0x8C379A000000000000000000000000000000000000000000000000000000000 DUP2 MSTORE PUSH1 0x4 ADD PUSH2 0x85E SWAP1 PUSH2 0x1431 JUMP JUMPDEST PUSH1 0x40 MLOAD DUP1 SWAP2 SUB SWAP1 REVERT JUMPDEST PUSH1 0x0 DUP1 PUSH1 0x0 DUP1 PUSH1 0x1 SWAP1 POP JUMPDEST PUSH1 0x2 SLOAD DUP2 GT PUSH2 0x8EA JUMPI PUSH1 0x0 DUP1 DUP3 DUP2 MSTORE PUSH1 0x20 ADD SWAP1 DUP2 MSTORE PUSH1 0x20 ADD PUSH1 0x0 KECCAK256 PUSH1 0x3 ADD SLOAD DUP3 PUSH2 0x89C SWAP2 SWAP1 PUSH2 0x172F JUMP JUMPDEST SWAP2 POP DUP4 PUSH1 0x0 DUP1 DUP4 DUP2 MSTORE PUSH1 0x20 ADD SWAP1 DUP2 MSTORE PUSH1 0x20 ADD PUSH1 0x0 KECCAK256 PUSH1 0x3 ADD SLOAD GT ISZERO PUSH2 0x8D7 JUMPI PUSH1 0x0 DUP1 DUP3 DUP2 MSTORE PUSH1 0x20 ADD SWAP1 DUP2 MSTORE PUSH1 0x20 ADD PUSH1 0x0 KECCAK256 PUSH1 0x3 ADD SLOAD SWAP4 POP DUP1 SWAP3 POP JUMPDEST DUP1 DUP1 PUSH2 0x8E2 SWAP1 PUSH2 0x1377 JUMP JUMPDEST SWAP2 POP POP PUSH2 0x872 JUMP JUMPDEST POP PUSH1 0x0 DUP3 SUB PUSH2 0x92E JUMPI PUSH1 0x40 MLOAD PUSH32 0x8C379A000000000000000000000000000000000000000000000000000000000 DUP2 MSTORE PUSH1 0x4 ADD PUSH2 0x925 SWAP1 PUSH2 0x17AF JUMP JUMPDEST PUSH1 0x40 MLOAD DUP1 SWAP2 SUB SWAP1 REVERT JUMPDEST PUSH1 0x0 DUP1 DUP3 GT ISZERO PUSH2 0x953 JUMPI DUP2 PUSH1 0x64 DUP6 PUSH2 0x946 SWAP2 SWAP1 PUSH2 0x17CF JUMP JUMPDEST PUSH2 0x950 SWAP2 SWAP1 PUSH2 0x1840 JUMP JUMPDEST SWAP1 POP JUMPDEST PUSH1 0x0 DUP1 PUSH1 0x0 DUP6 DUP2 MSTORE PUSH1 0x20 ADD SWAP1 DUP2 MSTORE PUSH1 0x20 ADD PUSH1 0x0 KECCAK256 PUSH1 0x40 MLOAD DUP1 PUSH1 0x80 ADD PUSH1 0x40 MSTORE SWAP1 DUP2 PUSH1 0x0 DUP3 ADD SLOAD DUP2 MSTORE PUSH1 0x20 ADD PUSH1 0x1 DUP3 ADD DUP1 SLOAD PUSH2 0x98C SWAP1 PUSH2 0x1480 JUMP JUMPDEST DUP1 PUSH1 0x1F ADD PUSH1 0x20 DUP1 SWAP2 DIV MUL PUSH1 0x20 ADD PUSH1 0x40 MLOAD SWAP1 DUP2 ADD PUSH1 0x40 MSTORE DUP1 SWAP3 SWAP2 SWAP1 DUP2 DUP2 MSTORE PUSH1 0x20 ADD DUP3 DUP1 SLOAD PUSH2 0x9B8 SWAP1 PUSH2 0x1480 JUMP JUMPDEST DUP1 ISZERO PUSH2 0xA05 JUMPI DUP1 PUSH1 0x1F LT PUSH2 0x9DA JUMPI PUSH2 0x100 DUP1 DUP4 SLOAD DIV MUL DUP4 MSTORE SWAP2 PUSH1 0x20 ADD SWAP2 PUSH2 0xA05 JUMP JUMPDEST DUP3 ADD SWAP2 SWAP1 PUSH1 0x0 MSTORE PUSH1 0x20 PUSH1 0x0 KECCAK256 SWAP1 JUMPDEST DUP2 SLOAD DUP2 MSTORE SWAP1 PUSH1 0x1 ADD SWAP1 PUSH1 0x20 ADD DUP1 DUP4 GT PUSH2 0x9E8 JUMPI DUP3 SWAP1 SUB PUSH1 0x1F AND DUP3 ADD SWAP2 JUMPDEST POP POP POP POP POP DUP2 MSTORE PUSH1 0x20 ADD PUSH1 0x2 DUP3 ADD DUP1 SLOAD PUSH2 0xA1E SWAP1 PUSH2 0x1480 JUMP JUMPDEST DUP1 PUSH1 0x1F ADD PUSH1 0x20 DUP1 SWAP2 DIV MUL PUSH1 0x20 ADD PUSH1 0x40 MLOAD SWAP1 DUP2 ADD PUSH1 0x40 MSTORE DUP1 SWAP3 SWAP2 SWAP1 DUP2 DUP2 MSTORE PUSH1 0x20 ADD DUP3 DUP1 SLOAD PUSH2 0xA4A SWAP1 PUSH2 0x1480 JUMP JUMPDEST DUP1 ISZERO PUSH2 0xA97 JUMPI DUP1 PUSH1 0x1F LT PUSH2 0xA6C JUMPI PUSH2 0x100 DUP1 DUP4 SLOAD DIV MUL DUP4 MSTORE SWAP2 PUSH1 0x20 ADD SWAP2 PUSH2 0xA97 JUMP JUMPDEST DUP3 ADD SWAP2 SWAP1 PUSH1 0x0 MSTORE PUSH1 0x20 PUSH1 0x0 KECCAK256 SWAP1 JUMPDEST DUP2 SLOAD DUP2 MSTORE SWAP1 PUSH1 0x1 ADD SWAP1 PUSH1 0x20 ADD DUP1 DUP4 GT PUSH2 0xA7A JUMPI DUP3 SWAP1 SUB PUSH1 0x1F AND DUP3 ADD SWAP2 JUMPDEST POP POP POP POP POP DUP2 MSTORE PUSH1 0x20 ADD PUSH1 0x3 DUP3 ADD SLOAD DUP2 MSTORE POP POP SWAP1 POP DUP1 PUSH1 0x0 ADD MLOAD DUP2 PUSH1 0x20 ADD MLOAD DUP3 PUSH1 0x40 ADD MLOAD DUP4 PUSH1 0x60 ADD MLOAD DUP6 SWAP10 POP SWAP10 POP SWAP10 POP SWAP10 POP SWAP10 POP POP POP POP POP POP SWAP1 SWAP2 SWAP3 SWAP4 SWAP5 JUMP JUMPDEST PUSH1 0x3 SLOAD DUP2 JUMP JUMPDEST PUSH1 0x5 PUSH1 0x0 SWAP1 SLOAD SWAP1 PUSH2 0x100 EXP SWAP1 DIV PUSH20 0xFFFFFFFFFFFFFFFFFFFFFFFFFFFFFFFFFFFFFFFF AND DUP2 JUMP JUMPDEST PUSH1 0x1 PUSH1 0x20 MSTORE DUP1 PUSH1 0x0 MSTORE PUSH1 0x40 PUSH1 0x0 KECCAK256 PUSH1 0x0 SWAP2 POP SLOAD SWAP1 PUSH2 0x100 EXP SWAP1 DIV PUSH1 0xFF AND DUP2 JUMP JUMPDEST PUSH1 0x0 PUSH1 0x1 PUSH1 0x0 CALLER PUSH20 0xFFFFFFFFFFFFFFFFFFFFFFFFFFFFFFFFFFFFFFFF AND PUSH20 0xFFFFFFFFFFFFFFFFFFFFFFFFFFFFFFFFFFFFFFFF AND DUP2 MSTORE PUSH1 0x20 ADD SWAP1 DUP2 MSTORE PUSH1 0x20 ADD PUSH1 0x0 KECCAK256 PUSH1 0x0 SWAP1 SLOAD SWAP1 PUSH2 0x100 EXP SWAP1 DIV PUSH1 0xFF AND SWAP1 POP SWAP1 JUMP JUMPDEST PUSH1 0x2 SLOAD DUP2 JUMP JUMPDEST PUSH1 0x5 PUSH1 0x0 SWAP1 SLOAD SWAP1 PUSH2 0x100 EXP SWAP1 DIV PUSH20 0xFFFFFFFFFFFFFFFFFFFFFFFFFFFFFFFFFFFFFFFF AND PUSH20 0xFFFFFFFFFFFFFFFFFFFFFFFFFFFFFFFFFFFFFFFF AND CALLER PUSH20 0xFFFFFFFFFFFFFFFFFFFFFFFFFFFFFFFFFFFFFFFF AND EQ PUSH2 0xC0D JUMPI PUSH1 0x40 MLOAD PUSH32 0x8C379A000000000000000000000000000000000000000000000000000000000 DUP2 MSTORE PUSH1 0x4 ADD PUSH2 0xC04 SWAP1 PUSH2 0x1431 JUMP JUMPDEST PUSH1 0x40 MLOAD DUP1 SWAP2 SUB SWAP1 REVERT JUMPDEST PUSH1 0x0 PUSH1 0x3 SLOAD EQ DUP1 ISZERO PUSH2 0xC21 JUMPI POP PUSH1 0x0 PUSH1 0x4 SLOAD EQ JUMPDEST PUSH2 0xC60 JUMPI PUSH1 0x40 MLOAD PUSH32 0x8C379A000000000000000000000000000000000000000000000000000000000 DUP2 MSTORE PUSH1 0x4 ADD PUSH2 0xC57 SWAP1 PUSH2 0x18BD JUMP JUMPDEST PUSH1 0x40 MLOAD DUP1 SWAP2 SUB SWAP1 REVERT JUMPDEST TIMESTAMP DUP3 LT ISZERO DUP1 ISZERO PUSH2 0xC6F JUMPI POP DUP2 DUP2 GT JUMPDEST PUSH2 0xCAE JUMPI PUSH1 0x40 MLOAD PUSH32 0x8C379A000000000000000000000000000000000000000000000000000000000 DUP2 MSTORE PUSH1 0x4 ADD PUSH2 0xCA5 SWAP1 PUSH2 0x1929 JUMP JUMPDEST PUSH1 0x40 MLOAD DUP1 SWAP2 SUB SWAP1 REVERT JUMPDEST DUP2 PUSH1 0x4 DUP2 SWAP1 SSTORE POP DUP1 PUSH1 0x3 DUP2 SWAP1 SSTORE POP POP POP JUMP JUMPDEST PUSH1 0x0 PUSH1 0x40 MLOAD SWAP1 POP SWAP1 JUMP JUMPDEST PUSH1 0x0 DUP1 REVERT JUMPDEST PUSH1 0x0 DUP1 REVERT JUMPDEST PUSH1 0x0 DUP2 SWAP1 POP SWAP2 SWAP1 POP JUMP JUMPDEST PUSH2 0xCE7 DUP2 PUSH2 0xCD4 JUMP JUMPDEST DUP2 EQ PUSH2 0xCF2 JUMPI PUSH1 0x0 DUP1 REVERT JUMPDEST POP JUMP JUMPDEST PUSH1 0x0 DUP2 CALLDATALOAD SWAP1 POP PUSH2 0xD04 DUP2 PUSH2 0xCDE JUMP JUMPDEST SWAP3 SWAP2 POP POP JUMP JUMPDEST PUSH1 0x0 PUSH1 0x20 DUP3 DUP5 SUB SLT ISZERO PUSH2 0xD20 JUMPI PUSH2 0xD1F PUSH2 0xCCA JUMP JUMPDEST JUMPDEST PUSH1 0x0 PUSH2 0xD2E DUP5 DUP3 DUP6 ADD PUSH2 0xCF5 JUMP JUMPDEST SWAP2 POP POP SWAP3 SWAP2 POP POP JUMP JUMPDEST PUSH2 0xD40 DUP2 PUSH2 0xCD4 JUMP JUMPDEST DUP3 MSTORE POP POP JUMP JUMPDEST PUSH1 0x0 PUSH1 0x20 DUP3 ADD SWAP1 POP PUSH2 0xD5B PUSH1 0x0 DUP4 ADD DUP5 PUSH2 0xD37 JUMP JUMPDEST SWAP3 SWAP2 POP POP JUMP JUMPDEST PUSH1 0x0 PUSH1 0x40 DUP3 ADD SWAP1 POP PUSH2 0xD76 PUSH1 0x0 DUP4 ADD DUP6 PUSH2 0xD37 JUMP JUMPDEST PUSH2 0xD83 PUSH1 0x20 DUP4 ADD DUP5 PUSH2 0xD37 JUMP JUMPDEST SWAP4 SWAP3 POP POP POP JUMP JUMPDEST PUSH1 0x0 DUP1 REVERT JUMPDEST PUSH1 0x0 DUP1 REVERT JUMPDEST PUSH1 0x0 PUSH1 0x1F NOT PUSH1 0x1F DUP4 ADD AND SWAP1 POP SWAP2 SWAP1 POP JUMP JUMPDEST PUSH32 0x4E487B7100000000000000000000000000000000000000000000000000000000 PUSH1 0x0 MSTORE PUSH1 0x41 PUSH1 0x4 MSTORE PUSH1 0x24 PUSH1 0x0 REVERT JUMPDEST PUSH2 0xDDD DUP3 PUSH2 0xD94 JUMP JUMPDEST DUP2 ADD DUP2 DUP2 LT PUSH8 0xFFFFFFFFFFFFFFFF DUP3 GT OR ISZERO PUSH2 0xDFC JUMPI PUSH2 0xDFB PUSH2 0xDA5 JUMP JUMPDEST JUMPDEST DUP1 PUSH1 0x40 MSTORE POP POP POP JUMP JUMPDEST PUSH1 0x0 PUSH2 0xE0F PUSH2 0xCC0 JUMP JUMPDEST SWAP1 POP PUSH2 0xE1B DUP3 DUP3 PUSH2 0xDD4 JUMP JUMPDEST SWAP2 SWAP1 POP JUMP JUMPDEST PUSH1 0x0 PUSH8 0xFFFFFFFFFFFFFFFF DUP3 GT ISZERO PUSH2 0xE3B JUMPI PUSH2 0xE3A PUSH2 0xDA5 JUMP JUMPDEST JUMPDEST PUSH2 0xE44 DUP3 PUSH2 0xD94 JUMP JUMPDEST SWAP1 POP PUSH1 0x20 DUP2 ADD SWAP1 POP SWAP2 SWAP1 POP JUMP JUMPDEST DUP3 DUP2 DUP4 CALLDATACOPY PUSH1 0x0 DUP4 DUP4 ADD MSTORE POP POP POP JUMP JUMPDEST PUSH1 0x0 PUSH2 0xE73 PUSH2 0xE6E DUP5 PUSH2 0xE20 JUMP JUMPDEST PUSH2 0xE05 JUMP JUMPDEST SWAP1 POP DUP3 DUP2 MSTORE PUSH1 0x20 DUP2 ADD DUP5 DUP5 DUP5 ADD GT ISZERO PUSH2 0xE8F JUMPI PUSH2 0xE8E PUSH2 0xD8F JUMP JUMPDEST JUMPDEST PUSH2 0xE9A DUP5 DUP3 DUP6 PUSH2 0xE51 JUMP JUMPDEST POP SWAP4 SWAP3 POP POP POP JUMP JUMPDEST PUSH1 0x0 DUP3 PUSH1 0x1F DUP4 ADD SLT PUSH2 0xEB7 JUMPI PUSH2 0xEB6 PUSH2 0xD8A JUMP JUMPDEST JUMPDEST DUP2 CALLDATALOAD PUSH2 0xEC7 DUP5 DUP3 PUSH1 0x20 DUP7 ADD PUSH2 0xE60 JUMP JUMPDEST SWAP2 POP POP SWAP3 SWAP2 POP POP JUMP JUMPDEST PUSH1 0x0 DUP1 PUSH1 0x40 DUP4 DUP6 SUB SLT ISZERO PUSH2 0xEE7 JUMPI PUSH2 0xEE6 PUSH2 0xCCA JUMP JUMPDEST JUMPDEST PUSH1 0x0 DUP4 ADD CALLDATALOAD PUSH8 0xFFFFFFFFFFFFFFFF DUP2 GT ISZERO PUSH2 0xF05 JUMPI PUSH2 0xF04 PUSH2 0xCCF JUMP JUMPDEST JUMPDEST PUSH2 0xF11 DUP6 DUP3 DUP7 ADD PUSH2 0xEA2 JUMP JUMPDEST SWAP3 POP POP PUSH1 0x20 DUP4 ADD CALLDATALOAD PUSH8 0xFFFFFFFFFFFFFFFF DUP2 GT ISZERO PUSH2 0xF32 JUMPI PUSH2 0xF31 PUSH2 0xCCF JUMP JUMPDEST JUMPDEST PUSH2 0xF3E DUP6 DUP3 DUP7 ADD PUSH2 0xEA2 JUMP JUMPDEST SWAP2 POP POP SWAP3 POP SWAP3 SWAP1 POP JUMP JUMPDEST PUSH1 0x0 DUP2 MLOAD SWAP1 POP SWAP2 SWAP1 POP JUMP JUMPDEST PUSH1 0x0 DUP3 DUP3 MSTORE PUSH1 0x20 DUP3 ADD SWAP1 POP SWAP3 SWAP2 POP POP JUMP JUMPDEST PUSH1 0x0 JUMPDEST DUP4 DUP2 LT ISZERO PUSH2 0xF82 JUMPI DUP1 DUP3 ADD MLOAD DUP2 DUP5 ADD MSTORE PUSH1 0x20 DUP2 ADD SWAP1 POP PUSH2 0xF67 JUMP JUMPDEST PUSH1 0x0 DUP5 DUP5 ADD MSTORE POP POP POP POP JUMP JUMPDEST PUSH1 0x0 PUSH2 0xF99 DUP3 PUSH2 0xF48 JUMP JUMPDEST PUSH2 0xFA3 DUP2 DUP6 PUSH2 0xF53 JUMP JUMPDEST SWAP4 POP PUSH2 0xFB3 DUP2 DUP6 PUSH1 0x20 DUP7 ADD PUSH2 0xF64 JUMP JUMPDEST PUSH2 0xFBC DUP2 PUSH2 0xD94 JUMP JUMPDEST DUP5 ADD SWAP2 POP POP SWAP3 SWAP2 POP POP JUMP JUMPDEST PUSH1 0x0 PUSH1 0x60 DUP3 ADD SWAP1 POP PUSH2 0xFDC PUSH1 0x0 DUP4 ADD DUP7 PUSH2 0xD37 JUMP JUMPDEST DUP2 DUP2 SUB PUSH1 0x20 DUP4 ADD MSTORE PUSH2 0xFEE DUP2 DUP6 PUSH2 0xF8E JUMP JUMPDEST SWAP1 POP DUP2 DUP2 SUB PUSH1 0x40 DUP4 ADD MSTORE PUSH2 0x1002 DUP2 DUP5 PUSH2 0xF8E JUMP JUMPDEST SWAP1 POP SWAP5 SWAP4 POP POP POP POP JUMP JUMPDEST PUSH1 0x0 PUSH1 0xA0 DUP3 ADD SWAP1 POP PUSH2 0x1021 PUSH1 0x0 DUP4 ADD DUP9 PUSH2 0xD37 JUMP JUMPDEST DUP2 DUP2 SUB PUSH1 0x20 DUP4 ADD MSTORE PUSH2 0x1033 DUP2 DUP8 PUSH2 0xF8E JUMP JUMPDEST SWAP1 POP DUP2 DUP2 SUB PUSH1 0x40 DUP4 ADD MSTORE PUSH2 0x1047 DUP2 DUP7 PUSH2 0xF8E JUMP JUMPDEST SWAP1 POP PUSH2 0x1056 PUSH1 0x60 DUP4 ADD DUP6 PUSH2 0xD37 JUMP JUMPDEST PUSH2 0x1063 PUSH1 0x80 DUP4 ADD DUP5 PUSH2 0xD37 JUMP JUMPDEST SWAP7 SWAP6 POP POP POP POP POP POP JUMP JUMPDEST PUSH1 0x0 PUSH20 0xFFFFFFFFFFFFFFFFFFFFFFFFFFFFFFFFFFFFFFFF DUP3 AND SWAP1 POP SWAP2 SWAP1 POP JUMP JUMPDEST PUSH1 0x0 PUSH2 0x1098 DUP3 PUSH2 0x106D JUMP JUMPDEST SWAP1 POP SWAP2 SWAP1 POP JUMP JUMPDEST PUSH2 0x10A8 DUP2 PUSH2 0x108D JUMP JUMPDEST DUP3 MSTORE POP POP JUMP JUMPDEST PUSH1 0x0 PUSH1 0x20 DUP3 ADD SWAP1 POP PUSH2 0x10C3 PUSH1 0x0 DUP4 ADD DUP5 PUSH2 0x109F JUMP JUMPDEST SWAP3 SWAP2 POP POP JUMP JUMPDEST PUSH2 0x10D2 DUP2 PUSH2 0x108D JUMP JUMPDEST DUP2 EQ PUSH2 0x10DD JUMPI PUSH1 0x0 DUP1 REVERT JUMPDEST POP JUMP JUMPDEST PUSH1 0x0 DUP2 CALLDATALOAD SWAP1 POP PUSH2 0x10EF DUP2 PUSH2 0x10C9 JUMP JUMPDEST SWAP3 SWAP2 POP POP JUMP JUMPDEST PUSH1 0x0 PUSH1 0x20 DUP3 DUP5 SUB SLT ISZERO PUSH2 0x110B JUMPI PUSH2 0x110A PUSH2 0xCCA JUMP JUMPDEST JUMPDEST PUSH1 0x0 PUSH2 0x1119 DUP5 DUP3 DUP6 ADD PUSH2 0x10E0 JUMP JUMPDEST SWAP2 POP POP SWAP3 SWAP2 POP POP JUMP JUMPDEST PUSH1 0x0 DUP2 ISZERO ISZERO SWAP1 POP SWAP2 SWAP1 POP JUMP JUMPDEST PUSH2 0x1137 DUP2 PUSH2 0x1122 JUMP JUMPDEST DUP3 MSTORE POP POP JUMP JUMPDEST PUSH1 0x0 PUSH1 0x20 DUP3 ADD SWAP1 POP PUSH2 0x1152 PUSH1 0x0 DUP4 ADD DUP5 PUSH2 0x112E JUMP JUMPDEST SWAP3 SWAP2 POP POP JUMP JUMPDEST PUSH1 0x0 DUP1 PUSH1 0x40 DUP4 DUP6 SUB SLT ISZERO PUSH2 0x116F JUMPI PUSH2 0x116E PUSH2 0xCCA JUMP JUMPDEST JUMPDEST PUSH1 0x0 PUSH2 0x117D DUP6 DUP3 DUP7 ADD PUSH2 0xCF5 JUMP JUMPDEST SWAP3 POP POP PUSH1 0x20 PUSH2 0x118E DUP6 DUP3 DUP7 ADD PUSH2 0xCF5 JUMP JUMPDEST SWAP2 POP POP SWAP3 POP SWAP3 SWAP1 POP JUMP JUMPDEST PUSH32 0x4F776E6572206973206E6F7420616C6C6F77656420746F20766F746500000000 PUSH1 0x0 DUP3 ADD MSTORE POP JUMP JUMPDEST PUSH1 0x0 PUSH2 0x11CE PUSH1 0x1C DUP4 PUSH2 0xF53 JUMP JUMPDEST SWAP2 POP PUSH2 0x11D9 DUP3 PUSH2 0x1198 JUMP JUMPDEST PUSH1 0x20 DUP3 ADD SWAP1 POP SWAP2 SWAP1 POP JUMP JUMPDEST PUSH1 0x0 PUSH1 0x20 DUP3 ADD SWAP1 POP DUP2 DUP2 SUB PUSH1 0x0 DUP4 ADD MSTORE PUSH2 0x11FD DUP2 PUSH2 0x11C1 JUMP JUMPDEST SWAP1 POP SWAP2 SWAP1 POP JUMP JUMPDEST PUSH32 0x566F74696E67206973206E6F7420616374697665000000000000000000000000 PUSH1 0x0 DUP3 ADD MSTORE POP JUMP JUMPDEST PUSH1 0x0 PUSH2 0x123A PUSH1 0x14 DUP4 PUSH2 0xF53 JUMP JUMPDEST SWAP2 POP PUSH2 0x1245 DUP3 PUSH2 0x1204 JUMP JUMPDEST PUSH1 0x20 DUP3 ADD SWAP1 POP SWAP2 SWAP1 POP JUMP JUMPDEST PUSH1 0x0 PUSH1 0x20 DUP3 ADD SWAP1 POP DUP2 DUP2 SUB PUSH1 0x0 DUP4 ADD MSTORE PUSH2 0x1269 DUP2 PUSH2 0x122D JUMP JUMPDEST SWAP1 POP SWAP2 SWAP1 POP JUMP JUMPDEST PUSH32 0x496E76616C69642063616E646964617465204944000000000000000000000000 PUSH1 0x0 DUP3 ADD MSTORE POP JUMP JUMPDEST PUSH1 0x0 PUSH2 0x12A6 PUSH1 0x14 DUP4 PUSH2 0xF53 JUMP JUMPDEST SWAP2 POP PUSH2 0x12B1 DUP3 PUSH2 0x1270 JUMP JUMPDEST PUSH1 0x20 DUP3 ADD SWAP1 POP SWAP2 SWAP1 POP JUMP JUMPDEST PUSH1 0x0 PUSH1 0x20 DUP3 ADD SWAP1 POP DUP2 DUP2 SUB PUSH1 0x0 DUP4 ADD MSTORE PUSH2 0x12D5 DUP2 PUSH2 0x1299 JUMP JUMPDEST SWAP1 POP SWAP2 SWAP1 POP JUMP JUMPDEST PUSH32 0x596F75206861766520616C726561647920766F74656400000000000000000000 PUSH1 0x0 DUP3 ADD MSTORE POP JUMP JUMPDEST PUSH1 0x0 PUSH2 0x1312 PUSH1 0x16 DUP4 PUSH2 0xF53 JUMP JUMPDEST SWAP2 POP PUSH2 0x131D DUP3 PUSH2 0x12DC JUMP JUMPDEST PUSH1 0x20 DUP3 ADD SWAP1 POP SWAP2 SWAP1 POP JUMP JUMPDEST PUSH1 0x0 PUSH1 0x20 DUP3 ADD SWAP1 POP DUP2 DUP2 SUB PUSH1 0x0 DUP4 ADD MSTORE PUSH2 0x1341 DUP2 PUSH2 0x1305 JUMP JUMPDEST SWAP1 POP SWAP2 SWAP1 POP JUMP JUMPDEST PUSH32 0x4E487B7100000000000000000000000000000000000000000000000000000000 PUSH1 0x0 MSTORE PUSH1 0x11 PUSH1 0x4 MSTORE PUSH1 0x24 PUSH1 0x0 REVERT JUMPDEST PUSH1 0x0 PUSH2 0x1382 DUP3 PUSH2 0xCD4 JUMP JUMPDEST SWAP2 POP PUSH32 0xFFFFFFFFFFFFFFFFFFFFFFFFFFFFFFFFFFFFFFFFFFFFFFFFFFFFFFFFFFFFFFFF DUP3 SUB PUSH2 0x13B4 JUMPI PUSH2 0x13B3 PUSH2 0x1348 JUMP JUMPDEST JUMPDEST PUSH1 0x1 DUP3 ADD SWAP1 POP SWAP2 SWAP1 POP JUMP JUMPDEST PUSH32 0x4F6E6C79206F776E65722063616E20706572666F726D20746869732061637469 PUSH1 0x0 DUP3 ADD MSTORE PUSH32 0x6F6E000000000000000000000000000000000000000000000000000000000000 PUSH1 0x20 DUP3 ADD MSTORE POP JUMP JUMPDEST PUSH1 0x0 PUSH2 0x141B PUSH1 0x22 DUP4 PUSH2 0xF53 JUMP JUMPDEST SWAP2 POP PUSH2 0x1426 DUP3 PUSH2 0x13BF JUMP JUMPDEST PUSH1 0x40 DUP3 ADD SWAP1 POP SWAP2 SWAP1 POP JUMP JUMPDEST PUSH1 0x0 PUSH1 0x20 DUP3 ADD SWAP1 POP DUP2 DUP2 SUB PUSH1 0x0 DUP4 ADD MSTORE PUSH2 0x144A DUP2 PUSH2 0x140E JUMP JUMPDEST SWAP1 POP SWAP2 SWAP1 POP JUMP JUMPDEST PUSH32 0x4E487B7100000000000000000000000000000000000000000000000000000000 PUSH1 0x0 MSTORE PUSH1 0x22 PUSH1 0x4 MSTORE PUSH1 0x24 PUSH1 0x0 REVERT JUMPDEST PUSH1 0x0 PUSH1 0x2 DUP3 DIV SWAP1 POP PUSH1 0x1 DUP3 AND DUP1 PUSH2 0x1498 JUMPI PUSH1 0x7F DUP3 AND SWAP2 POP JUMPDEST PUSH1 0x20 DUP3 LT DUP2 SUB PUSH2 0x14AB JUMPI PUSH2 0x14AA PUSH2 0x1451 JUMP JUMPDEST JUMPDEST POP SWAP2 SWAP1 POP JUMP JUMPDEST PUSH1 0x0 DUP2 SWAP1 POP DUP2 PUSH1 0x0 MSTORE PUSH1 0x20 PUSH1 0x0 KECCAK256 SWAP1 POP SWAP2 SWAP1 POP JUMP JUMPDEST PUSH1 0x0 PUSH1 0x20 PUSH1 0x1F DUP4 ADD DIV SWAP1 POP SWAP2 SWAP1 POP JUMP JUMPDEST PUSH1 0x0 DUP3 DUP3 SHL SWAP1 POP SWAP3 SWAP2 POP POP JUMP JUMPDEST PUSH1 0x0 PUSH1 0x8 DUP4 MUL PUSH2 0x1513 PUSH32 0xFFFFFFFFFFFFFFFFFFFFFFFFFFFFFFFFFFFFFFFFFFFFFFFFFFFFFFFFFFFFFFFF DUP3 PUSH2 0x14D6 JUMP JUMPDEST PUSH2 0x151D DUP7 DUP4 PUSH2 0x14D6 JUMP JUMPDEST SWAP6 POP DUP1 NOT DUP5 AND SWAP4 POP DUP1 DUP7 AND DUP5 OR SWAP3 POP POP POP SWAP4 SWAP3 POP POP POP JUMP JUMPDEST PUSH1 0x0 DUP2 SWAP1 POP SWAP2 SWAP1 POP JUMP JUMPDEST PUSH1 0x0 PUSH2 0x155A PUSH2 0x1555 PUSH2 0x1550 DUP5 PUSH2 0xCD4 JUMP JUMPDEST PUSH2 0x1535 JUMP JUMPDEST PUSH2 0xCD4 JUMP JUMPDEST SWAP1 POP SWAP2 SWAP1 POP JUMP JUMPDEST PUSH1 0x0 DUP2 SWAP1 POP SWAP2 SWAP1 POP JUMP JUMPDEST PUSH2 0x1574 DUP4 PUSH2 0x153F JUMP JUMPDEST PUSH2 0x1588 PUSH2 0x1580 DUP3 PUSH2 0x1561 JUMP JUMPDEST DUP5 DUP5 SLOAD PUSH2 0x14E3 JUMP JUMPDEST DUP3 SSTORE POP POP POP POP JUMP JUMPDEST PUSH1 0x0 SWAP1 JUMP JUMPDEST PUSH2 0x159D PUSH2 0x1590 JUMP JUMPDEST PUSH2 0x15A8 DUP2 DUP5 DUP5 PUSH2 0x156B JUMP JUMPDEST POP POP POP JUMP JUMPDEST JUMPDEST DUP2 DUP2 LT ISZERO PUSH2 0x15CC JUMPI PUSH2 0x15C1 PUSH1 0x0 DUP3 PUSH2 0x1595 JUMP JUMPDEST PUSH1 0x1 DUP2 ADD SWAP1 POP PUSH2 0x15AE JUMP JUMPDEST POP POP JUMP JUMPDEST PUSH1 0x1F DUP3 GT ISZERO PUSH2 0x1611 JUMPI PUSH2 0x15E2 DUP2 PUSH2 0x14B1 JUMP JUMPDEST PUSH2 0x15EB DUP5 PUSH2 0x14C6 JUMP JUMPDEST DUP2 ADD PUSH1 0x20 DUP6 LT ISZERO PUSH2 0x15FA JUMPI DUP2 SWAP1 POP JUMPDEST PUSH2 0x160E PUSH2 0x1606 DUP6 PUSH2 0x14C6 JUMP JUMPDEST DUP4 ADD DUP3 PUSH2 0x15AD JUMP JUMPDEST POP POP JUMPDEST POP POP POP JUMP JUMPDEST PUSH1 0x0 DUP3 DUP3 SHR SWAP1 POP SWAP3 SWAP2 POP POP JUMP JUMPDEST PUSH1 0x0 PUSH2 0x1634 PUSH1 0x0 NOT DUP5 PUSH1 0x8 MUL PUSH2 0x1616 JUMP JUMPDEST NOT DUP1 DUP4 AND SWAP2 POP POP SWAP3 SWAP2 POP POP JUMP JUMPDEST PUSH1 0x0 PUSH2 0x164D DUP4 DUP4 PUSH2 0x1623 JUMP JUMPDEST SWAP2 POP DUP3 PUSH1 0x2 MUL DUP3 OR SWAP1 POP SWAP3 SWAP2 POP POP JUMP JUMPDEST PUSH2 0x1666 DUP3 PUSH2 0xF48 JUMP JUMPDEST PUSH8 0xFFFFFFFFFFFFFFFF DUP2 GT ISZERO PUSH2 0x167F JUMPI PUSH2 0x167E PUSH2 0xDA5 JUMP JUMPDEST JUMPDEST PUSH2 0x1689 DUP3 SLOAD PUSH2 0x1480 JUMP JUMPDEST PUSH2 0x1694 DUP3 DUP3 DUP6 PUSH2 0x15D0 JUMP JUMPDEST PUSH1 0x0 PUSH1 0x20 SWAP1 POP PUSH1 0x1F DUP4 GT PUSH1 0x1 DUP2 EQ PUSH2 0x16C7 JUMPI PUSH1 0x0 DUP5 ISZERO PUSH2 0x16B5 JUMPI DUP3 DUP8 ADD MLOAD SWAP1 POP JUMPDEST PUSH2 0x16BF DUP6 DUP3 PUSH2 0x1641 JUMP JUMPDEST DUP7 SSTORE POP PUSH2 0x1727 JUMP JUMPDEST PUSH1 0x1F NOT DUP5 AND PUSH2 0x16D5 DUP7 PUSH2 0x14B1 JUMP JUMPDEST PUSH1 0x0 JUMPDEST DUP3 DUP2 LT ISZERO PUSH2 0x16FD JUMPI DUP5 DUP10 ADD MLOAD DUP3 SSTORE PUSH1 0x1 DUP3 ADD SWAP2 POP PUSH1 0x20 DUP6 ADD SWAP5 POP PUSH1 0x20 DUP2 ADD SWAP1 POP PUSH2 0x16D8 JUMP JUMPDEST DUP7 DUP4 LT ISZERO PUSH2 0x171A JUMPI DUP5 DUP10 ADD MLOAD PUSH2 0x1716 PUSH1 0x1F DUP10 AND DUP3 PUSH2 0x1623 JUMP JUMPDEST DUP4 SSTORE POP JUMPDEST PUSH1 0x1 PUSH1 0x2 DUP9 MUL ADD DUP9 SSTORE POP POP POP JUMPDEST POP POP POP POP POP POP JUMP JUMPDEST PUSH1 0x0 PUSH2 0x173A DUP3 PUSH2 0xCD4 JUMP JUMPDEST SWAP2 POP PUSH2 0x1745 DUP4 PUSH2 0xCD4 JUMP JUMPDEST SWAP3 POP DUP3 DUP3 ADD SWAP1 POP DUP1 DUP3 GT ISZERO PUSH2 0x175D JUMPI PUSH2 0x175C PUSH2 0x1348 JUMP JUMPDEST JUMPDEST SWAP3 SWAP2 POP POP JUMP JUMPDEST PUSH32 0x4E6F20766F746573206361737420796574000000000000000000000000000000 PUSH1 0x0 DUP3 ADD MSTORE POP JUMP JUMPDEST PUSH1 0x0 PUSH2 0x1799 PUSH1 0x11 DUP4 PUSH2 0xF53 JUMP JUMPDEST SWAP2 POP PUSH2 0x17A4 DUP3 PUSH2 0x1763 JUMP JUMPDEST PUSH1 0x20 DUP3 ADD SWAP1 POP SWAP2 SWAP1 POP JUMP JUMPDEST PUSH1 0x0 PUSH1 0x20 DUP3 ADD SWAP1 POP DUP2 DUP2 SUB PUSH1 0x0 DUP4 ADD MSTORE PUSH2 0x17C8 DUP2 PUSH2 0x178C JUMP JUMPDEST SWAP1 POP SWAP2 SWAP1 POP JUMP JUMPDEST PUSH1 0x0 PUSH2 0x17DA DUP3 PUSH2 0xCD4 JUMP JUMPDEST SWAP2 POP PUSH2 0x17E5 DUP4 PUSH2 0xCD4 JUMP JUMPDEST SWAP3 POP DUP3 DUP3 MUL PUSH2 0x17F3 DUP2 PUSH2 0xCD4 JUMP JUMPDEST SWAP2 POP DUP3 DUP3 DIV DUP5 EQ DUP4 ISZERO OR PUSH2 0x180A JUMPI PUSH2 0x1809 PUSH2 0x1348 JUMP JUMPDEST JUMPDEST POP SWAP3 SWAP2 POP POP JUMP JUMPDEST PUSH32 0x4E487B7100000000000000000000000000000000000000000000000000000000 PUSH1 0x0 MSTORE PUSH1 0x12 PUSH1 0x4 MSTORE PUSH1 0x24 PUSH1 0x0 REVERT JUMPDEST PUSH1 0x0 PUSH2 0x184B DUP3 PUSH2 0xCD4 JUMP JUMPDEST SWAP2 POP PUSH2 0x1856 DUP4 PUSH2 0xCD4 JUMP JUMPDEST SWAP3 POP DUP3 PUSH2 0x1866 JUMPI PUSH2 0x1865 PUSH2 0x1811 JUMP JUMPDEST JUMPDEST DUP3 DUP3 DIV SWAP1 POP SWAP3 SWAP2 POP POP JUMP JUMPDEST PUSH32 0x446174657320616C726561647920736574000000000000000000000000000000 PUSH1 0x0 DUP3 ADD MSTORE POP JUMP JUMPDEST PUSH1 0x0 PUSH2 0x18A7 PUSH1 0x11 DUP4 PUSH2 0xF53 JUMP JUMPDEST SWAP2 POP PUSH2 0x18B2 DUP3 PUSH2 0x1871 JUMP JUMPDEST PUSH1 0x20 DUP3 ADD SWAP1 POP SWAP2 SWAP1 POP JUMP JUMPDEST PUSH1 0x0 PUSH1 0x20 DUP3 ADD SWAP1 POP DUP2 DUP2 SUB PUSH1 0x0 DUP4 ADD MSTORE PUSH2 0x18D6 DUP2 PUSH2 0x189A JUMP JUMPDEST SWAP1 POP SWAP2 SWAP1 POP JUMP JUMPDEST PUSH32 0x496E76616C696420646174652073657474696E67730000000000000000000000 PUSH1 0x0 DUP3 ADD MSTORE POP JUMP JUMPDEST PUSH1 0x0 PUSH2 0x1913 PUSH1 0x15 DUP4 PUSH2 0xF53 JUMP JUMPDEST SWAP2 POP PUSH2 0x191E DUP3 PUSH2 0x18DD JUMP JUMPDEST PUSH1 0x20 DUP3 ADD SWAP1 POP SWAP2 SWAP1 POP JUMP JUMPDEST PUSH1 0x0 PUSH1 0x20 DUP3 ADD SWAP1 POP DUP2 DUP2 SUB PUSH1 0x0 DUP4 ADD MSTORE PUSH2 0x1942 DUP2 PUSH2 0x1906 JUMP JUMPDEST SWAP1 POP SWAP2 SWAP1 POP JUMP INVALID LOG2 PUSH5 0x6970667358 0x22 SLT KECCAK256 SWAP16 0xA9 CODECOPY LOG0 DUP10 0xDF COINBASE 0xBA 0xA6 0xD7 0xE9 0xAB GT 0xCB 0xAA POP 0xF PUSH27 0x683EA3F50ED964ED2C88411B86CA64736F6C634300081100330000 "
				},
				"gasEstimates": {
					"creation": {
						"codeDepositCost": "1305400",
						"executionCost": "25622",
						"totalCost": "1331022"
					},
					"external": {
						"addCandidate(string,string)": "infinite",
						"checkVote()": "2634",
						"countCandidates()": "2517",
						"getCandidate(uint256)": "infinite",
						"getDates()": "infinite",
						"getLeadingCandidate()": "infinite",
						"owner()": "2536",
						"setDates(uint256,uint256)": "infinite",
						"vote(uint256)": "infinite",
						"voters(address)": "2889",
						"votingEnd()": "2429",
						"votingStart()": "2452"
					}
				},
				"methodIdentifiers": {
					"addCandidate(string,string)": "26541b56",
					"checkVote()": "b0417e98",
					"countCandidates()": "b86eda91",
					"getCandidate(uint256)": "35b8e820",
					"getDates()": "16441813",
					"getLeadingCandidate()": "69d76ae2",
					"owner()": "8da5cb5b",
					"setDates(uint256,uint256)": "dedf141e",
					"vote(uint256)": "0121b93f",
					"voters(address)": "a3ec138d",
					"votingEnd()": "85a38635",
					"votingStart()": "101158af"
				}
			},
			"storageLayout": {
				"storage": [
					{
						"astId": 15,
						"contract": "contracts/Voting.sol:Voting",
						"label": "candidates",
						"offset": 0,
						"slot": "0",
						"type": "t_mapping(t_uint256,t_struct(Candidate)10_storage)"
					},
					{
						"astId": 19,
						"contract": "contracts/Voting.sol:Voting",
						"label": "voters",
						"offset": 0,
						"slot": "1",
						"type": "t_mapping(t_address,t_bool)"
					},
					{
						"astId": 21,
						"contract": "contracts/Voting.sol:Voting",
						"label": "countCandidates",
						"offset": 0,
						"slot": "2",
						"type": "t_uint256"
					},
					{
						"astId": 23,
						"contract": "contracts/Voting.sol:Voting",
						"label": "votingEnd",
						"offset": 0,
						"slot": "3",
						"type": "t_uint256"
					},
					{
						"astId": 25,
						"contract": "contracts/Voting.sol:Voting",
						"label": "votingStart",
						"offset": 0,
						"slot": "4",
						"type": "t_uint256"
					},
					{
						"astId": 27,
						"contract": "contracts/Voting.sol:Voting",
						"label": "owner",
						"offset": 0,
						"slot": "5",
						"type": "t_address"
					}
				],
				"types": {
					"t_address": {
						"encoding": "inplace",
						"label": "address",
						"numberOfBytes": "20"
					},
					"t_bool": {
						"encoding": "inplace",
						"label": "bool",
						"numberOfBytes": "1"
					},
					"t_mapping(t_address,t_bool)": {
						"encoding": "mapping",
						"key": "t_address",
						"label": "mapping(address => bool)",
						"numberOfBytes": "32",
						"value": "t_bool"
					},
					"t_mapping(t_uint256,t_struct(Candidate)10_storage)": {
						"encoding": "mapping",
						"key": "t_uint256",
						"label": "mapping(uint256 => struct Voting.Candidate)",
						"numberOfBytes": "32",
						"value": "t_struct(Candidate)10_storage"
					},
					"t_string_storage": {
						"encoding": "bytes",
						"label": "string",
						"numberOfBytes": "32"
					},
					"t_struct(Candidate)10_storage": {
						"encoding": "inplace",
						"label": "struct Voting.Candidate",
						"members": [
							{
								"astId": 3,
								"contract": "contracts/Voting.sol:Voting",
								"label": "id",
								"offset": 0,
								"slot": "0",
								"type": "t_uint256"
							},
							{
								"astId": 5,
								"contract": "contracts/Voting.sol:Voting",
								"label": "name",
								"offset": 0,
								"slot": "1",
								"type": "t_string_storage"
							},
							{
								"astId": 7,
								"contract": "contracts/Voting.sol:Voting",
								"label": "party",
								"offset": 0,
								"slot": "2",
								"type": "t_string_storage"
							},
							{
								"astId": 9,
								"contract": "contracts/Voting.sol:Voting",
								"label": "voteCount",
								"offset": 0,
								"slot": "3",
								"type": "t_uint256"
							}
						],
						"numberOfBytes": "128"
					},
					"t_uint256": {
						"encoding": "inplace",
						"label": "uint256",
						"numberOfBytes": "32"
					}
				}
			},
			"userdoc": {
				"kind": "user",
				"methods": {},
				"version": 1
			}
		}
	}
}