{
	"data": {
		"bytecode": {
			"linkReferences": {},
			"object": "608060405234801561001057600080fd5b5033600560006101000a81548173ffffffffffffffffffffffffffffffffffffffff021916908373ffffffffffffffffffffffffffffffffffffffff16021790555061197f806100616000396000f3fe608060405234801561001057600080fd5b50600436106100b45760003560e01c806385a386351161007157806385a38635146101965780638da5cb5b146101b4578063a3ec138d146101d2578063b0417e9814610202578063b86eda9114610220578063dedf141e1461023e576100b4565b80630121b93f146100b9578063101158af146100d557806316441813146100f357806326541b561461011257806335b8e8201461014257806369d76ae214610174575b600080fd5b6100d360048036038101906100ce9190610d0a565b61025a565b005b6100dd6104bc565b6040516100ea9190610d46565b60405180910390f35b6100fb6104c2565b604051610109929190610d61565b60405180910390f35b61012c60048036038101906101279190610ed0565b6104d3565b6040516101399190610d46565b60405180910390f35b61015c60048036038101906101579190610d0a565b610603565b60405161016b93929190610fc7565b60405180910390f35b61017c6107cf565b60405161018d95949392919061100c565b60405180910390f35b61019e610ad7565b6040516101ab9190610d46565b60405180910390f35b6101bc610add565b6040516101c991906110ae565b60405180910390f35b6101ec60048036038101906101e791906110f5565b610b03565b6040516101f9919061113d565b60405180910390f35b61020a610b23565b604051610217919061113d565b60405180910390f35b610228610b77565b6040516102359190610d46565b60405180910390f35b61025860048036038101906102539190611158565b610b7d565b005b600560009054906101000a900473ffffffffffffffffffffffffffffffffffffffff1673ffffffffffffffffffffffffffffffffffffffff163373ffffffffffffffffffffffffffffffffffffffff16036102ea576040517f08c379a00000000000000000000000000000000000000000000000000000000081526004016102e1906111e4565b60405180910390fd5b6000600454141580156103005750600060035414155b1561035957600454421015801561031957506003544211155b610358576040517f08c379a000000000000000000000000000000000000000000000000000000000815260040161034f90611250565b60405180910390fd5b5b60008111801561036b57506002548111155b6103aa576040517f08c379a00000000000000000000000000000000000000000000000000000000081526004016103a1906112bc565b60405180910390fd5b600160003373ffffffffffffffffffffffffffffffffffffffff1673ffffffffffffffffffffffffffffffffffffffff16815260200190815260200160002060009054906101000a900460ff1615610437576040517f08c379a000000000000000000000000000000000000000000000000000000000815260040161042e90611328565b60405180910390fd5b60018060003373ffffffffffffffffffffffffffffffffffffffff1673ffffffffffffffffffffffffffffffffffffffff16815260200190815260200160002060006101000a81548160ff02191690831515021790555060008082815260200190815260200160002060030160008154809291906104b490611377565b919050555050565b60045481565b600080600454600354915091509091565b6000600560009054906101000a900473ffffffffffffffffffffffffffffffffffffffff1673ffffffffffffffffffffffffffffffffffffffff163373ffffffffffffffffffffffffffffffffffffffff1614610565576040517f08c379a000000000000000000000000000000000000000000000000000000000815260040161055c90611431565b60405180910390fd5b6002600081548092919061057890611377565b919050555060405180608001604052806002548152602001848152602001838152602001600081525060008060025481526020019081526020016000206000820151816000015560208201518160010190816105d4919061165d565b5060408201518160020190816105ea919061165d565b5060608201518160030155905050600254905092915050565b600060608060008411801561061a57506002548411155b610659576040517f08c379a0000000000000000000000000000000000000000000000000000000008152600401610650906112bc565b60405180910390fd5b60008060008681526020019081526020016000206040518060800160405290816000820154815260200160018201805461069290611480565b80601f01602080910402602001604051908101604052809291908181526020018280546106be90611480565b801561070b5780601f106106e05761010080835404028352916020019161070b565b820191906000526020600020905b8154815290600101906020018083116106ee57829003601f168201915b5050505050815260200160028201805461072490611480565b80601f016020809104026020016040519081016040528092919081815260200182805461075090611480565b801561079d5780601f106107725761010080835404028352916020019161079d565b820191906000526020600020905b81548152906001019060200180831161078057829003601f168201915b505050505081526020016003820154815250509050806000015181602001518260400151935093509350509193909250565b6000606080600080600560009054906101000a900473ffffffffffffffffffffffffffffffffffffffff1673ffffffffffffffffffffffffffffffffffffffff163373ffffffffffffffffffffffffffffffffffffffff1614610867576040517f08c379a000000000000000000000000000000000000000000000000000000000815260040161085e90611431565b60405180910390fd5b600080600080600190505b60025481116108ea57600080828152602001908152602001600020600301548261089c919061172f565b9150836000808381526020019081526020016000206003015411156108d7576000808281526020019081526020016000206003015493508092505b80806108e290611377565b915050610872565b506000820361092e576040517f08c379a0000000000000000000000000000000000000000000000000000000008152600401610925906117af565b60405180910390fd5b600080821115610953578160648561094691906117cf565b6109509190611840565b90505b60008060008581526020019081526020016000206040518060800160405290816000820154815260200160018201805461098c90611480565b80601f01602080910402602001604051908101604052809291908181526020018280546109b890611480565b8015610a055780601f106109da57610100808354040283529160200191610a05565b820191906000526020600020905b8154815290600101906020018083116109e857829003601f168201915b50505050508152602001600282018054610a1e90611480565b80601f0160208091040260200160405190810160405280929190818152602001828054610a4a90611480565b8015610a975780601f10610a6c57610100808354040283529160200191610a97565b820191906000526020600020905b815481529060010190602001808311610a7a57829003601f168201915b5050505050815260200160038201548152505090508060000151816020015182604001518360600151859950995099509950995050505050509091929394565b60035481565b600560009054906101000a900473ffffffffffffffffffffffffffffffffffffffff1681565b60016020528060005260406000206000915054906101000a900460ff1681565b6000600160003373ffffffffffffffffffffffffffffffffffffffff1673ffffffffffffffffffffffffffffffffffffffff16815260200190815260200160002060009054906101000a900460ff16905090565b60025481565b600560009054906101000a900473ffffffffffffffffffffffffffffffffffffffff1673ffffffffffffffffffffffffffffffffffffffff163373ffffffffffffffffffffffffffffffffffffffff1614610c0d576040517f08c379a0000000000000000000000000000000000000000000000000000000008152600401610c0490611431565b60405180910390fd5b6000600354148015610c2157506000600454145b610c60576040517f08c379a0000000000000000000000000000000000000000000000000000000008152600401610c57906118bd565b60405180910390fd5b428210158015610c6f57508181115b610cae576040517f08c379a0000000000000000000000000000000000000000000000000000000008152600401610ca590611929565b60405180910390fd5b81600481905550806003819055505050565b6000604051905090565b600080fd5b600080fd5b6000819050919050565b610ce781610cd4565b8114610cf257600080fd5b50565b600081359050610d0481610cde565b92915050565b600060208284031215610d2057610d1f610cca565b5b6000610d2e84828501610cf5565b91505092915050565b610d4081610cd4565b82525050565b6000602082019050610d5b6000830184610d37565b92915050565b6000604082019050610d766000830185610d37565b610d836020830184610d37565b9392505050565b600080fd5b600080fd5b6000601f19601f8301169050919050565b7f4e487b7100000000000000000000000000000000000000000000000000000000600052604160045260246000fd5b610ddd82610d94565b810181811067ffffffffffffffff82111715610dfc57610dfb610da5565b5b80604052505050565b6000610e0f610cc0565b9050610e1b8282610dd4565b919050565b600067ffffffffffffffff821115610e3b57610e3a610da5565b5b610e4482610d94565b9050602081019050919050565b82818337600083830152505050565b6000610e73610e6e84610e20565b610e05565b905082815260208101848484011115610e8f57610e8e610d8f565b5b610e9a848285610e51565b509392505050565b600082601f830112610eb757610eb6610d8a565b5b8135610ec7848260208601610e60565b91505092915050565b60008060408385031215610ee757610ee6610cca565b5b600083013567ffffffffffffffff811115610f0557610f04610ccf565b5b610f1185828601610ea2565b925050602083013567ffffffffffffffff811115610f3257610f31610ccf565b5b610f3e85828601610ea2565b9150509250929050565b600081519050919050565b600082825260208201905092915050565b60005b83811015610f82578082015181840152602081019050610f67565b60008484015250505050565b6000610f9982610f48565b610fa38185610f53565b9350610fb3818560208601610f64565b610fbc81610d94565b840191505092915050565b6000606082019050610fdc6000830186610d37565b8181036020830152610fee8185610f8e565b905081810360408301526110028184610f8e565b9050949350505050565b600060a0820190506110216000830188610d37565b81810360208301526110338187610f8e565b905081810360408301526110478186610f8e565b90506110566060830185610d37565b6110636080830184610d37565b9695505050505050565b600073ffffffffffffffffffffffffffffffffffffffff82169050919050565b60006110988261106d565b9050919050565b6110a88161108d565b82525050565b60006020820190506110c3600083018461109f565b92915050565b6110d28161108d565b81146110dd57600080fd5b50565b6000813590506110ef816110c9565b92915050565b60006020828403121561110b5761110a610cca565b5b6000611119848285016110e0565b91505092915050565b60008115159050919050565b61113781611122565b82525050565b6000602082019050611152600083018461112e565b92915050565b6000806040838503121561116f5761116e610cca565b5b600061117d85828601610cf5565b925050602061118e85828601610cf5565b9150509250929050565b7f4f776e6572206973206e6f7420616c6c6f77656420746f20766f746500000000600082015250565b60006111ce601c83610f53565b91506111d982611198565b602082019050919050565b600060208201905081810360008301526111fd816111c1565b9050919050565b7f566f74696e67206973206e6f7420616374697665000000000000000000000000600082015250565b600061123a601483610f53565b915061124582611204565b602082019050919050565b600060208201905081810360008301526112698161122d565b9050919050565b7f496e76616c69642063616e646964617465204944000000000000000000000000600082015250565b60006112a6601483610f53565b91506112b182611270565b602082019050919050565b600060208201905081810360008301526112d581611299565b9050919050565b7f596f75206861766520616c726561647920766f74656400000000000000000000600082015250565b6000611312601683610f53565b915061131d826112dc565b602082019050919050565b6000602082019050818103600083015261134181611305565b9050919050565b7f4e487b7100000000000000000000000000000000000000000000000000000000600052601160045260246000fd5b600061138282610cd4565b91507fffffffffffffffffffffffffffffffffffffffffffffffffffffffffffffffff82036113b4576113b3611348565b5b600182019050919050565b7f4f6e6c79206f776e65722063616e20706572666f726d2074686973206163746960008201527f6f6e000000000000000000000000000000000000000000000000000000000000602082015250565b600061141b602283610f53565b9150611426826113bf565b604082019050919050565b6000602082019050818103600083015261144a8161140e565b9050919050565b7f4e487b7100000000000000000000000000000000000000000000000000000000600052602260045260246000fd5b6000600282049050600182168061149857607f821691505b6020821081036114ab576114aa611451565b5b50919050565b60008190508160005260206000209050919050565b60006020601f8301049050919050565b600082821b905092915050565b6000600883026115137fffffffffffffffffffffffffffffffffffffffffffffffffffffffffffffffff826114d6565b61151d86836114d6565b95508019841693508086168417925050509392505050565b6000819050919050565b600061155a61155561155084610cd4565b611535565b610cd4565b9050919050565b6000819050919050565b6115748361153f565b61158861158082611561565b8484546114e3565b825550505050565b600090565b61159d611590565b6115a881848461156b565b505050565b5b818110156115cc576115c1600082611595565b6001810190506115ae565b5050565b601f821115611611576115e2816114b1565b6115eb846114c6565b810160208510156115fa578190505b61160e611606856114c6565b8301826115ad565b50505b505050565b600082821c905092915050565b600061163460001984600802611616565b1980831691505092915050565b600061164d8383611623565b9150826002028217905092915050565b61166682610f48565b67ffffffffffffffff81111561167f5761167e610da5565b5b6116898254611480565b6116948282856115d0565b600060209050601f8311600181146116c757600084156116b5578287015190505b6116bf8582611641565b865550611727565b601f1984166116d5866114b1565b60005b828110156116fd578489015182556001820191506020850194506020810190506116d8565b8683101561171a5784890151611716601f891682611623565b8355505b6001600288020188555050505b505050505050565b600061173a82610cd4565b915061174583610cd4565b925082820190508082111561175d5761175c611348565b5b92915050565b7f4e6f20766f746573206361737420796574000000000000000000000000000000600082015250565b6000611799601183610f53565b91506117a482611763565b602082019050919050565b600060208201905081810360008301526117c88161178c565b9050919050565b60006117da82610cd4565b91506117e583610cd4565b92508282026117f381610cd4565b9150828204841483151761180a57611809611348565b5b5092915050565b7f4e487b7100000000000000000000000000000000000000000000000000000000600052601260045260246000fd5b600061184b82610cd4565b915061185683610cd4565b92508261186657611865611811565b5b828204905092915050565b7f446174657320616c726561647920736574000000000000000000000000000000600082015250565b60006118a7601183610f53565b91506118b282611871565b602082019050919050565b600060208201905081810360008301526118d68161189a565b9050919050565b7f496e76616c696420646174652073657474696e67730000000000000000000000600082015250565b6000611913601583610f53565b915061191e826118dd565b602082019050919050565b6000602082019050818103600083015261194281611906565b905091905056fea26469706673582212209fa939a089df41baa6d7e9ab11cbaa500f7a683ea3f50ed964ed2c88411b86ca64736f6c63430008110033",
			"opcodes": "PUSH1 0x80 PUSH1 0x40 MSTORE CALLVALUE DUP1 ISZERO PUSH2 0x10 JUMPI PUSH1 0x0 DUP1 REVERT JUMPDEST POP CALLER PUSH1 0x5 PUSH1 0x0 PUSH2 0x100 EXP DUP2 SLOAD DUP2 PUSH20 0xFFFFFFFFFFFFFFFFFFFFFFFFFFFFFFFFFFFFFFFF MUL NOT AND SWAP1 DUP4 PUSH20 0xFFFFFFFFFFFFFFFFFFFFFFFFFFFFFFFFFFFFFFFF AND MUL OR SWAP1 SSTORE POP PUSH2 0x197F DUP1 PUSH2 0x61 PUSH1 0x0 CODECOPY PUSH1 0x0 RETURN INVALID PUSH1 0x80 PUSH1 0x40 MSTORE CALLVALUE DUP1 ISZERO PUSH2 0x10 JUMPI PUSH1 0x0 DUP1 REVERT JUMPDEST POP PUSH1 0x4 CALLDATASIZE LT PUSH2 0xB4 JUMPI PUSH1 0x0 CALLDATALOAD PUSH1 0xE0 SHR DUP1 PUSH4 0x85A38635 GT PUSH2 0x71 JUMPI DUP1 PUSH4 0x85A38635 EQ PUSH2 0x196 JUMPI DUP1 PUSH4 0x8DA5CB5B EQ PUSH2 0x1B4 JUMPI DUP1 PUSH4 0xA3EC138D EQ PUSH2 0x1D2 JUMPI DUP1 PUSH4 0xB0417E98 EQ PUSH2 0x202 JUMPI DUP1 PUSH4 0xB86EDA91 EQ PUSH2 0x220 JUMPI DUP1 PUSH4 0xDEDF141E EQ PUSH2 0x23E JUMPI PUSH2 0xB4 JUMP JUMPDEST DUP1 PUSH4 0x121B93F EQ PUSH2 0xB9 JUMPI DUP1 PUSH4 0x101158AF EQ PUSH2 0xD5 JUMPI DUP1 PUSH4 0x16441813 EQ PUSH2 0xF3 JUMPI DUP1 PUSH4 0x26541B56 EQ PUSH2 0x112 JUMPI DUP1 PUSH4 0x35B8E820 EQ PUSH2 0x142 JUMPI DUP1 PUSH4 0x69D76AE2 EQ PUSH2 0x174 JUMPI JUMPDEST PUSH1 0x0 DUP1 REVERT JUMPDEST PUSH2 0xD3 PUSH1 0x4 DUP1 CALLDATASIZE SUB DUP2 ADD SWAP1 PUSH2 0xCE SWAP2 SWAP1 PUSH2 0xD0A JUMP JUMPDEST PUSH2 0x25A JUMP JUMPDEST STOP JUMPDEST PUSH2 0xDD PUSH2 0x4BC JUMP JUMPDEST PUSH1 0x40 MLOAD PUSH2 0xEA SWAP2 SWAP1 PUSH2 0xD46 JUMP JUMPDEST PUSH1 0x40 MLOAD DUP1 SWAP2 SUB SWAP1 RETURN JUMPDEST PUSH2 0xFB PUSH2 0x4C2 JUMP JUMPDEST PUSH1 0x40 MLOAD PUSH2 0x109 SWAP3 SWAP2 SWAP1 PUSH2 0xD61 JUMP JUMPDEST PUSH1 0x40 MLOAD DUP1 SWAP2 SUB SWAP1 RETURN JUMPDEST PUSH2 0x12C PUSH1 0x4 DUP1 CALLDATASIZE SUB DUP2 ADD SWAP1 PUSH2 0x127 SWAP2 SWAP1 PUSH2 0xED0 JUMP JUMPDEST PUSH2 0x4D3 JUMP JUMPDEST PUSH1 0x40 MLOAD PUSH2 0x139 SWAP2 SWAP1 PUSH2 0xD46 JUMP JUMPDEST PUSH1 0x40 MLOAD DUP1 SWAP2 SUB SWAP1 RETURN JUMPDEST PUSH2 0x15C PUSH1 0x4 DUP1 CALLDATASIZE SUB DUP2 ADD SWAP1 PUSH2 0x157 SWAP2 SWAP1 PUSH2 0xD0A JUMP JUMPDEST PUSH2 0x603 JUMP JUMPDEST PUSH1 0x40 MLOAD PUSH2 0x16B SWAP4 SWAP3 SWAP2 SWAP1 PUSH2 0xFC7 JUMP JUMPDEST PUSH1 0x40 MLOAD DUP1 SWAP2 SUB SWAP1 RETURN JUMPDEST PUSH2 0x17C PUSH2 0x7CF JUMP JUMPDEST PUSH1 0x40 MLOAD PUSH2 0x18D SWAP6 SWAP5 SWAP4 SWAP3 SWAP2 SWAP1 PUSH2 0x100C JUMP JUMPDEST PUSH1 0x40 MLOAD DUP1 SWAP2 SUB SWAP1 RETURN JUMPDEST PUSH2 0x19E PUSH2 0xAD7 JUMP JUMPDEST PUSH1 0x40 MLOAD PUSH2 0x1AB SWAP2 SWAP1 PUSH2 0xD46 JUMP JUMPDEST PUSH1 0x40 MLOAD DUP1 SWAP2 SUB SWAP1 RETURN JUMPDEST PUSH2 0x1BC PUSH2 0xADD JUMP JUMPDEST PUSH1 0x40 MLOAD PUSH2 0x1C9 SWAP2 SWAP1 PUSH2 0x10AE JUMP JUMPDEST PUSH1 0x40 MLOAD DUP1 SWAP2 SUB SWAP1 RETURN JUMPDEST PUSH2 0x1EC PUSH1 0x4 DUP1 CALLDATASIZE SUB DUP2 ADD SWAP1 PUSH2 0x1E7 SWAP2 SWAP1 PUSH2 0x10F5 JUMP JUMPDEST PUSH2 0xB03 JUMP JUMPDEST PUSH1 0x40 MLOAD PUSH2 0x1F9 SWAP2 SWAP1 PUSH2 0x113D JUMP JUMPDEST PUSH1 0x40 MLOAD DUP1 SWAP2 SUB SWAP1 RETURN JUMPDEST PUSH2 0x20A PUSH2 0xB23 JUMP JUMPDEST PUSH1 0x40 MLOAD PUSH2 0x217 SWAP2 SWAP1 PUSH2 0x113D JUMP JUMPDEST PUSH1 0x40 MLOAD DUP1 SWAP2 SUB SWAP1 RETURN JUMPDEST PUSH2 0x228 PUSH2 0xB77 JUMP JUMPDEST PUSH1 0x40 MLOAD PUSH2 0x235 SWAP2 SWAP1 PUSH2 0xD46 JUMP JUMPDEST PUSH1 0x40 MLOAD DUP1 SWAP2 SUB SWAP1 RETURN JUMPDEST PUSH2 0x258 PUSH1 0x4 DUP1 CALLDATASIZE SUB DUP2 ADD SWAP1 PUSH2 0x253 SWAP2 SWAP1 PUSH2 0x1158 JUMP JUMPDEST PUSH2 0xB7D JUMP JUMPDEST STOP JUMPDEST PUSH1 0x5 PUSH1 0x0 SWAP1 SLOAD SWAP1 PUSH2 0x100 EXP SWAP1 DIV PUSH20 0xFFFFFFFFFFFFFFFFFFFFFFFFFFFFFFFFFFFFFFFF AND PUSH20 0xFFFFFFFFFFFFFFFFFFFFFFFFFFFFFFFFFFFFFFFF AND CALLER PUSH20 0xFFFFFFFFFFFFFFFFFFFFFFFFFFFFFFFFFFFFFFFF AND SUB PUSH2 0x2EA JUMPI PUSH1 0x40 MLOAD PUSH32 0x8C379A000000000000000000000000000000000000000000000000000000000 DUP2 MSTORE PUSH1 0x4 ADD PUSH2 0x2E1 SWAP1 PUSH2 0x11E4 JUMP JUMPDEST PUSH1 0x40 MLOAD DUP1 SWAP2 SUB SWAP1 REVERT JUMPDEST PUSH1 0x0 PUSH1 0x4 SLOAD EQ ISZERO DUP1 ISZERO PUSH2 0x300 JUMPI POP PUSH1 0x0 PUSH1 0x3 SLOAD EQ ISZERO JUMPDEST ISZERO PUSH2 0x359 JUMPI PUSH1 0x4 SLOAD TIMESTAMP LT ISZERO DUP1 ISZERO PUSH2 0x319 JUMPI POP PUSH1 0x3 SLOAD TIMESTAMP GT ISZERO JUMPDEST PUSH2 0x358 JUMPI PUSH1 0x40 MLOAD PUSH32 0x8C379A000000000000000000000000000000000000000000000000000000000 DUP2 MSTORE PUSH1 0x4 ADD PUSH2 0x34F SWAP1 PUSH2 0x1250 JUMP JUMPDEST PUSH1 0x40 MLOAD DUP1 SWAP2 SUB SWAP1 REVERT JUMPDEST JUMPDEST PUSH1 0x0 DUP2 GT DUP1 ISZERO PUSH2 0x36B JUMPI POP PUSH1 0x2 SLOAD DUP2 GT ISZERO JUMPDEST PUSH2 0x3AA JUMPI PUSH1 0x40 MLOAD PUSH32 0x8C379A000000000000000000000000000000000000000000000000000000000 DUP2 MSTORE PUSH1 0x4 ADD PUSH2 0x3A1 SWAP1 PUSH2 0x12BC JUMP JUMPDEST PUSH1 0x40 MLOAD DUP1 SWAP2 SUB SWAP1 REVERT JUMPDEST PUSH1 0x1 PUSH1 0x0 CALLER PUSH20 0xFFFFFFFFFFFFFFFFFFFFFFFFFFFFFFFFFFFFFFFF AND PUSH20 0xFFFFFFFFFFFFFFFFFFFFFFFFFFFFFFFFFFFFFFFF AND DUP2 MSTORE PUSH1 0x20 ADD SWAP1 DUP2 MSTORE PUSH1 0x20 ADD PUSH1 0x0 KECCAK256 PUSH1 0x0 SWAP1 SLOAD SWAP1 PUSH2 0x100 EXP SWAP1 DIV PUSH1 0xFF AND ISZERO PUSH2 0x437 JUMPI PUSH1 0x40 MLOAD PUSH32 0x8C379A000000000000000000000000000000000000000000000000000000000 DUP2 MSTORE PUSH1 0x4 ADD PUSH2 0x42E SWAP1 PUSH2 0x1328 JUMP JUMPDEST PUSH1 0x40 MLOAD DUP1 SWAP2 SUB SWAP1 REVERT JUMPDEST PUSH1 0x1 DUP1 PUSH1 0x0 CALLER PUSH20 0xFFFFFFFFFFFFFFFFFFFFFFFFFFFFFFFFFFFFFFFF AND PUSH20 0xFFFFFFFFFFFFFFFFFFFFFFFFFFFFFFFFFFFFFFFF AND DUP2 MSTORE PUSH1 0x20 ADD SWAP1 DUP2 MSTORE PUSH1 0x20 ADD PUSH1 0x0 KECCAK256 PUSH1 0x0 PUSH2 0x100 EXP DUP2 SLOAD DUP2 PUSH1 0xFF MUL NOT AND SWAP1 DUP4 ISZERO ISZERO MUL OR SWAP1 SSTORE POP PUSH1 0x0 DUP1 DUP3 DUP2 MSTORE PUSH1 0x20 ADD SWAP1 DUP2 MSTORE PUSH1 0x20 ADD PUSH1 0x0 KECCAK256 PUSH1 0x3 ADD PUSH1 0x0 DUP2 SLOAD DUP1 SWAP3 SWAP2 SWAP1 PUSH2 0x4B4 SWAP1 PUSH2 0x1377 JUMP JUMPDEST SWAP2 SWAP1 POP SSTORE POP POP JUMP JUMPDEST PUSH1 0x4 SLOAD DUP2 JUMP JUMPDEST PUSH1 0x0 DUP1 PUSH1 0x4 SLOAD PUSH1 0x3 SLOAD SWAP2 POP SWAP2 POP SWAP1 SWAP2 JUMP JUMPDEST PUSH1 0x0 PUSH1 0x5 PUSH1 0x0 SWAP1 SLOAD SWAP1 PUSH2 0x100 EXP SWAP1 DIV PUSH20 0xFFFFFFFFFFFFFFFFFFFFFFFFFFFFFFFFFFFFFFFF AND PUSH20 0xFFFFFFFFFFFFFFFFFFFFFFFFFFFFFFFFFFFFFFFF AND CALLER PUSH20 0xFFFFFFFFFFFFFFFFFFFFFFFFFFFFFFFFFFFFFFFF AND EQ PUSH2 0x565 JUMPI PUSH1 0x40 MLOAD PUSH32 0x8C379A000000000000000000000000000000000000000000000000000000000 DUP2 MSTORE PUSH1 0x4 ADD PUSH2 0x55C SWAP1 PUSH2 0x1431 JUMP JUMPDEST PUSH1 0x40 MLOAD DUP1 SWAP2 SUB SWAP1 REVERT JUMPDEST PUSH1 0x2 PUSH1 0x0 DUP2 SLOAD DUP1 SWAP3 SWAP2 SWAP1 PUSH2 0x578 SWAP1 PUSH2 0x1377 JUMP JUMPDEST SWAP2 SWAP1 POP SSTORE POP PUSH1 0x40 MLOAD DUP1 PUSH1 0x80 ADD PUSH1 0x40 MSTORE DUP1 PUSH1 0x2 SLOAD DUP2 MSTORE PUSH1 0x20 ADD DUP5 DUP2 MSTORE PUSH1 0x20 ADD DUP4 DUP2 MSTORE PUSH1 0x20 ADD PUSH1 0x0 DUP2 MSTORE POP PUSH1 0x0 DUP1 PUSH1 0x2 SLOAD DUP2 MSTORE PUSH1 0x20 ADD SWAP1 DUP2 MSTORE PUSH1 0x20 ADD PUSH1 0x0 KECCAK256 PUSH1 0x0 DUP3 ADD MLOAD DUP2 PUSH1 0x0 ADD SSTORE PUSH1 0x20 DUP3 ADD MLOAD DUP2 PUSH1 0x1 ADD SWAP1 DUP2 PUSH2 0x5D4 SWAP2 SWAP1 PUSH2 0x165D JUMP JUMPDEST POP PUSH1 0x40 DUP3 ADD MLOAD DUP2 PUSH1 0x2 ADD SWAP1 DUP2 PUSH2 0x5EA SWAP2 SWAP1 PUSH2 0x165D JUMP JUMPDEST POP PUSH1 0x60 DUP3 ADD MLOAD DUP2 PUSH1 0x3 ADD SSTORE SWAP1 POP POP PUSH1 0x2 SLOAD SWAP1 POP SWAP3 SWAP2 POP POP JUMP JUMPDEST PUSH1 0x0 PUSH1 0x60 DUP1 PUSH1 0x0 DUP5 GT DUP1 ISZERO PUSH2 0x61A JUMPI POP PUSH1 0x2 SLOAD DUP5 GT ISZERO JUMPDEST PUSH2 0x659 JUMPI PUSH1 0x40 MLOAD PUSH32 0x8C379A000000000000000000000000000000000000000000000000000000000 DUP2 MSTORE PUSH1 0x4 ADD PUSH2 0x650 SWAP1 PUSH2 0x12BC JUMP JUMPDEST PUSH1 0x40 MLOAD DUP1 SWAP2 SUB SWAP1 REVERT JUMPDEST PUSH1 0x0 DUP1 PUSH1 0x0 DUP7 DUP2 MSTORE PUSH1 0x20 ADD SWAP1 DUP2 MSTORE PUSH1 0x20 ADD PUSH1 0x0 KECCAK256 PUSH1 0x40 MLOAD DUP1 PUSH1 0x80 ADD PUSH1 0x40 MSTORE SWAP1 DUP2 PUSH1 0x0 DUP3 ADD SLOAD DUP2 MSTORE PUSH1 0x20 ADD PUSH1 0x1 DUP3 ADD DUP1 SLOAD PUSH2 0x692 SWAP1 PUSH2 0x1480 JUMP JUMPDEST DUP1 PUSH1 0x1F ADD PUSH1 0x20 DUP1 SWAP2 DIV MUL PUSH1 0x20 ADD PUSH1 0x40 MLOAD SWAP1 DUP2 ADD PUSH1 0x40 MSTORE DUP1 SWAP3 SWAP2 SWAP1 DUP2 DUP2 MSTORE PUSH1 0x20 ADD DUP3 DUP1 SLOAD PUSH2 0x6BE SWAP1 PUSH2 0x1480 JUMP JUMPDEST DUP1 ISZERO PUSH2 0x70B JUMPI DUP1 PUSH1 0x1F LT PUSH2 0x6E0 JUMPI PUSH2 0x100 DUP1 DUP4 SLOAD DIV MUL DUP4 MSTORE SWAP2 PUSH1 0x20 ADD SWAP2 PUSH2 0x70B JUMP JUMPDEST DUP3 ADD SWAP2 SWAP1 PUSH1 0x0 MSTORE PUSH1 0x20 PUSH1 0x0 KECCAK256 SWAP1 JUMPDEST DUP2 SLOAD DUP2 MSTORE SWAP1 PUSH1 0x1 ADD SWAP1 PUSH1 0x20 ADD DUP1 DUP4 GT PUSH2 0x6EE JUMPI DUP3 SWAP1 SUB PUSH1 0x1F AND DUP3 ADD SWAP2 JUMPDEST POP POP POP POP POP DUP2 MSTORE PUSH1 0x20 ADD PUSH1 0x2 DUP3 ADD DUP1 SLOAD PUSH2 0x724 SWAP1 PUSH2 0x1480 JUMP JUMPDEST DUP1 PUSH1 0x1F ADD PUSH1 0x20 DUP1 SWAP2 DIV MUL PUSH1 0x20 ADD PUSH1 0x40 MLOAD SWAP1 DUP2 ADD PUSH1 0x40 MSTORE DUP1 SWAP3 SWAP2 SWAP1 DUP2 DUP2 MSTORE PUSH1 0x20 ADD DUP3 DUP1 SLOAD PUSH2 0x750 SWAP1 PUSH2 0x1480 JUMP JUMPDEST DUP1 ISZERO PUSH2 0x79D JUMPI DUP1 PUSH1 0x1F LT PUSH2 0x772 JUMPI PUSH2 0x100 DUP1 DUP4 SLOAD DIV MUL DUP4 MSTORE SWAP2 PUSH1 0x20 ADD SWAP2 PUSH2 0x79D JUMP JUMPDEST DUP3 ADD SWAP2 SWAP1 PUSH1 0x0 MSTORE PUSH1 0x20 PUSH1 0x0 KECCAK256 SWAP1 JUMPDEST DUP2 SLOAD DUP2 MSTORE SWAP1 PUSH1 0x1 ADD SWAP1 PUSH1 0x20 ADD DUP1 DUP4 GT PUSH2 0x780 JUMPI DUP3 SWAP1 SUB PUSH1 0x1F AND DUP3 ADD SWAP2 JUMPDEST POP POP POP POP POP DUP2 MSTORE PUSH1 0x20 ADD PUSH1 0x3 DUP3 ADD SLOAD DUP2 MSTORE POP POP SWAP1 POP DUP1 PUSH1 0x0 ADD MLOAD DUP2 PUSH1 0x20 ADD MLOAD DUP3 PUSH1 0x40 ADD MLOAD SWAP4 POP SWAP4 POP SWAP4 POP POP SWAP2 SWAP4 SWAP1 SWAP3 POP JUMP JUMPDEST PUSH1 0x0 PUSH1 0x60 DUP1 PUSH1 0x0 DUP1 PUSH1 0x5 PUSH1 0x0 SWAP1 SLOAD SWAP1 PUSH2 0x100 EXP SWAP1 DIV PUSH20 0xFFFFFFFFFFFFFFFFFFFFFFFFFFFFFFFFFFFFFFFF AND PUSH20 0xFFFFFFFFFFFFFFFFFFFFFFFFFFFFFFFFFFFFFFFF AND CALLER PUSH20 0xFFFFFFFFFFFFFFFFFFFFFFFFFFFFFFFFFFFFFFFF AND EQ PUSH2 0x867 JUMPI PUSH1 0x40 MLOAD PUSH32 0x8C379A000000000000000000000000000000000000000000000000000000000 DUP2 MSTORE PUSH1 0x4 ADD PUSH2 0x85E SWAP1 PUSH2 0x1431 JUMP JUMPDEST PUSH1 0x40 MLOAD DUP1 SWAP2 SUB SWAP1 REVERT JUMPDEST PUSH1 0x0 DUP1 PUSH1 0x0 DUP1 PUSH1 0x1 SWAP1 POP JUMPDEST PUSH1 0x2 SLOAD DUP2 GT PUSH2 0x8EA JUMPI PUSH1 0x0 DUP1 DUP3 DUP2 MSTORE PUSH1 0x20 ADD SWAP1 DUP2 MSTORE PUSH1 0x20 ADD PUSH1 0x0 KECCAK256 PUSH1 0x3 ADD SLOAD DUP3 PUSH2 0x89C SWAP2 SWAP1 PUSH2 0x172F JUMP JUMPDEST SWAP2 POP DUP4 PUSH1 0x0 DUP1 DUP4 DUP2 MSTORE PUSH1 0x20 ADD SWAP1 DUP2 MSTORE PUSH1 0x20 ADD PUSH1 0x0 KECCAK256 PUSH1 0x3 ADD SLOAD GT ISZERO PUSH2 0x8D7 JUMPI PUSH1 0x0 DUP1 DUP3 DUP2 MSTORE PUSH1 0x20 ADD SWAP1 DUP2 MSTORE PUSH1 0x20 ADD PUSH1 0x0 KECCAK256 PUSH1 0x3 ADD SLOAD SWAP4 POP DUP1 SWAP3 POP JUMPDEST DUP1 DUP1 PUSH2 0x8E2 SWAP1 PUSH2 0x1377 JUMP JUMPDEST SWAP2 POP POP PUSH2 0x872 JUMP JUMPDEST POP PUSH1 0x0 DUP3 SUB PUSH2 0x92E JUMPI PUSH1 0x40 MLOAD PUSH32 0x8C379A000000000000000000000000000000000000000000000000000000000 DUP2 MSTORE PUSH1 0x4 ADD PUSH2 0x925 SWAP1 PUSH2 0x17AF JUMP JUMPDEST PUSH1 0x40 MLOAD DUP1 SWAP2 SUB SWAP1 REVERT JUMPDEST PUSH1 0x0 DUP1 DUP3 GT ISZERO PUSH2 0x953 JUMPI DUP2 PUSH1 0x64 DUP6 PUSH2 0x946 SWAP2 SWAP1 PUSH2 0x17CF JUMP JUMPDEST PUSH2 0x950 SWAP2 SWAP1 PUSH2 0x1840 JUMP JUMPDEST SWAP1 POP JUMPDEST PUSH1 0x0 DUP1 PUSH1 0x0 DUP6 DUP2 MSTORE PUSH1 0x20 ADD SWAP1 DUP2 MSTORE PUSH1 0x20 ADD PUSH1 0x0 KECCAK256 PUSH1 0x40 MLOAD DUP1 PUSH1 0x80 ADD PUSH1 0x40 MSTORE SWAP1 DUP2 PUSH1 0x0 DUP3 ADD SLOAD DUP2 MSTORE PUSH1 0x20 ADD PUSH1 0x1 DUP3 ADD DUP1 SLOAD PUSH2 0x98C SWAP1 PUSH2 0x1480 JUMP JUMPDEST DUP1 PUSH1 0x1F ADD PUSH1 0x20 DUP1 SWAP2 DIV MUL PUSH1 0x20 ADD PUSH1 0x40 MLOAD SWAP1 DUP2 ADD PUSH1 0x40 MSTORE DUP1 SWAP3 SWAP2 SWAP1 DUP2 DUP2 MSTORE PUSH1 0x20 ADD DUP3 DUP1 SLOAD PUSH2 0x9B8 SWAP1 PUSH2 0x1480 JUMP JUMPDEST DUP1 ISZERO PUSH2 0xA05 JUMPI DUP1 PUSH1 0x1F LT PUSH2 0x9DA JUMPI PUSH2 0x100 DUP1 DUP4 SLOAD DIV MUL DUP4 MSTORE SWAP2 PUSH1 0x20 ADD SWAP2 PUSH2 0xA05 JUMP JUMPDEST DUP3 ADD SWAP2 SWAP1 PUSH1 0x0 MSTORE PUSH1 0x20 PUSH1 0x0 KECCAK256 SWAP1 JUMPDEST DUP2 SLOAD DUP2 MSTORE SWAP1 PUSH1 0x1 ADD SWAP1 PUSH1 0x20 ADD DUP1 DUP4 GT PUSH2 0x9E8 JUMPI DUP3 SWAP1 SUB PUSH1 0x1F AND DUP3 ADD SWAP2 JUMPDEST POP POP POP POP POP DUP2 MSTORE PUSH1 0x20 ADD PUSH1 0x2 DUP3 ADD DUP1 SLOAD PUSH2 0xA1E SWAP1 PUSH2 0x1480 JUMP JUMPDEST DUP1 PUSH1 0x1F ADD PUSH1 0x20 DUP1 SWAP2 DIV MUL PUSH1 0x20 ADD PUSH1 0x40 MLOAD SWAP1 DUP2 ADD PUSH1 0x40 MSTORE DUP1 SWAP3 SWAP2 SWAP1 DUP2 DUP2 MSTORE PUSH1 0x20 ADD DUP3 DUP1 SLOAD PUSH2 0xA4A SWAP1 PUSH2 0x1480 JUMP JUMPDEST DUP1 ISZERO PUSH2 0xA97 JUMPI DUP1 PUSH1 0x1F LT PUSH2 0xA6C JUMPI PUSH2 0x100 DUP1 DUP4 SLOAD DIV MUL DUP4 MSTORE SWAP2 PUSH1 0x20 ADD SWAP2 PUSH2 0xA97 JUMP JUMPDEST DUP3 ADD SWAP2 SWAP1 PUSH1 0x0 MSTORE PUSH1 0x20 PUSH1 0x0 KECCAK256 SWAP1 JUMPDEST DUP2 SLOAD DUP2 MSTORE SWAP1 PUSH1 0x1 ADD SWAP1 PUSH1 0x20 ADD DUP1 DUP4 GT PUSH2 0xA7A JUMPI DUP3 SWAP1 SUB PUSH1 0x1F AND DUP3 ADD SWAP2 JUMPDEST POP POP POP POP POP DUP2 MSTORE PUSH1 0x20 ADD PUSH1 0x3 DUP3 ADD SLOAD DUP2 MSTORE POP POP SWAP1 POP DUP1 PUSH1 0x0 ADD MLOAD DUP2 PUSH1 0x20 ADD MLOAD DUP3 PUSH1 0x40 ADD MLOAD DUP4 PUSH1 0x60 ADD MLOAD DUP6 SWAP10 POP SWAP10 POP SWAP10 POP SWAP10 POP SWAP10 POP POP POP POP POP POP SWAP1 SWAP2 SWAP3 SWAP4 SWAP5 JUMP JUMPDEST PUSH1 0x3 SLOAD DUP2 JUMP JUMPDEST PUSH1 0x5 PUSH1 0x0 SWAP1 SLOAD SWAP1 PUSH2 0x100 EXP SWAP1 DIV PUSH20 0xFFFFFFFFFFFFFFFFFFFFFFFFFFFFFFFFFFFFFFFF AND DUP2 JUMP JUMPDEST PUSH1 0x1 PUSH1 0x20 MSTORE DUP1 PUSH1 0x0 MSTORE PUSH1 0x40 PUSH1 0x0 KECCAK256 PUSH1 0x0 SWAP2 POP SLOAD SWAP1 PUSH2 0x100 EXP SWAP1 DIV PUSH1 0xFF AND DUP2 JUMP JUMPDEST PUSH1 0x0 PUSH1 0x1 PUSH1 0x0 CALLER PUSH20 0xFFFFFFFFFFFFFFFFFFFFFFFFFFFFFFFFFFFFFFFF AND PUSH20 0xFFFFFFFFFFFFFFFFFFFFFFFFFFFFFFFFFFFFFFFF AND DUP2 MSTORE PUSH1 0x20 ADD SWAP1 DUP2 MSTORE PUSH1 0x20 ADD PUSH1 0x0 KECCAK256 PUSH1 0x0 SWAP1 SLOAD SWAP1 PUSH2 0x100 EXP SWAP1 DIV PUSH1 0xFF AND SWAP1 POP SWAP1 JUMP JUMPDEST PUSH1 0x2 SLOAD DUP2 JUMP JUMPDEST PUSH1 0x5 PUSH1 0x0 SWAP1 SLOAD SWAP1 PUSH2 0x100 EXP SWAP1 DIV PUSH20 0xFFFFFFFFFFFFFFFFFFFFFFFFFFFFFFFFFFFFFFFF AND PUSH20 0xFFFFFFFFFFFFFFFFFFFFFFFFFFFFFFFFFFFFFFFF AND CALLER PUSH20 0xFFFFFFFFFFFFFFFFFFFFFFFFFFFFFFFFFFFFFFFF AND EQ PUSH2 0xC0D JUMPI PUSH1 0x40 MLOAD PUSH32 0x8C379A000000000000000000000000000000000000000000000000000000000 DUP2 MSTORE PUSH1 0x4 ADD PUSH2 0xC04 SWAP1 PUSH2 0x1431 JUMP JUMPDEST PUSH1 0x40 MLOAD DUP1 SWAP2 SUB SWAP1 REVERT JUMPDEST PUSH1 0x0 PUSH1 0x3 SLOAD EQ DUP1 ISZERO PUSH2 0xC21 JUMPI POP PUSH1 0x0 PUSH1 0x4 SLOAD EQ JUMPDEST PUSH2 0xC60 JUMPI PUSH1 0x40 MLOAD PUSH32 0x8C379A000000000000000000000000000000000000000000000000000000000 DUP2 MSTORE PUSH1 0x4 ADD PUSH2 0xC57 SWAP1 PUSH2 0x18BD JUMP JUMPDEST PUSH1 0x40 MLOAD DUP1 SWAP2 SUB SWAP1 REVERT JUMPDEST TIMESTAMP DUP3 LT ISZERO DUP1 ISZERO PUSH2 0xC6F JUMPI POP DUP2 DUP2 GT JUMPDEST PUSH2 0xCAE JUMPI PUSH1 0x40 MLOAD PUSH32 0x8C379A000000000000000000000000000000000000000000000000000000000 DUP2 MSTORE PUSH1 0x4 ADD PUSH2 0xCA5 SWAP1 PUSH2 0x1929 JUMP JUMPDEST PUSH1 0x40 MLOAD DUP1 SWAP2 SUB SWAP1 REVERT JUMPDEST DUP2 PUSH1 0x4 DUP2 SWAP1 SSTORE POP DUP1 PUSH1 0x3 DUP2 SWAP1 SSTORE POP POP POP JUMP JUMPDEST PUSH1 0x0 PUSH1 0x40 MLOAD SWAP1 POP SWAP1 JUMP JUMPDEST PUSH1 0x0 DUP1 REVERT JUMPDEST PUSH1 0x0 DUP1 REVERT JUMPDEST PUSH1 0x0 DUP2 SWAP1 POP SWAP2 SWAP1 POP JUMP JUMPDEST PUSH2 0xCE7 DUP2 PUSH2 0xCD4 JUMP JUMPDEST DUP2 EQ PUSH2 0xCF2 JUMPI PUSH1 0x0 DUP1 REVERT JUMPDEST POP JUMP JUMPDEST PUSH1 0x0 DUP2 CALLDATALOAD SWAP1 POP PUSH2 0xD04 DUP2 PUSH2 0xCDE JUMP JUMPDEST SWAP3 SWAP2 POP POP JUMP JUMPDEST PUSH1 0x0 PUSH1 0x20 DUP3 DUP5 SUB SLT ISZERO PUSH2 0xD20 JUMPI PUSH2 0xD1F PUSH2 0xCCA JUMP JUMPDEST JUMPDEST PUSH1 0x0 PUSH2 0xD2E DUP5 DUP3 DUP6 ADD PUSH2 0xCF5 JUMP JUMPDEST SWAP2 POP POP SWAP3 SWAP2 POP POP JUMP JUMPDEST PUSH2 0xD40 DUP2 PUSH2 0xCD4 JUMP JUMPDEST DUP3 MSTORE POP POP JUMP JUMPDEST PUSH1 0x0 PUSH1 0x20 DUP3 ADD SWAP1 POP PUSH2 0xD5B PUSH1 0x0 DUP4 ADD DUP5 PUSH2 0xD37 JUMP JUMPDEST SWAP3 SWAP2 POP POP JUMP JUMPDEST PUSH1 0x0 PUSH1 0x40 DUP3 ADD SWAP1 POP PUSH2 0xD76 PUSH1 0x0 DUP4 ADD DUP6 PUSH2 0xD37 JUMP JUMPDEST PUSH2 0xD83 PUSH1 0x20 DUP4 ADD DUP5 PUSH2 0xD37 JUMP JUMPDEST SWAP4 SWAP3 POP POP POP JUMP JUMPDEST PUSH1 0x0 DUP1 REVERT JUMPDEST PUSH1 0x0 DUP1 REVERT JUMPDEST PUSH1 0x0 PUSH1 0x1F NOT PUSH1 0x1F DUP4 ADD AND SWAP1 POP SWAP2 SWAP1 POP JUMP JUMPDEST PUSH32 0x4E487B7100000000000000000000000000000000000000000000000000000000 PUSH1 0x0 MSTORE PUSH1 0x41 PUSH1 0x4 MSTORE PUSH1 0x24 PUSH1 0x0 REVERT JUMPDEST PUSH2 0xDDD DUP3 PUSH2 0xD94 JUMP JUMPDEST DUP2 ADD DUP2 DUP2 LT PUSH8 0xFFFFFFFFFFFFFFFF DUP3 GT OR ISZERO PUSH2 0xDFC JUMPI PUSH2 0xDFB PUSH2 0xDA5 JUMP JUMPDEST JUMPDEST DUP1 PUSH1 0x40 MSTORE POP POP POP JUMP JUMPDEST PUSH1 0x0 PUSH2 0xE0F PUSH2 0xCC0 JUMP JUMPDEST SWAP1 POP PUSH2 0xE1B DUP3 DUP3 PUSH2 0xDD4 JUMP JUMPDEST SWAP2 SWAP1 POP JUMP JUMPDEST PUSH1 0x0 PUSH8 0xFFFFFFFFFFFFFFFF DUP3 GT ISZERO PUSH2 0xE3B JUMPI PUSH2 0xE3A PUSH2 0xDA5 JUMP JUMPDEST JUMPDEST PUSH2 0xE44 DUP3 PUSH2 0xD94 JUMP JUMPDEST SWAP1 POP PUSH1 0x20 DUP2 ADD SWAP1 POP SWAP2 SWAP1 POP JUMP JUMPDEST DUP3 DUP2 DUP4 CALLDATACOPY PUSH1 0x0 DUP4 DUP4 ADD MSTORE POP POP POP JUMP JUMPDEST PUSH1 0x0 PUSH2 0xE73 PUSH2 0xE6E DUP5 PUSH2 0xE20 JUMP JUMPDEST PUSH2 0xE05 JUMP JUMPDEST SWAP1 POP DUP3 DUP2 MSTORE PUSH1 0x20 DUP2 ADD DUP5 DUP5 DUP5 ADD GT ISZERO PUSH2 0xE8F JUMPI PUSH2 0xE8E PUSH2 0xD8F JUMP JUMPDEST JUMPDEST PUSH2 0xE9A DUP5 DUP3 DUP6 PUSH2 0xE51 JUMP JUMPDEST POP SWAP4 SWAP3 POP POP POP JUMP JUMPDEST PUSH1 0x0 DUP3 PUSH1 0x1F DUP4 ADD SLT PUSH2 0xEB7 JUMPI PUSH2 0xEB6 PUSH2 0xD8A JUMP JUMPDEST JUMPDEST DUP2 CALLDATALOAD PUSH2 0xEC7 DUP5 DUP3 PUSH1 0x20 DUP7 ADD PUSH2 0xE60 JUMP JUMPDEST SWAP2 POP POP SWAP3 SWAP2 POP POP JUMP JUMPDEST PUSH1 0x0 DUP1 PUSH1 0x40 DUP4 DUP6 SUB SLT ISZERO PUSH2 0xEE7 JUMPI PUSH2 0xEE6 PUSH2 0xCCA JUMP JUMPDEST JUMPDEST PUSH1 0x0 DUP4 ADD CALLDATALOAD PUSH8 0xFFFFFFFFFFFFFFFF DUP2 GT ISZERO PUSH2 0xF05 JUMPI PUSH2 0xF04 PUSH2 0xCCF JUMP JUMPDEST JUMPDEST PUSH2 0xF11 DUP6 DUP3 DUP7 ADD PUSH2 0xEA2 JUMP JUMPDEST SWAP3 POP POP PUSH1 0x20 DUP4 ADD CALLDATALOAD PUSH8 0xFFFFFFFFFFFFFFFF DUP2 GT ISZERO PUSH2 0xF32 JUMPI PUSH2 0xF31 PUSH2 0xCCF JUMP JUMPDEST JUMPDEST PUSH2 0xF3E DUP6 DUP3 DUP7 ADD PUSH2 0xEA2 JUMP JUMPDEST SWAP2 POP POP SWAP3 POP SWAP3 SWAP1 POP JUMP JUMPDEST PUSH1 0x0 DUP2 MLOAD SWAP1 POP SWAP2 SWAP1 POP JUMP JUMPDEST PUSH1 0x0 DUP3 DUP3 MSTORE PUSH1 0x20 DUP3 ADD SWAP1 POP SWAP3 SWAP2 POP POP JUMP JUMPDEST PUSH1 0x0 JUMPDEST DUP4 DUP2 LT ISZERO PUSH2 0xF82 JUMPI DUP1 DUP3 ADD MLOAD DUP2 DUP5 ADD MSTORE PUSH1 0x20 DUP2 ADD SWAP1 POP PUSH2 0xF67 JUMP JUMPDEST PUSH1 0x0 DUP5 DUP5 ADD MSTORE POP POP POP POP JUMP JUMPDEST PUSH1 0x0 PUSH2 0xF99 DUP3 PUSH2 0xF48 JUMP JUMPDEST PUSH2 0xFA3 DUP2 DUP6 PUSH2 0xF53 JUMP JUMPDEST SWAP4 POP PUSH2 0xFB3 DUP2 DUP6 PUSH1 0x20 DUP7 ADD PUSH2 0xF64 JUMP JUMPDEST PUSH2 0xFBC DUP2 PUSH2 0xD94 JUMP JUMPDEST DUP5 ADD SWAP2 POP POP SWAP3 SWAP2 POP POP JUMP JUMPDEST PUSH1 0x0 PUSH1 0x60 DUP3 ADD SWAP1 POP PUSH2 0xFDC PUSH1 0x0 DUP4 ADD DUP7 PUSH2 0xD37 JUMP JUMPDEST DUP2 DUP2 SUB PUSH1 0x20 DUP4 ADD MSTORE PUSH2 0xFEE DUP2 DUP6 PUSH2 0xF8E JUMP JUMPDEST SWAP1 POP DUP2 DUP2 SUB PUSH1 0x40 DUP4 ADD MSTORE PUSH2 0x1002 DUP2 DUP5 PUSH2 0xF8E JUMP JUMPDEST SWAP1 POP SWAP5 SWAP4 POP POP POP POP JUMP JUMPDEST PUSH1 0x0 PUSH1 0xA0 DUP3 ADD SWAP1 POP PUSH2 0x1021 PUSH1 0x0 DUP4 ADD DUP9 PUSH2 0xD37 JUMP JUMPDEST DUP2 DUP2 SUB PUSH1 0x20 DUP4 ADD MSTORE PUSH2 0x1033 DUP2 DUP8 PUSH2 0xF8E JUMP JUMPDEST SWAP1 POP DUP2 DUP2 SUB PUSH1 0x40 DUP4 ADD MSTORE PUSH2 0x1047 DUP2 DUP7 PUSH2 0xF8E JUMP JUMPDEST SWAP1 POP PUSH2 0x1056 PUSH1 0x60 DUP4 ADD DUP6 PUSH2 0xD37 JUMP JUMPDEST PUSH2 0x1063 PUSH1 0x80 DUP4 ADD DUP5 PUSH2 0xD37 JUMP JUMPDEST SWAP7 SWAP6 POP POP POP POP POP POP JUMP JUMPDEST PUSH1 0x0 PUSH20 0xFFFFFFFFFFFFFFFFFFFFFFFFFFFFFFFFFFFFFFFF DUP3 AND SWAP1 POP SWAP2 SWAP1 POP JUMP JUMPDEST PUSH1 0x0 PUSH2 0x1098 DUP3 PUSH2 0x106D JUMP JUMPDEST SWAP1 POP SWAP2 SWAP1 POP JUMP JUMPDEST PUSH2 0x10A8 DUP2 PUSH2 0x108D JUMP JUMPDEST DUP3 MSTORE POP POP JUMP JUMPDEST PUSH1 0x0 PUSH1 0x20 DUP3 ADD SWAP1 POP PUSH2 0x10C3 PUSH1 0x0 DUP4 ADD DUP5 PUSH2 0x109F JUMP JUMPDEST SWAP3 SWAP2 POP POP JUMP JUMPDEST PUSH2 0x10D2 DUP2 PUSH2 0x108D JUMP JUMPDEST DUP2 EQ PUSH2 0x10DD JUMPI PUSH1 0x0 DUP1 REVERT JUMPDEST POP JUMP JUMPDEST PUSH1 0x0 DUP2 CALLDATALOAD SWAP1 POP PUSH2 0x10EF DUP2 PUSH2 0x10C9 JUMP JUMPDEST SWAP3 SWAP2 POP POP JUMP JUMPDEST PUSH1 0x0 PUSH1 0x20 DUP3 DUP5 SUB SLT ISZERO PUSH2 0x110B JUMPI PUSH2 0x110A PUSH2 0xCCA JUMP JUMPDEST JUMPDEST PUSH1 0x0 PUSH2 0x1119 DUP5 DUP3 DUP6 ADD PUSH2 0x10E0 JUMP JUMPDEST SWAP2 POP POP SWAP3 SWAP2 POP POP JUMP JUMPDEST PUSH1 0x0 DUP2 ISZERO ISZERO SWAP1 POP SWAP2 SWAP1 POP JUMP JUMPDEST PUSH2 0x1137 DUP2 PUSH2 0x1122 JUMP JUMPDEST DUP3 MSTORE POP POP JUMP JUMPDEST PUSH1 0x0 PUSH1 0x20 DUP3 ADD SWAP1 POP PUSH2 0x1152 PUSH1 0x0 DUP4 ADD DUP5 PUSH2 0x112E JUMP JUMPDEST SWAP3 SWAP2 POP POP JUMP JUMPDEST PUSH1 0x0 DUP1 PUSH1 0x40 DUP4 DUP6 SUB SLT ISZERO PUSH2 0x116F JUMPI PUSH2 0x116E PUSH2 0xCCA JUMP JUMPDEST JUMPDEST PUSH1 0x0 PUSH2 0x117D DUP6 DUP3 DUP7 ADD PUSH2 0xCF5 JUMP JUMPDEST SWAP3 POP POP PUSH1 0x20 PUSH2 0x118E DUP6 DUP3 DUP7 ADD PUSH2 0xCF5 JUMP JUMPDEST SWAP2 POP POP SWAP3 POP SWAP3 SWAP1 POP JUMP JUMPDEST PUSH32 0x4F776E6572206973206E6F7420616C6C6F77656420746F20766F746500000000 PUSH1 0x0 DUP3 ADD MSTORE POP JUMP JUMPDEST PUSH1 0x0 PUSH2 0x11CE PUSH1 0x1C DUP4 PUSH2 0xF53 JUMP JUMPDEST SWAP2 POP PUSH2 0x11D9 DUP3 PUSH2 0x1198 JUMP JUMPDEST PUSH1 0x20 DUP3 ADD SWAP1 POP SWAP2 SWAP1 POP JUMP JUMPDEST PUSH1 0x0 PUSH1 0x20 DUP3 ADD SWAP1 POP DUP2 DUP2 SUB PUSH1 0x0 DUP4 ADD MSTORE PUSH2 0x11FD DUP2 PUSH2 0x11C1 JUMP JUMPDEST SWAP1 POP SWAP2 SWAP1 POP JUMP JUMPDEST PUSH32 0x566F74696E67206973206E6F7420616374697665000000000000000000000000 PUSH1 0x0 DUP3 ADD MSTORE POP JUMP JUMPDEST PUSH1 0x0 PUSH2 0x123A PUSH1 0x14 DUP4 PUSH2 0xF53 JUMP JUMPDEST SWAP2 POP PUSH2 0x1245 DUP3 PUSH2 0x1204 JUMP JUMPDEST PUSH1 0x20 DUP3 ADD SWAP1 POP SWAP2 SWAP1 POP JUMP JUMPDEST PUSH1 0x0 PUSH1 0x20 DUP3 ADD SWAP1 POP DUP2 DUP2 SUB PUSH1 0x0 DUP4 ADD MSTORE PUSH2 0x1269 DUP2 PUSH2 0x122D JUMP JUMPDEST SWAP1 POP SWAP2 SWAP1 POP JUMP JUMPDEST PUSH32 0x496E76616C69642063616E646964617465204944000000000000000000000000 PUSH1 0x0 DUP3 ADD MSTORE POP JUMP JUMPDEST PUSH1 0x0 PUSH2 0x12A6 PUSH1 0x14 DUP4 PUSH2 0xF53 JUMP JUMPDEST SWAP2 POP PUSH2 0x12B1 DUP3 PUSH2 0x1270 JUMP JUMPDEST PUSH1 0x20 DUP3 ADD SWAP1 POP SWAP2 SWAP1 POP JUMP JUMPDEST PUSH1 0x0 PUSH1 0x20 DUP3 ADD SWAP1 POP DUP2 DUP2 SUB PUSH1 0x0 DUP4 ADD MSTORE PUSH2 0x12D5 DUP2 PUSH2 0x1299 JUMP JUMPDEST SWAP1 POP SWAP2 SWAP1 POP JUMP JUMPDEST PUSH32 0x596F75206861766520616C726561647920766F74656400000000000000000000 PUSH1 0x0 DUP3 ADD MSTORE POP JUMP JUMPDEST PUSH1 0x0 PUSH2 0x1312 PUSH1 0x16 DUP4 PUSH2 0xF53 JUMP JUMPDEST SWAP2 POP PUSH2 0x131D DUP3 PUSH2 0x12DC JUMP JUMPDEST PUSH1 0x20 DUP3 ADD SWAP1 POP SWAP2 SWAP1 POP JUMP JUMPDEST PUSH1 0x0 PUSH1 0x20 DUP3 ADD SWAP1 POP DUP2 DUP2 SUB PUSH1 0x0 DUP4 ADD MSTORE PUSH2 0x1341 DUP2 PUSH2 0x1305 JUMP JUMPDEST SWAP1 POP SWAP2 SWAP1 POP JUMP JUMPDEST PUSH32 0x4E487B7100000000000000000000000000000000000000000000000000000000 PUSH1 0x0 MSTORE PUSH1 0x11 PUSH1 0x4 MSTORE PUSH1 0x24 PUSH1 0x0 REVERT JUMPDEST PUSH1 0x0 PUSH2 0x1382 DUP3 PUSH2 0xCD4 JUMP JUMPDEST SWAP2 POP PUSH32 0xFFFFFFFFFFFFFFFFFFFFFFFFFFFFFFFFFFFFFFFFFFFFFFFFFFFFFFFFFFFFFFFF DUP3 SUB PUSH2 0x13B4 JUMPI PUSH2 0x13B3 PUSH2 0x1348 JUMP JUMPDEST JUMPDEST PUSH1 0x1 DUP3 ADD SWAP1 POP SWAP2 SWAP1 POP JUMP JUMPDEST PUSH32 0x4F6E6C79206F776E65722063616E20706572666F726D20746869732061637469 PUSH1 0x0 DUP3 ADD MSTORE PUSH32 0x6F6E000000000000000000000000000000000000000000000000000000000000 PUSH1 0x20 DUP3 ADD MSTORE POP JUMP JUMPDEST PUSH1 0x0 PUSH2 0x141B PUSH1 0x22 DUP4 PUSH2 0xF53 JUMP JUMPDEST SWAP2 POP PUSH2 0x1426 DUP3 PUSH2 0x13BF JUMP JUMPDEST PUSH1 0x40 DUP3 ADD SWAP1 POP SWAP2 SWAP1 POP JUMP JUMPDEST PUSH1 0x0 PUSH1 0x20 DUP3 ADD SWAP1 POP DUP2 DUP2 SUB PUSH1 0x0 DUP4 ADD MSTORE PUSH2 0x144A DUP2 PUSH2 0x140E JUMP JUMPDEST SWAP1 POP SWAP2 SWAP1 POP JUMP JUMPDEST PUSH32 0x4E487B7100000000000000000000000000000000000000000000000000000000 PUSH1 0x0 MSTORE PUSH1 0x22 PUSH1 0x4 MSTORE PUSH1 0x24 PUSH1 0x0 REVERT JUMPDEST PUSH1 0x0 PUSH1 0x2 DUP3 DIV SWAP1 POP PUSH1 0x1 DUP3 AND DUP1 PUSH2 0x1498 JUMPI PUSH1 0x7F DUP3 AND SWAP2 POP JUMPDEST PUSH1 0x20 DUP3 LT DUP2 SUB PUSH2 0x14AB JUMPI PUSH2 0x14AA PUSH2 0x1451 JUMP JUMPDEST JUMPDEST POP SWAP2 SWAP1 POP JUMP JUMPDEST PUSH1 0x0 DUP2 SWAP1 POP DUP2 PUSH1 0x0 MSTORE PUSH1 0x20 PUSH1 0x0 KECCAK256 SWAP1 POP SWAP2 SWAP1 POP JUMP JUMPDEST PUSH1 0x0 PUSH1 0x20 PUSH1 0x1F DUP4 ADD DIV SWAP1 POP SWAP2 SWAP1 POP JUMP JUMPDEST PUSH1 0x0 DUP3 DUP3 SHL SWAP1 POP SWAP3 SWAP2 POP POP JUMP JUMPDEST PUSH1 0x0 PUSH1 0x8 DUP4 MUL PUSH2 0x1513 PUSH32 0xFFFFFFFFFFFFFFFFFFFFFFFFFFFFFFFFFFFFFFFFFFFFFFFFFFFFFFFFFFFFFFFF DUP3 PUSH2 0x14D6 JUMP JUMPDEST PUSH2 0x151D DUP7 DUP4 PUSH2 0x14D6 JUMP JUMPDEST SWAP6 POP DUP1 NOT DUP5 AND SWAP4 POP DUP1 DUP7 AND DUP5 OR SWAP3 POP POP POP SWAP4 SWAP3 POP POP POP JUMP JUMPDEST PUSH1 0x0 DUP2 SWAP1 POP SWAP2 SWAP1 POP JUMP JUMPDEST PUSH1 0x0 PUSH2 0x155A PUSH2 0x1555 PUSH2 0x1550 DUP5 PUSH2 0xCD4 JUMP JUMPDEST PUSH2 0x1535 JUMP JUMPDEST PUSH2 0xCD4 JUMP JUMPDEST SWAP1 POP SWAP2 SWAP1 POP JUMP JUMPDEST PUSH1 0x0 DUP2 SWAP1 POP SWAP2 SWAP1 POP JUMP JUMPDEST PUSH2 0x1574 DUP4 PUSH2 0x153F JUMP JUMPDEST PUSH2 0x1588 PUSH2 0x1580 DUP3 PUSH2 0x1561 JUMP JUMPDEST DUP5 DUP5 SLOAD PUSH2 0x14E3 JUMP JUMPDEST DUP3 SSTORE POP POP POP POP JUMP JUMPDEST PUSH1 0x0 SWAP1 JUMP JUMPDEST PUSH2 0x159D PUSH2 0x1590 JUMP JUMPDEST PUSH2 0x15A8 DUP2 DUP5 DUP5 PUSH2 0x156B JUMP JUMPDEST POP POP POP JUMP JUMPDEST JUMPDEST DUP2 DUP2 LT ISZERO PUSH2 0x15CC JUMPI PUSH2 0x15C1 PUSH1 0x0 DUP3 PUSH2 0x1595 JUMP JUMPDEST PUSH1 0x1 DUP2 ADD SWAP1 POP PUSH2 0x15AE JUMP JUMPDEST POP POP JUMP JUMPDEST PUSH1 0x1F DUP3 GT ISZERO PUSH2 0x1611 JUMPI PUSH2 0x15E2 DUP2 PUSH2 0x14B1 JUMP JUMPDEST PUSH2 0x15EB DUP5 PUSH2 0x14C6 JUMP JUMPDEST DUP2 ADD PUSH1 0x20 DUP6 LT ISZERO PUSH2 0x15FA JUMPI DUP2 SWAP1 POP JUMPDEST PUSH2 0x160E PUSH2 0x1606 DUP6 PUSH2 0x14C6 JUMP JUMPDEST DUP4 ADD DUP3 PUSH2 0x15AD JUMP JUMPDEST POP POP JUMPDEST POP POP POP JUMP JUMPDEST PUSH1 0x0 DUP3 DUP3 SHR SWAP1 POP SWAP3 SWAP2 POP POP JUMP JUMPDEST PUSH1 0x0 PUSH2 0x1634 PUSH1 0x0 NOT DUP5 PUSH1 0x8 MUL PUSH2 0x1616 JUMP JUMPDEST NOT DUP1 DUP4 AND SWAP2 POP POP SWAP3 SWAP2 POP POP JUMP JUMPDEST PUSH1 0x0 PUSH2 0x164D DUP4 DUP4 PUSH2 0x1623 JUMP JUMPDEST SWAP2 POP DUP3 PUSH1 0x2 MUL DUP3 OR SWAP1 POP SWAP3 SWAP2 POP POP JUMP JUMPDEST PUSH2 0x1666 DUP3 PUSH2 0xF48 JUMP JUMPDEST PUSH8 0xFFFFFFFFFFFFFFFF DUP2 GT ISZERO PUSH2 0x167F JUMPI PUSH2 0x167E PUSH2 0xDA5 JUMP JUMPDEST JUMPDEST PUSH2 0x1689 DUP3 SLOAD PUSH2 0x1480 JUMP JUMPDEST PUSH2 0x1694 DUP3 DUP3 DUP6 PUSH2 0x15D0 JUMP JUMPDEST PUSH1 0x0 PUSH1 0x20 SWAP1 POP PUSH1 0x1F DUP4 GT PUSH1 0x1 DUP2 EQ PUSH2 0x16C7 JUMPI PUSH1 0x0 DUP5 ISZERO PUSH2 0x16B5 JUMPI DUP3 DUP8 ADD MLOAD SWAP1 POP JUMPDEST PUSH2 0x16BF DUP6 DUP3 PUSH2 0x1641 JUMP JUMPDEST DUP7 SSTORE POP PUSH2 0x1727 JUMP JUMPDEST PUSH1 0x1F NOT DUP5 AND PUSH2 0x16D5 DUP7 PUSH2 0x14B1 JUMP JUMPDEST PUSH1 0x0 JUMPDEST DUP3 DUP2 LT ISZERO PUSH2 0x16FD JUMPI DUP5 DUP10 ADD MLOAD DUP3 SSTORE PUSH1 0x1 DUP3 ADD SWAP2 POP PUSH1 0x20 DUP6 ADD SWAP5 POP PUSH1 0x20 DUP2 ADD SWAP1 POP PUSH2 0x16D8 JUMP JUMPDEST DUP7 DUP4 LT ISZERO PUSH2 0x171A JUMPI DUP5 DUP10 ADD MLOAD PUSH2 0x1716 PUSH1 0x1F DUP10 AND DUP3 PUSH2 0x1623 JUMP JUMPDEST DUP4 SSTORE POP JUMPDEST PUSH1 0x1 PUSH1 0x2 DUP9 MUL ADD DUP9 SSTORE POP POP POP JUMPDEST POP POP POP POP POP POP JUMP JUMPDEST PUSH1 0x0 PUSH2 0x173A DUP3 PUSH2 0xCD4 JUMP JUMPDEST SWAP2 POP PUSH2 0x1745 DUP4 PUSH2 0xCD4 JUMP JUMPDEST SWAP3 POP DUP3 DUP3 ADD SWAP1 POP DUP1 DUP3 GT ISZERO PUSH2 0x175D JUMPI PUSH2 0x175C PUSH2 0x1348 JUMP JUMPDEST JUMPDEST SWAP3 SWAP2 POP POP JUMP JUMPDEST PUSH32 0x4E6F20766F746573206361737420796574000000000000000000000000000000 PUSH1 0x0 DUP3 ADD MSTORE POP JUMP JUMPDEST PUSH1 0x0 PUSH2 0x1799 PUSH1 0x11 DUP4 PUSH2 0xF53 JUMP JUMPDEST SWAP2 POP PUSH2 0x17A4 DUP3 PUSH2 0x1763 JUMP JUMPDEST PUSH1 0x20 DUP3 ADD SWAP1 POP SWAP2 SWAP1 POP JUMP JUMPDEST PUSH1 0x0 PUSH1 0x20 DUP3 ADD SWAP1 POP DUP2 DUP2 SUB PUSH1 0x0 DUP4 ADD MSTORE PUSH2 0x17C8 DUP2 PUSH2 0x178C JUMP JUMPDEST SWAP1 POP SWAP2 SWAP1 POP JUMP JUMPDEST PUSH1 0x0 PUSH2 0x17DA DUP3 PUSH2 0xCD4 JUMP JUMPDEST SWAP2 POP PUSH2 0x17E5 DUP4 PUSH2 0xCD4 JUMP JUMPDEST SWAP3 POP DUP3 DUP3 MUL PUSH2 0x17F3 DUP2 PUSH2 0xCD4 JUMP JUMPDEST SWAP2 POP DUP3 DUP3 DIV DUP5 EQ DUP4 ISZERO OR PUSH2 0x180A JUMPI PUSH2 0x1809 PUSH2 0x1348 JUMP JUMPDEST JUMPDEST POP SWAP3 SWAP2 POP POP JUMP JUMPDEST PUSH32 0x4E487B7100000000000000000000000000000000000000000000000000000000 PUSH1 0x0 MSTORE PUSH1 0x12 PUSH1 0x4 MSTORE PUSH1 0x24 PUSH1 0x0 REVERT JUMPDEST PUSH1 0x0 PUSH2 0x184B DUP3 PUSH2 0xCD4 JUMP JUMPDEST SWAP2 POP PUSH2 0x1856 DUP4 PUSH2 0xCD4 JUMP JUMPDEST SWAP3 POP DUP3 PUSH2 0x1866 JUMPI PUSH2 0x1865 PUSH2 0x1811 JUMP JUMPDEST JUMPDEST DUP3 DUP3 DIV SWAP1 POP SWAP3 SWAP2 POP POP JUMP JUMPDEST PUSH32 0x446174657320616C726561647920736574000000000000000000000000000000 PUSH1 0x0 DUP3 ADD MSTORE POP JUMP JUMPDEST PUSH1 0x0 PUSH2 0x18A7 PUSH1 0x11 DUP4 PUSH2 0xF53 JUMP JUMPDEST SWAP2 POP PUSH2 0x18B2 DUP3 PUSH2 0x1871 JUMP JUMPDEST PUSH1 0x20 DUP3 ADD SWAP1 POP SWAP2 SWAP1 POP JUMP JUMPDEST PUSH1 0x0 PUSH1 0x20 DUP3 ADD SWAP1 POP DUP2 DUP2 SUB PUSH1 0x0 DUP4 ADD MSTORE PUSH2 0x18D6 DUP2 PUSH2 0x189A JUMP JUMPDEST SWAP1 POP SWAP2 SWAP1 POP JUMP JUMPDEST PUSH32 0x496E76616C696420646174652073657474696E67730000000000000000000000 PUSH1 0x0 DUP3 ADD MSTORE POP JUMP JUMPDEST PUSH1 0x0 PUSH2 0x1913 PUSH1 0x15 DUP4 PUSH2 0xF53 JUMP JUMPDEST SWAP2 POP PUSH2 0x191E DUP3 PUSH2 0x18DD JUMP JUMPDEST PUSH1 0x20 DUP3 ADD SWAP1 POP SWAP2 SWAP1 POP JUMP JUMPDEST PUSH1 0x0 PUSH1 0x20 DUP3 ADD SWAP1 POP DUP2 DUP2 SUB PUSH1 0x0 DUP4 ADD MSTORE PUSH2 0x1942 DUP2 PUSH2 0x1906 JUMP JUMPDEST SWAP1 POP SWAP2 SWAP1 POP JUMP INVALID LOG2 PUSH5 0x6970667358 0x22 SLT KECCAK256 SWAP16 0xA9 CODECOPY LOG0 DUP10 0xDF COINBASE 0xBA 0xA6 0xD7 0xE9 0xAB GT 0xCB 0xAA POP 0xF PUSH27 0x683EA3F50ED964ED2C88411B86CA64736F6C634300081100330000 "
		},
		"gasEstimates": {
			"creation": {
				"codeDepositCost": "1305400",
				"executionCost": "25622",
				"totalCost": "1331022"
			},
			"external": {
				"addCandidate(string,string)": "infinite",
				"checkVote()": "2634",
				"countCandidates()": "2517",
				"getCandidate(uint256)": "infinite",
				"getDates()": "infinite",
				"getLeadingCandidate()": "infinite",
				"owner()": "2536",
				"setDates(uint256,uint256)": "infinite",
				"vote(uint256)": "infinite",
				"voters(address)": "2889",
				"votingEnd()": "2429",
				"votingStart()": "2452"
			}
		},
		"methodIdentifiers": {
			"addCandidate(string,string)": "26541b56",
			"checkVote()": "b0417e98",
			"countCandidates()": "b86eda91",
			"getCandidate(uint256)": "35b8e820",
			"getDates()": "16441813",
			"getLeadingCandidate()": "69d76ae2",
			"owner()": "8da5cb5b",
			"setDates(uint256,uint256)": "dedf141e",
			"vote(uint256)": "0121b93f",
			"voters(address)": "a3ec138d",
			"votingEnd()": "85a38635",
			"votingStart()": "101158af"
		}
	},
	"abi": [
		{
			"inputs": [],
			"stateMutability": "nonpayable",
			"type": "constructor"
		},
		{
			"inputs": [
				{
					"internalType": "string",
					"name": "name",
					"type": "string"
				},
				{
					"internalType": "string",
					"name": "party",
					"type": "string"
				}
			],
			"name": "addCandidate",
			"outputs": [
				{
					"internalType": "uint256",
					"name": "",
					"type": "uint256"
				}
			],
			"stateMutability": "nonpayable",
			"type": "function"
		},
		{
			"inputs": [],
			"name": "checkVote",
			"outputs": [
				{
					"internalType": "bool",
					"name": "",
					"type": "bool"
				}
			],
			"stateMutability": "view",
			"type": "function"
		},
		{
			"inputs": [],
			"name": "countCandidates",
			"outputs": [
				{
					"internalType": "uint256",
					"name": "",
					"type": "uint256"
				}
			],
			"stateMutability": "view",
			"type": "function"
		},
		{
			"inputs": [
				{
					"internalType": "uint256",
					"name": "candidateID",
					"type": "uint256"
				}
			],
			"name": "getCandidate",
			"outputs": [
				{
					"internalType": "uint256",
					"name": "",
					"type": "uint256"
				},
				{
					"internalType": "string",
					"name": "",
					"type": "string"
				},
				{
					"internalType": "string",
					"name": "",
					"type": "string"
				}
			],
			"stateMutability": "view",
			"type": "function"
		},
		{
			"inputs": [],
			"name": "getDates",
			"outputs": [
				{
					"internalType": "uint256",
					"name": "",
					"type": "uint256"
				},
				{
					"internalType": "uint256",
					"name": "",
					"type": "uint256"
				}
			],
			"stateMutability": "view",
			"type": "function"
		},
		{
			"inputs": [],
			"name": "getLeadingCandidate",
			"outputs": [
				{
					"internalType": "uint256",
					"name": "",
					"type": "uint256"
				},
				{
					"internalType": "string",
					"name": "",
					"type": "string"
				},
				{
					"internalType": "string",
					"name": "",
					"type": "string"
				},
				{
					"internalType": "uint256",
					"name": "",
					"type": "uint256"
				},
				{
					"internalType": "uint256",
					"name": "",
					"type": "uint256"
				}
			],
			"stateMutability": "view",
			"type": "function"
		},
		{
			"inputs": [],
			"name": "owner",
			"outputs": [
				{
					"internalType": "address",
					"name": "",
					"type": "address"
				}
			],
			"stateMutability": "view",
			"type": "function"
		},
		{
			"inputs": [
				{
					"internalType": "uint256",
					"name": "_startDate",
					"type": "uint256"
				},
				{
					"internalType": "uint256",
					"name": "_endDate",
					"type": "uint256"
				}
			],
			"name": "setDates",
			"outputs": [],
			"stateMutability": "nonpayable",
			"type": "function"
		},
		{
			"inputs": [
				{
					"internalType": "uint256",
					"name": "candidateID",
					"type": "uint256"
				}
			],
			"name": "vote",
			"outputs": [],
			"stateMutability": "nonpayable",
			"type": "function"
		},
		{
			"inputs": [
				{
					"internalType": "address",
					"name": "",
					"type": "address"
				}
			],
			"name": "voters",
			"outputs": [
				{
					"internalType": "bool",
					"name": "",
					"type": "bool"
				}
			],
			"stateMutability": "view",
			"type": "function"
		},
		{
			"inputs": [],
			"name": "votingEnd",
			"outputs": [
				{
					"internalType": "uint256",
					"name": "",
					"type": "uint256"
				}
			],
			"stateMutability": "view",
			"type": "function"
		},
		{
			"inputs": [],
			"name": "votingStart",
			"outputs": [
				{
					"internalType": "uint256",
					"name": "",
					"type": "uint256"
				}
			],
			"stateMutability": "view",
			"type": "function"
		}
	]
}